{
	"AuctionAnswers.sol": {
		"Auction": {
			"abi": [
				{
					"inputs": [],
					"payable": true,
					"stateMutability": "payable",
					"type": "constructor"
				},
				{
					"constant": true,
					"inputs": [],
					"name": "beneficiary",
					"outputs": [
						{
							"internalType": "address",
							"name": "",
							"type": "address"
						}
					],
					"payable": false,
					"stateMutability": "view",
					"type": "function"
				},
				{
					"constant": false,
					"inputs": [
						{
							"internalType": "uint256",
							"name": "_itemId",
							"type": "uint256"
						},
						{
							"internalType": "uint256",
							"name": "_count",
							"type": "uint256"
						}
					],
					"name": "bid",
					"outputs": [],
					"payable": true,
					"stateMutability": "payable",
					"type": "function"
				},
				{
					"constant": true,
					"inputs": [
						{
							"internalType": "uint256",
							"name": "id",
							"type": "uint256"
						}
					],
					"name": "getPersonDetails",
					"outputs": [
						{
							"internalType": "uint256",
							"name": "",
							"type": "uint256"
						},
						{
							"internalType": "uint256",
							"name": "",
							"type": "uint256"
						},
						{
							"internalType": "address",
							"name": "",
							"type": "address"
						}
					],
					"payable": false,
					"stateMutability": "view",
					"type": "function"
				},
				{
					"constant": true,
					"inputs": [
						{
							"internalType": "uint256",
							"name": "",
							"type": "uint256"
						}
					],
					"name": "items",
					"outputs": [
						{
							"internalType": "uint256",
							"name": "itemId",
							"type": "uint256"
						}
					],
					"payable": false,
					"stateMutability": "view",
					"type": "function"
				},
				{
					"constant": false,
					"inputs": [],
					"name": "register",
					"outputs": [],
					"payable": true,
					"stateMutability": "payable",
					"type": "function"
				},
				{
					"constant": false,
					"inputs": [],
					"name": "revealWinners",
					"outputs": [],
					"payable": false,
					"stateMutability": "nonpayable",
					"type": "function"
				},
				{
					"constant": true,
					"inputs": [
						{
							"internalType": "uint256",
							"name": "",
							"type": "uint256"
						}
					],
					"name": "winners",
					"outputs": [
						{
							"internalType": "address",
							"name": "",
							"type": "address"
						}
					],
					"payable": false,
					"stateMutability": "view",
					"type": "function"
				}
			],
			"devdoc": {
				"methods": {}
			},
			"evm": {
				"assembly": "    /* \"AuctionAnswers.sol\":25:5807  contract Auction {\r... */\n  mstore(0x40, 0x80)\n    /* \"AuctionAnswers.sol\":836:837  0 */\n  0x00\n    /* \"AuctionAnswers.sol\":817:837  uint bidderCount = 0 */\n  0x17\n  sstore\n    /* \"AuctionAnswers.sol\":1192:1202  msg.sender */\n  caller\n    /* \"AuctionAnswers.sol\":1178:1189  beneficiary */\n  0x16\n  0x00\n    /* \"AuctionAnswers.sol\":1178:1202  beneficiary = msg.sender */\n  0x0100\n  exp\n  dup2\n  sload\n  dup2\n  0xffffffffffffffffffffffffffffffffffffffff\n  mul\n  not\n  and\n  swap1\n  dup4\n  0xffffffffffffffffffffffffffffffffffffffff\n  and\n  mul\n  or\n  swap1\n  sstore\n  pop\n    /* \"AuctionAnswers.sol\":1252:1276  uint[] memory emptyArray */\n  0x60\n    /* \"AuctionAnswers.sol\":1298:1337  Item({itemId:0, itemTokens:emptyArray}) */\n  mload(0x40)\n  dup1\n  0x40\n  add\n  0x40\n  mstore\n  dup1\n    /* \"AuctionAnswers.sol\":1311:1312  0 */\n  0x00\n    /* \"AuctionAnswers.sol\":1298:1337  Item({itemId:0, itemTokens:emptyArray}) */\n  dup2\n  mstore\n  0x20\n  add\n    /* \"AuctionAnswers.sol\":1325:1335  emptyArray */\n  dup3\n    /* \"AuctionAnswers.sol\":1298:1337  Item({itemId:0, itemTokens:emptyArray}) */\n  dup2\n  mstore\n  pop\n    /* \"AuctionAnswers.sol\":1287:1292  items */\n  0x0d\n    /* \"AuctionAnswers.sol\":1293:1294  0 */\n  0x00\n    /* \"AuctionAnswers.sol\":1287:1295  items[0] */\n  0x03\n  dup2\n  lt\n  tag_3\n  jumpi\n  invalid\ntag_3:\n  0x02\n  mul\n  add\n    /* \"AuctionAnswers.sol\":1287:1337  items[0] = Item({itemId:0, itemTokens:emptyArray}) */\n  0x00\n  dup3\n  add\n  mload\n  dup2\n  0x00\n  add\n  sstore\n  0x20\n  dup3\n  add\n  mload\n  dup2\n  0x01\n  add\n  swap1\n  dup1\n  mload\n  swap1\n  0x20\n  add\n  swap1\n  tag_5\n  swap3\n  swap2\n  swap1\n  tag_6\n  jump\t// in\ntag_5:\n  pop\n  swap1\n  pop\n  pop\n    /* \"AuctionAnswers.sol\":1499:1538  Item({itemId:1, itemTokens:emptyArray}) */\n  mload(0x40)\n  dup1\n  0x40\n  add\n  0x40\n  mstore\n  dup1\n    /* \"AuctionAnswers.sol\":1512:1513  1 */\n  0x01\n    /* \"AuctionAnswers.sol\":1499:1538  Item({itemId:1, itemTokens:emptyArray}) */\n  dup2\n  mstore\n  0x20\n  add\n    /* \"AuctionAnswers.sol\":1526:1536  emptyArray */\n  dup3\n    /* \"AuctionAnswers.sol\":1499:1538  Item({itemId:1, itemTokens:emptyArray}) */\n  dup2\n  mstore\n  pop\n    /* \"AuctionAnswers.sol\":1488:1493  items */\n  0x0d\n    /* \"AuctionAnswers.sol\":1494:1495  1 */\n  0x01\n    /* \"AuctionAnswers.sol\":1488:1496  items[1] */\n  0x03\n  dup2\n  lt\n  tag_7\n  jumpi\n  invalid\ntag_7:\n  0x02\n  mul\n  add\n    /* \"AuctionAnswers.sol\":1488:1538  items[1] = Item({itemId:1, itemTokens:emptyArray}) */\n  0x00\n  dup3\n  add\n  mload\n  dup2\n  0x00\n  add\n  sstore\n  0x20\n  dup3\n  add\n  mload\n  dup2\n  0x01\n  add\n  swap1\n  dup1\n  mload\n  swap1\n  0x20\n  add\n  swap1\n  tag_9\n  swap3\n  swap2\n  swap1\n  tag_6\n  jump\t// in\ntag_9:\n  pop\n  swap1\n  pop\n  pop\n    /* \"AuctionAnswers.sol\":1560:1599  Item({itemId:2, itemTokens:emptyArray}) */\n  mload(0x40)\n  dup1\n  0x40\n  add\n  0x40\n  mstore\n  dup1\n    /* \"AuctionAnswers.sol\":1573:1574  2 */\n  0x02\n    /* \"AuctionAnswers.sol\":1560:1599  Item({itemId:2, itemTokens:emptyArray}) */\n  dup2\n  mstore\n  0x20\n  add\n    /* \"AuctionAnswers.sol\":1587:1597  emptyArray */\n  dup3\n    /* \"AuctionAnswers.sol\":1560:1599  Item({itemId:2, itemTokens:emptyArray}) */\n  dup2\n  mstore\n  pop\n    /* \"AuctionAnswers.sol\":1549:1554  items */\n  0x0d\n    /* \"AuctionAnswers.sol\":1555:1556  2 */\n  0x02\n    /* \"AuctionAnswers.sol\":1549:1557  items[2] */\n  0x03\n  dup2\n  lt\n  tag_10\n  jumpi\n  invalid\ntag_10:\n  0x02\n  mul\n  add\n    /* \"AuctionAnswers.sol\":1549:1599  items[2] = Item({itemId:2, itemTokens:emptyArray}) */\n  0x00\n  dup3\n  add\n  mload\n  dup2\n  0x00\n  add\n  sstore\n  0x20\n  dup3\n  add\n  mload\n  dup2\n  0x01\n  add\n  swap1\n  dup1\n  mload\n  swap1\n  0x20\n  add\n  swap1\n  tag_12\n  swap3\n  swap2\n  swap1\n  tag_6\n  jump\t// in\ntag_12:\n  pop\n  swap1\n  pop\n  pop\n    /* \"AuctionAnswers.sol\":878:1638  constructor() public payable{    //constructor\r... */\n  pop\n    /* \"AuctionAnswers.sol\":25:5807  contract Auction {\r... */\n  jump(tag_13)\ntag_6:\n  dup3\n  dup1\n  sload\n  dup3\n  dup3\n  sstore\n  swap1\n  0x00\n  mstore\n  keccak256(0x00, 0x20)\n  swap1\n  dup2\n  add\n  swap3\n  dup3\n  iszero\n  tag_14\n  jumpi\n  swap2\n  0x20\n  mul\n  dup3\n  add\ntag_15:\n  dup3\n  dup2\n  gt\n  iszero\n  tag_16\n  jumpi\n  dup3\n  mload\n  dup3\n  sstore\n  swap2\n  0x20\n  add\n  swap2\n  swap1\n  0x01\n  add\n  swap1\n  jump(tag_15)\ntag_16:\ntag_14:\n  pop\n  swap1\n  pop\n  tag_17\n  swap2\n  swap1\n  tag_18\n  jump\t// in\ntag_17:\n  pop\n  swap1\n  jump\t// out\ntag_18:\n  tag_19\n  swap2\n  swap1\ntag_20:\n  dup1\n  dup3\n  gt\n  iszero\n  tag_21\n  jumpi\n  0x00\n  dup2\n  0x00\n  swap1\n  sstore\n  pop\n  0x01\n  add\n  jump(tag_20)\ntag_21:\n  pop\n  swap1\n  jump\ntag_19:\n  swap1\n  jump\t// out\ntag_13:\n  dataSize(sub_0)\n  dup1\n  dataOffset(sub_0)\n  0x00\n  codecopy\n  0x00\n  return\nstop\n\nsub_0: assembly {\n        /* \"AuctionAnswers.sol\":25:5807  contract Auction {\r... */\n      mstore(0x40, 0x80)\n      jumpi(tag_1, lt(calldatasize, 0x04))\n      shr(0xe0, calldataload(0x00))\n      dup1\n      0x60981705\n      gt\n      tag_9\n      jumpi\n      dup1\n      0x60981705\n      eq\n      tag_5\n      jumpi\n      dup1\n      0x952587d6\n      eq\n      tag_6\n      jumpi\n      dup1\n      0xa2fb1175\n      eq\n      tag_7\n      jumpi\n      dup1\n      0xbfb231d2\n      eq\n      tag_8\n      jumpi\n      jump(tag_1)\n    tag_9:\n      dup1\n      0x1aa3a008\n      eq\n      tag_2\n      jumpi\n      dup1\n      0x38af3eed\n      eq\n      tag_3\n      jumpi\n      dup1\n      0x598647f8\n      eq\n      tag_4\n      jumpi\n    tag_1:\n      0x00\n      dup1\n      revert\n        /* \"AuctionAnswers.sol\":1652:2251  function register() public payable{\r... */\n    tag_2:\n      tag_10\n      tag_11\n      jump\t// in\n    tag_10:\n      stop\n        /* \"AuctionAnswers.sol\":749:775  address public beneficiary */\n    tag_3:\n      callvalue\n        /* \"--CODEGEN--\":8:17   */\n      dup1\n        /* \"--CODEGEN--\":5:7   */\n      iszero\n      tag_12\n      jumpi\n        /* \"--CODEGEN--\":30:31   */\n      0x00\n        /* \"--CODEGEN--\":27:28   */\n      dup1\n        /* \"--CODEGEN--\":20:32   */\n      revert\n        /* \"--CODEGEN--\":5:7   */\n    tag_12:\n        /* \"AuctionAnswers.sol\":749:775  address public beneficiary */\n      pop\n      tag_13\n      tag_14\n      jump\t// in\n    tag_13:\n      mload(0x40)\n      dup1\n      dup3\n      0xffffffffffffffffffffffffffffffffffffffff\n      and\n      0xffffffffffffffffffffffffffffffffffffffff\n      and\n      dup2\n      mstore\n      0x20\n      add\n      swap2\n      pop\n      pop\n      mload(0x40)\n      dup1\n      swap2\n      sub\n      swap1\n      return\n        /* \"AuctionAnswers.sol\":2263:4002  function bid(uint _itemId, uint _count) public payable {\r... */\n    tag_4:\n      tag_15\n      0x04\n      dup1\n      calldatasize\n      sub\n        /* \"--CODEGEN--\":13:15   */\n      0x40\n        /* \"--CODEGEN--\":8:11   */\n      dup2\n        /* \"--CODEGEN--\":5:16   */\n      lt\n        /* \"--CODEGEN--\":2:4   */\n      iszero\n      tag_16\n      jumpi\n        /* \"--CODEGEN--\":29:30   */\n      0x00\n        /* \"--CODEGEN--\":26:27   */\n      dup1\n        /* \"--CODEGEN--\":19:31   */\n      revert\n        /* \"--CODEGEN--\":2:4   */\n    tag_16:\n        /* \"AuctionAnswers.sol\":2263:4002  function bid(uint _itemId, uint _count) public payable {\r... */\n      dup2\n      add\n      swap1\n      dup1\n      dup1\n      calldataload\n      swap1\n      0x20\n      add\n      swap1\n      swap3\n      swap2\n      swap1\n      dup1\n      calldataload\n      swap1\n      0x20\n      add\n      swap1\n      swap3\n      swap2\n      swap1\n      pop\n      pop\n      pop\n      tag_17\n      jump\t// in\n    tag_15:\n      stop\n        /* \"AuctionAnswers.sol\":5632:5802  function getPersonDetails(uint id) public view returns(uint, uint, address){\r... */\n    tag_5:\n      callvalue\n        /* \"--CODEGEN--\":8:17   */\n      dup1\n        /* \"--CODEGEN--\":5:7   */\n      iszero\n      tag_18\n      jumpi\n        /* \"--CODEGEN--\":30:31   */\n      0x00\n        /* \"--CODEGEN--\":27:28   */\n      dup1\n        /* \"--CODEGEN--\":20:32   */\n      revert\n        /* \"--CODEGEN--\":5:7   */\n    tag_18:\n        /* \"AuctionAnswers.sol\":5632:5802  function getPersonDetails(uint id) public view returns(uint, uint, address){\r... */\n      pop\n      tag_19\n      0x04\n      dup1\n      calldatasize\n      sub\n        /* \"--CODEGEN--\":13:15   */\n      0x20\n        /* \"--CODEGEN--\":8:11   */\n      dup2\n        /* \"--CODEGEN--\":5:16   */\n      lt\n        /* \"--CODEGEN--\":2:4   */\n      iszero\n      tag_20\n      jumpi\n        /* \"--CODEGEN--\":29:30   */\n      0x00\n        /* \"--CODEGEN--\":26:27   */\n      dup1\n        /* \"--CODEGEN--\":19:31   */\n      revert\n        /* \"--CODEGEN--\":2:4   */\n    tag_20:\n        /* \"AuctionAnswers.sol\":5632:5802  function getPersonDetails(uint id) public view returns(uint, uint, address){\r... */\n      dup2\n      add\n      swap1\n      dup1\n      dup1\n      calldataload\n      swap1\n      0x20\n      add\n      swap1\n      swap3\n      swap2\n      swap1\n      pop\n      pop\n      pop\n      tag_21\n      jump\t// in\n    tag_19:\n      mload(0x40)\n      dup1\n      dup5\n      dup2\n      mstore\n      0x20\n      add\n      dup4\n      dup2\n      mstore\n      0x20\n      add\n      dup3\n      0xffffffffffffffffffffffffffffffffffffffff\n      and\n      0xffffffffffffffffffffffffffffffffffffffff\n      and\n      dup2\n      mstore\n      0x20\n      add\n      swap4\n      pop\n      pop\n      pop\n      pop\n      mload(0x40)\n      dup1\n      swap2\n      sub\n      swap1\n      return\n        /* \"AuctionAnswers.sol\":4405:5527  function revealWinners() public onlyOwner {\r... */\n    tag_6:\n      callvalue\n        /* \"--CODEGEN--\":8:17   */\n      dup1\n        /* \"--CODEGEN--\":5:7   */\n      iszero\n      tag_22\n      jumpi\n        /* \"--CODEGEN--\":30:31   */\n      0x00\n        /* \"--CODEGEN--\":27:28   */\n      dup1\n        /* \"--CODEGEN--\":20:32   */\n      revert\n        /* \"--CODEGEN--\":5:7   */\n    tag_22:\n        /* \"AuctionAnswers.sol\":4405:5527  function revealWinners() public onlyOwner {\r... */\n      pop\n      tag_23\n      tag_24\n      jump\t// in\n    tag_23:\n      stop\n        /* \"AuctionAnswers.sol\":687:712  address[3] public winners */\n    tag_7:\n      callvalue\n        /* \"--CODEGEN--\":8:17   */\n      dup1\n        /* \"--CODEGEN--\":5:7   */\n      iszero\n      tag_25\n      jumpi\n        /* \"--CODEGEN--\":30:31   */\n      0x00\n        /* \"--CODEGEN--\":27:28   */\n      dup1\n        /* \"--CODEGEN--\":20:32   */\n      revert\n        /* \"--CODEGEN--\":5:7   */\n    tag_25:\n        /* \"AuctionAnswers.sol\":687:712  address[3] public winners */\n      pop\n      tag_26\n      0x04\n      dup1\n      calldatasize\n      sub\n        /* \"--CODEGEN--\":13:15   */\n      0x20\n        /* \"--CODEGEN--\":8:11   */\n      dup2\n        /* \"--CODEGEN--\":5:16   */\n      lt\n        /* \"--CODEGEN--\":2:4   */\n      iszero\n      tag_27\n      jumpi\n        /* \"--CODEGEN--\":29:30   */\n      0x00\n        /* \"--CODEGEN--\":26:27   */\n      dup1\n        /* \"--CODEGEN--\":19:31   */\n      revert\n        /* \"--CODEGEN--\":2:4   */\n    tag_27:\n        /* \"AuctionAnswers.sol\":687:712  address[3] public winners */\n      dup2\n      add\n      swap1\n      dup1\n      dup1\n      calldataload\n      swap1\n      0x20\n      add\n      swap1\n      swap3\n      swap2\n      swap1\n      pop\n      pop\n      pop\n      tag_28\n      jump\t// in\n    tag_26:\n      mload(0x40)\n      dup1\n      dup3\n      0xffffffffffffffffffffffffffffffffffffffff\n      and\n      0xffffffffffffffffffffffffffffffffffffffff\n      and\n      dup2\n      mstore\n      0x20\n      add\n      swap2\n      pop\n      pop\n      mload(0x40)\n      dup1\n      swap2\n      sub\n      swap1\n      return\n        /* \"AuctionAnswers.sol\":626:647  Item [3] public items */\n    tag_8:\n      callvalue\n        /* \"--CODEGEN--\":8:17   */\n      dup1\n        /* \"--CODEGEN--\":5:7   */\n      iszero\n      tag_29\n      jumpi\n        /* \"--CODEGEN--\":30:31   */\n      0x00\n        /* \"--CODEGEN--\":27:28   */\n      dup1\n        /* \"--CODEGEN--\":20:32   */\n      revert\n        /* \"--CODEGEN--\":5:7   */\n    tag_29:\n        /* \"AuctionAnswers.sol\":626:647  Item [3] public items */\n      pop\n      tag_30\n      0x04\n      dup1\n      calldatasize\n      sub\n        /* \"--CODEGEN--\":13:15   */\n      0x20\n        /* \"--CODEGEN--\":8:11   */\n      dup2\n        /* \"--CODEGEN--\":5:16   */\n      lt\n        /* \"--CODEGEN--\":2:4   */\n      iszero\n      tag_31\n      jumpi\n        /* \"--CODEGEN--\":29:30   */\n      0x00\n        /* \"--CODEGEN--\":26:27   */\n      dup1\n        /* \"--CODEGEN--\":19:31   */\n      revert\n        /* \"--CODEGEN--\":2:4   */\n    tag_31:\n        /* \"AuctionAnswers.sol\":626:647  Item [3] public items */\n      dup2\n      add\n      swap1\n      dup1\n      dup1\n      calldataload\n      swap1\n      0x20\n      add\n      swap1\n      swap3\n      swap2\n      swap1\n      pop\n      pop\n      pop\n      tag_32\n      jump\t// in\n    tag_30:\n      mload(0x40)\n      dup1\n      dup3\n      dup2\n      mstore\n      0x20\n      add\n      swap2\n      pop\n      pop\n      mload(0x40)\n      dup1\n      swap2\n      sub\n      swap1\n      return\n        /* \"AuctionAnswers.sol\":1652:2251  function register() public payable{\r... */\n    tag_11:\n        /* \"AuctionAnswers.sol\":1749:1760  bidderCount */\n      sload(0x17)\n        /* \"AuctionAnswers.sol\":1717:1724  bidders */\n      0x01\n        /* \"AuctionAnswers.sol\":1725:1736  bidderCount */\n      sload(0x17)\n        /* \"AuctionAnswers.sol\":1717:1737  bidders[bidderCount] */\n      0x04\n      dup2\n      lt\n      tag_34\n      jumpi\n      invalid\n    tag_34:\n      0x03\n      mul\n      add\n        /* \"AuctionAnswers.sol\":1717:1746  bidders[bidderCount].personId */\n      0x01\n      add\n        /* \"AuctionAnswers.sol\":1717:1760  bidders[bidderCount].personId = bidderCount */\n      dup2\n      swap1\n      sstore\n      pop\n        /* \"AuctionAnswers.sol\":2041:2051  msg.sender */\n      caller\n        /* \"AuctionAnswers.sol\":2013:2020  bidders */\n      0x01\n        /* \"AuctionAnswers.sol\":2021:2032  bidderCount */\n      sload(0x17)\n        /* \"AuctionAnswers.sol\":2013:2033  bidders[bidderCount] */\n      0x04\n      dup2\n      lt\n      tag_36\n      jumpi\n      invalid\n    tag_36:\n      0x03\n      mul\n      add\n        /* \"AuctionAnswers.sol\":2013:2038  bidders[bidderCount].addr */\n      0x02\n      add\n      0x00\n        /* \"AuctionAnswers.sol\":2013:2051  bidders[bidderCount].addr = msg.sender */\n      0x0100\n      exp\n      dup2\n      sload\n      dup2\n      0xffffffffffffffffffffffffffffffffffffffff\n      mul\n      not\n      and\n      swap1\n      dup4\n      0xffffffffffffffffffffffffffffffffffffffff\n      and\n      mul\n      or\n      swap1\n      sstore\n      pop\n        /* \"AuctionAnswers.sol\":2143:2144  5 */\n      0x05\n        /* \"AuctionAnswers.sol\":2104:2111  bidders */\n      0x01\n        /* \"AuctionAnswers.sol\":2112:2123  bidderCount */\n      sload(0x17)\n        /* \"AuctionAnswers.sol\":2104:2124  bidders[bidderCount] */\n      0x04\n      dup2\n      lt\n      tag_38\n      jumpi\n      invalid\n    tag_38:\n      0x03\n      mul\n      add\n        /* \"AuctionAnswers.sol\":2104:2140  bidders[bidderCount].remainingTokens */\n      0x00\n      add\n        /* \"AuctionAnswers.sol\":2104:2144  bidders[bidderCount].remainingTokens = 5 */\n      dup2\n      swap1\n      sstore\n      pop\n        /* \"AuctionAnswers.sol\":2199:2206  bidders */\n      0x01\n        /* \"AuctionAnswers.sol\":2207:2218  bidderCount */\n      sload(0x17)\n        /* \"AuctionAnswers.sol\":2199:2219  bidders[bidderCount] */\n      0x04\n      dup2\n      lt\n      tag_40\n      jumpi\n      invalid\n    tag_40:\n      0x03\n      mul\n      add\n        /* \"AuctionAnswers.sol\":2172:2184  tokenDetails */\n      0x00\n        /* \"AuctionAnswers.sol\":2172:2196  tokenDetails[msg.sender] */\n      dup1\n        /* \"AuctionAnswers.sol\":2185:2195  msg.sender */\n      caller\n        /* \"AuctionAnswers.sol\":2172:2196  tokenDetails[msg.sender] */\n      0xffffffffffffffffffffffffffffffffffffffff\n      and\n      0xffffffffffffffffffffffffffffffffffffffff\n      and\n      dup2\n      mstore\n      0x20\n      add\n      swap1\n      dup2\n      mstore\n      0x20\n      add\n      0x00\n      keccak256\n        /* \"AuctionAnswers.sol\":2172:2219  tokenDetails[msg.sender] = bidders[bidderCount] */\n      0x00\n      dup3\n      add\n      sload\n      dup2\n      0x00\n      add\n      sstore\n      0x01\n      dup3\n      add\n      sload\n      dup2\n      0x01\n      add\n      sstore\n      0x02\n      dup3\n      add\n      0x00\n      swap1\n      sload\n      swap1\n      0x0100\n      exp\n      swap1\n      div\n      0xffffffffffffffffffffffffffffffffffffffff\n      and\n      dup2\n      0x02\n      add\n      exp(0x0100, 0x00)\n      dup2\n      sload\n      dup2\n      0xffffffffffffffffffffffffffffffffffffffff\n      mul\n      not\n      and\n      swap1\n      dup4\n      0xffffffffffffffffffffffffffffffffffffffff\n      and\n      mul\n      or\n      swap1\n      sstore\n      pop\n      swap1\n      pop\n      pop\n        /* \"AuctionAnswers.sol\":2230:2241  bidderCount */\n      0x17\n      0x00\n        /* \"AuctionAnswers.sol\":2230:2243  bidderCount++ */\n      dup2\n      sload\n      dup1\n      swap3\n      swap2\n      swap1\n      0x01\n      add\n      swap2\n      swap1\n      pop\n      sstore\n      pop\n        /* \"AuctionAnswers.sol\":1652:2251  function register() public payable{\r... */\n      jump\t// out\n        /* \"AuctionAnswers.sol\":749:775  address public beneficiary */\n    tag_14:\n      0x16\n      0x00\n      swap1\n      sload\n      swap1\n      0x0100\n      exp\n      swap1\n      div\n      0xffffffffffffffffffffffffffffffffffffffff\n      and\n      dup2\n      jump\t// out\n        /* \"AuctionAnswers.sol\":2263:4002  function bid(uint _itemId, uint _count) public payable {\r... */\n    tag_17:\n        /* \"AuctionAnswers.sol\":3145:3151  _count */\n      dup1\n        /* \"AuctionAnswers.sol\":3102:3114  tokenDetails */\n      0x00\n        /* \"AuctionAnswers.sol\":3102:3126  tokenDetails[msg.sender] */\n      dup1\n        /* \"AuctionAnswers.sol\":3115:3125  msg.sender */\n      caller\n        /* \"AuctionAnswers.sol\":3102:3126  tokenDetails[msg.sender] */\n      0xffffffffffffffffffffffffffffffffffffffff\n      and\n      0xffffffffffffffffffffffffffffffffffffffff\n      and\n      dup2\n      mstore\n      0x20\n      add\n      swap1\n      dup2\n      mstore\n      0x20\n      add\n      0x00\n      keccak256\n        /* \"AuctionAnswers.sol\":3102:3142  tokenDetails[msg.sender].remainingTokens */\n      0x00\n      add\n      sload\n        /* \"AuctionAnswers.sol\":3102:3151  tokenDetails[msg.sender].remainingTokens < _count */\n      lt\n        /* \"AuctionAnswers.sol\":3102:3166  tokenDetails[msg.sender].remainingTokens < _count || _itemId > 2 */\n      dup1\n      tag_43\n      jumpi\n      pop\n        /* \"AuctionAnswers.sol\":3165:3166  2 */\n      0x02\n        /* \"AuctionAnswers.sol\":3155:3162  _itemId */\n      dup3\n        /* \"AuctionAnswers.sol\":3155:3166  _itemId > 2 */\n      gt\n        /* \"AuctionAnswers.sol\":3102:3166  tokenDetails[msg.sender].remainingTokens < _count || _itemId > 2 */\n    tag_43:\n        /* \"AuctionAnswers.sol\":3098:3189  if (tokenDetails[msg.sender].remainingTokens < _count || _itemId > 2)\r... */\n      iszero\n      tag_44\n      jumpi\n        /* \"AuctionAnswers.sol\":3181:3189  revert() */\n      0x00\n      dup1\n      revert\n        /* \"AuctionAnswers.sol\":3098:3189  if (tokenDetails[msg.sender].remainingTokens < _count || _itemId > 2)\r... */\n    tag_44:\n        /* \"AuctionAnswers.sol\":3523:3535  uint balance */\n      0x00\n        /* \"AuctionAnswers.sol\":3581:3587  _count */\n      dup2\n        /* \"AuctionAnswers.sol\":3538:3550  tokenDetails */\n      0x00\n        /* \"AuctionAnswers.sol\":3538:3562  tokenDetails[msg.sender] */\n      dup1\n        /* \"AuctionAnswers.sol\":3551:3561  msg.sender */\n      caller\n        /* \"AuctionAnswers.sol\":3538:3562  tokenDetails[msg.sender] */\n      0xffffffffffffffffffffffffffffffffffffffff\n      and\n      0xffffffffffffffffffffffffffffffffffffffff\n      and\n      dup2\n      mstore\n      0x20\n      add\n      swap1\n      dup2\n      mstore\n      0x20\n      add\n      0x00\n      keccak256\n        /* \"AuctionAnswers.sol\":3538:3578  tokenDetails[msg.sender].remainingTokens */\n      0x00\n      add\n      sload\n        /* \"AuctionAnswers.sol\":3538:3587  tokenDetails[msg.sender].remainingTokens - _count */\n      sub\n        /* \"AuctionAnswers.sol\":3523:3587  uint balance = tokenDetails[msg.sender].remainingTokens - _count */\n      swap1\n      pop\n        /* \"AuctionAnswers.sol\":3675:3682  balance */\n      dup1\n        /* \"AuctionAnswers.sol\":3632:3644  tokenDetails */\n      0x00\n        /* \"AuctionAnswers.sol\":3632:3656  tokenDetails[msg.sender] */\n      dup1\n        /* \"AuctionAnswers.sol\":3645:3655  msg.sender */\n      caller\n        /* \"AuctionAnswers.sol\":3632:3656  tokenDetails[msg.sender] */\n      0xffffffffffffffffffffffffffffffffffffffff\n      and\n      0xffffffffffffffffffffffffffffffffffffffff\n      and\n      dup2\n      mstore\n      0x20\n      add\n      swap1\n      dup2\n      mstore\n      0x20\n      add\n      0x00\n      keccak256\n        /* \"AuctionAnswers.sol\":3632:3672  tokenDetails[msg.sender].remainingTokens */\n      0x00\n      add\n        /* \"AuctionAnswers.sol\":3632:3682  tokenDetails[msg.sender].remainingTokens = balance */\n      dup2\n      swap1\n      sstore\n      pop\n        /* \"AuctionAnswers.sol\":3754:3761  balance */\n      dup1\n        /* \"AuctionAnswers.sol\":3693:3700  bidders */\n      0x01\n        /* \"AuctionAnswers.sol\":3701:3713  tokenDetails */\n      0x00\n        /* \"AuctionAnswers.sol\":3701:3725  tokenDetails[msg.sender] */\n      dup1\n        /* \"AuctionAnswers.sol\":3714:3724  msg.sender */\n      caller\n        /* \"AuctionAnswers.sol\":3701:3725  tokenDetails[msg.sender] */\n      0xffffffffffffffffffffffffffffffffffffffff\n      and\n      0xffffffffffffffffffffffffffffffffffffffff\n      and\n      dup2\n      mstore\n      0x20\n      add\n      swap1\n      dup2\n      mstore\n      0x20\n      add\n      0x00\n      keccak256\n        /* \"AuctionAnswers.sol\":3701:3734  tokenDetails[msg.sender].personId */\n      0x01\n      add\n      sload\n        /* \"AuctionAnswers.sol\":3693:3735  bidders[tokenDetails[msg.sender].personId] */\n      0x04\n      dup2\n      lt\n      tag_45\n      jumpi\n      invalid\n    tag_45:\n      0x03\n      mul\n      add\n        /* \"AuctionAnswers.sol\":3693:3751  bidders[tokenDetails[msg.sender].personId].remainingTokens */\n      0x00\n      add\n        /* \"AuctionAnswers.sol\":3693:3761  bidders[tokenDetails[msg.sender].personId].remainingTokens = balance */\n      dup2\n      swap1\n      sstore\n      pop\n        /* \"AuctionAnswers.sol\":3825:3845  Item storage bidItem */\n      0x00\n        /* \"AuctionAnswers.sol\":3848:3853  items */\n      0x0d\n        /* \"AuctionAnswers.sol\":3854:3861  _itemId */\n      dup5\n        /* \"AuctionAnswers.sol\":3848:3862  items[_itemId] */\n      0x03\n      dup2\n      lt\n      tag_47\n      jumpi\n      invalid\n    tag_47:\n      0x02\n      mul\n      add\n        /* \"AuctionAnswers.sol\":3825:3862  Item storage bidItem = items[_itemId] */\n      swap1\n      pop\n        /* \"AuctionAnswers.sol\":3877:3883  uint i */\n      0x00\n        /* \"AuctionAnswers.sol\":3886:3887  0 */\n      dup1\n        /* \"AuctionAnswers.sol\":3877:3887  uint i = 0 */\n      swap1\n      pop\n        /* \"AuctionAnswers.sol\":3873:3995  for(uint i = 0; i < _count; i++) {\r... */\n    tag_49:\n        /* \"AuctionAnswers.sol\":3893:3899  _count */\n      dup4\n        /* \"AuctionAnswers.sol\":3889:3890  i */\n      dup2\n        /* \"AuctionAnswers.sol\":3889:3899  i < _count */\n      lt\n        /* \"AuctionAnswers.sol\":3873:3995  for(uint i = 0; i < _count; i++) {\r... */\n      iszero\n      tag_50\n      jumpi\n        /* \"AuctionAnswers.sol\":3921:3928  bidItem */\n      dup2\n        /* \"AuctionAnswers.sol\":3921:3939  bidItem.itemTokens */\n      0x01\n      add\n        /* \"AuctionAnswers.sol\":3945:3957  tokenDetails */\n      0x00\n        /* \"AuctionAnswers.sol\":3945:3969  tokenDetails[msg.sender] */\n      dup1\n        /* \"AuctionAnswers.sol\":3958:3968  msg.sender */\n      caller\n        /* \"AuctionAnswers.sol\":3945:3969  tokenDetails[msg.sender] */\n      0xffffffffffffffffffffffffffffffffffffffff\n      and\n      0xffffffffffffffffffffffffffffffffffffffff\n      and\n      dup2\n      mstore\n      0x20\n      add\n      swap1\n      dup2\n      mstore\n      0x20\n      add\n      0x00\n      keccak256\n        /* \"AuctionAnswers.sol\":3945:3978  tokenDetails[msg.sender].personId */\n      0x01\n      add\n      sload\n        /* \"AuctionAnswers.sol\":3921:3979  bidItem.itemTokens.push(tokenDetails[msg.sender].personId) */\n      swap1\n      dup1\n        /* \"--CODEGEN--\":39:40   */\n      0x01\n        /* \"--CODEGEN--\":33:36   */\n      dup2\n        /* \"--CODEGEN--\":27:37   */\n      sload\n        /* \"--CODEGEN--\":23:41   */\n      add\n        /* \"--CODEGEN--\":57:67   */\n      dup1\n        /* \"--CODEGEN--\":52:55   */\n      dup3\n        /* \"--CODEGEN--\":45:68   */\n      sstore\n        /* \"--CODEGEN--\":79:89   */\n      dup1\n        /* \"--CODEGEN--\":72:89   */\n      swap2\n      pop\n        /* \"--CODEGEN--\":0:93   */\n      pop\n        /* \"AuctionAnswers.sol\":3921:3979  bidItem.itemTokens.push(tokenDetails[msg.sender].personId) */\n      swap1\n      0x01\n      dup3\n      sub\n      swap1\n      0x00\n      mstore\n      keccak256(0x00, 0x20)\n      add\n      0x00\n      swap1\n      swap2\n      swap3\n      swap1\n      swap2\n      swap1\n      swap2\n      pop\n      sstore\n      pop\n        /* \"AuctionAnswers.sol\":3901:3904  i++ */\n      dup1\n      dup1\n      0x01\n      add\n      swap2\n      pop\n      pop\n        /* \"AuctionAnswers.sol\":3873:3995  for(uint i = 0; i < _count; i++) {\r... */\n      jump(tag_49)\n    tag_50:\n      pop\n        /* \"AuctionAnswers.sol\":2263:4002  function bid(uint _itemId, uint _count) public payable {\r... */\n      pop\n      pop\n      pop\n      pop\n      jump\t// out\n        /* \"AuctionAnswers.sol\":5632:5802  function getPersonDetails(uint id) public view returns(uint, uint, address){\r... */\n    tag_21:\n        /* \"AuctionAnswers.sol\":5687:5691  uint */\n      0x00\n        /* \"AuctionAnswers.sol\":5693:5697  uint */\n      dup1\n        /* \"AuctionAnswers.sol\":5699:5706  address */\n      0x00\n        /* \"AuctionAnswers.sol\":5726:5733  bidders */\n      0x01\n        /* \"AuctionAnswers.sol\":5734:5736  id */\n      dup5\n        /* \"AuctionAnswers.sol\":5726:5737  bidders[id] */\n      0x04\n      dup2\n      lt\n      tag_54\n      jumpi\n      invalid\n    tag_54:\n      0x03\n      mul\n      add\n        /* \"AuctionAnswers.sol\":5726:5753  bidders[id].remainingTokens */\n      0x00\n      add\n      sload\n        /* \"AuctionAnswers.sol\":5755:5762  bidders */\n      0x01\n        /* \"AuctionAnswers.sol\":5763:5765  id */\n      dup6\n        /* \"AuctionAnswers.sol\":5755:5766  bidders[id] */\n      0x04\n      dup2\n      lt\n      tag_56\n      jumpi\n      invalid\n    tag_56:\n      0x03\n      mul\n      add\n        /* \"AuctionAnswers.sol\":5755:5775  bidders[id].personId */\n      0x01\n      add\n      sload\n        /* \"AuctionAnswers.sol\":5777:5784  bidders */\n      0x01\n        /* \"AuctionAnswers.sol\":5785:5787  id */\n      dup7\n        /* \"AuctionAnswers.sol\":5777:5788  bidders[id] */\n      0x04\n      dup2\n      lt\n      tag_58\n      jumpi\n      invalid\n    tag_58:\n      0x03\n      mul\n      add\n        /* \"AuctionAnswers.sol\":5777:5793  bidders[id].addr */\n      0x02\n      add\n      0x00\n      swap1\n      sload\n      swap1\n      0x0100\n      exp\n      swap1\n      div\n      0xffffffffffffffffffffffffffffffffffffffff\n      and\n        /* \"AuctionAnswers.sol\":5718:5794  return (bidders[id].remainingTokens, bidders[id].personId, bidders[id].addr) */\n      swap3\n      pop\n      swap3\n      pop\n      swap3\n      pop\n        /* \"AuctionAnswers.sol\":5632:5802  function getPersonDetails(uint id) public view returns(uint, uint, address){\r... */\n      swap2\n      swap4\n      swap1\n      swap3\n      pop\n      jump\t// out\n        /* \"AuctionAnswers.sol\":4405:5527  function revealWinners() public onlyOwner {\r... */\n    tag_24:\n        /* \"AuctionAnswers.sol\":4323:4334  beneficiary */\n      0x16\n      0x00\n      swap1\n      sload\n      swap1\n      0x0100\n      exp\n      swap1\n      div\n      0xffffffffffffffffffffffffffffffffffffffff\n      and\n        /* \"AuctionAnswers.sol\":4309:4334  msg.sender == beneficiary */\n      0xffffffffffffffffffffffffffffffffffffffff\n      and\n        /* \"AuctionAnswers.sol\":4309:4319  msg.sender */\n      caller\n        /* \"AuctionAnswers.sol\":4309:4334  msg.sender == beneficiary */\n      0xffffffffffffffffffffffffffffffffffffffff\n      and\n      eq\n        /* \"AuctionAnswers.sol\":4301:4335  require(msg.sender == beneficiary) */\n      tag_61\n      jumpi\n      0x00\n      dup1\n      revert\n    tag_61:\n        /* \"AuctionAnswers.sol\":4644:4651  uint id */\n      0x00\n        /* \"AuctionAnswers.sol\":4654:4655  0 */\n      dup1\n        /* \"AuctionAnswers.sol\":4644:4655  uint id = 0 */\n      swap1\n      pop\n        /* \"AuctionAnswers.sol\":4639:5520  for (uint id = 0; id < 3; id++) {\r... */\n    tag_63:\n        /* \"AuctionAnswers.sol\":4662:4663  3 */\n      0x03\n        /* \"AuctionAnswers.sol\":4657:4659  id */\n      dup2\n        /* \"AuctionAnswers.sol\":4657:4663  id < 3 */\n      lt\n        /* \"AuctionAnswers.sol\":4639:5520  for (uint id = 0; id < 3; id++) {\r... */\n      iszero\n      tag_64\n      jumpi\n        /* \"AuctionAnswers.sol\":4686:4710  Item storage currentItem */\n      0x00\n        /* \"AuctionAnswers.sol\":4713:4718  items */\n      0x0d\n        /* \"AuctionAnswers.sol\":4719:4721  id */\n      dup3\n        /* \"AuctionAnswers.sol\":4713:4722  items[id] */\n      0x03\n      dup2\n      lt\n      tag_66\n      jumpi\n      invalid\n    tag_66:\n      0x02\n      mul\n      add\n        /* \"AuctionAnswers.sol\":4686:4722  Item storage currentItem = items[id] */\n      swap1\n      pop\n        /* \"AuctionAnswers.sol\":4774:4775  0 */\n      0x00\n        /* \"AuctionAnswers.sol\":4741:4752  currentItem */\n      dup2\n        /* \"AuctionAnswers.sol\":4741:4763  currentItem.itemTokens */\n      0x01\n      add\n        /* \"AuctionAnswers.sol\":4741:4770  currentItem.itemTokens.length */\n      dup1\n      sload\n      swap1\n      pop\n        /* \"AuctionAnswers.sol\":4741:4775  currentItem.itemTokens.length != 0 */\n      eq\n        /* \"AuctionAnswers.sol\":4737:5509  if (currentItem.itemTokens.length != 0) {\r... */\n      tag_68\n      jumpi\n        /* \"AuctionAnswers.sol\":4844:4860  uint randomIndex */\n      0x00\n        /* \"AuctionAnswers.sol\":4912:4923  currentItem */\n      dup2\n        /* \"AuctionAnswers.sol\":4912:4934  currentItem.itemTokens */\n      0x01\n      add\n        /* \"AuctionAnswers.sol\":4912:4941  currentItem.itemTokens.length */\n      dup1\n      sload\n      swap1\n      pop\n        /* \"AuctionAnswers.sol\":4879:4890  currentItem */\n      dup3\n        /* \"AuctionAnswers.sol\":4879:4901  currentItem.itemTokens */\n      0x01\n      add\n        /* \"AuctionAnswers.sol\":4879:4908  currentItem.itemTokens.length */\n      dup1\n      sload\n      swap1\n      pop\n        /* \"AuctionAnswers.sol\":4864:4876  block.number */\n      number\n        /* \"AuctionAnswers.sol\":4864:4908  block.number / currentItem.itemTokens.length */\n      dup2\n      tag_69\n      jumpi\n      invalid\n    tag_69:\n      div\n        /* \"AuctionAnswers.sol\":4863:4941  (block.number / currentItem.itemTokens.length) % currentItem.itemTokens.length */\n      dup2\n      tag_70\n      jumpi\n      invalid\n    tag_70:\n      mod\n        /* \"AuctionAnswers.sol\":4844:4941  uint randomIndex = (block.number / currentItem.itemTokens.length) % currentItem.itemTokens.length */\n      swap1\n      pop\n        /* \"AuctionAnswers.sol\":5002:5015  uint winnerId */\n      0x00\n        /* \"AuctionAnswers.sol\":5018:5029  currentItem */\n      dup3\n        /* \"AuctionAnswers.sol\":5018:5040  currentItem.itemTokens */\n      0x01\n      add\n        /* \"AuctionAnswers.sol\":5041:5052  randomIndex */\n      dup3\n        /* \"AuctionAnswers.sol\":5018:5053  currentItem.itemTokens[randomIndex] */\n      dup2\n      sload\n      dup2\n      lt\n      tag_71\n      jumpi\n      invalid\n    tag_71:\n      swap1\n      0x00\n      mstore\n      keccak256(0x00, 0x20)\n      add\n      sload\n        /* \"AuctionAnswers.sol\":5002:5053  uint winnerId = currentItem.itemTokens[randomIndex] */\n      swap1\n      pop\n        /* \"AuctionAnswers.sol\":5398:5405  bidders */\n      0x01\n        /* \"AuctionAnswers.sol\":5406:5414  winnerId */\n      dup2\n        /* \"AuctionAnswers.sol\":5398:5415  bidders[winnerId] */\n      0x04\n      dup2\n      lt\n      tag_73\n      jumpi\n      invalid\n    tag_73:\n      0x03\n      mul\n      add\n        /* \"AuctionAnswers.sol\":5398:5420  bidders[winnerId].addr */\n      0x02\n      add\n      0x00\n      swap1\n      sload\n      swap1\n      0x0100\n      exp\n      swap1\n      div\n      0xffffffffffffffffffffffffffffffffffffffff\n      and\n        /* \"AuctionAnswers.sol\":5384:5391  winners */\n      0x13\n        /* \"AuctionAnswers.sol\":5392:5394  id */\n      dup6\n        /* \"AuctionAnswers.sol\":5384:5395  winners[id] */\n      0x03\n      dup2\n      lt\n      tag_75\n      jumpi\n      invalid\n    tag_75:\n      add\n      0x00\n        /* \"AuctionAnswers.sol\":5384:5420  winners[id] = bidders[winnerId].addr */\n      0x0100\n      exp\n      dup2\n      sload\n      dup2\n      0xffffffffffffffffffffffffffffffffffffffff\n      mul\n      not\n      and\n      swap1\n      dup4\n      0xffffffffffffffffffffffffffffffffffffffff\n      and\n      mul\n      or\n      swap1\n      sstore\n      pop\n        /* \"AuctionAnswers.sol\":4737:5509  if (currentItem.itemTokens.length != 0) {\r... */\n      pop\n      pop\n    tag_68:\n        /* \"AuctionAnswers.sol\":4639:5520  for (uint id = 0; id < 3; id++) {\r... */\n      pop\n        /* \"AuctionAnswers.sol\":4665:4669  id++ */\n      dup1\n      dup1\n      0x01\n      add\n      swap2\n      pop\n      pop\n        /* \"AuctionAnswers.sol\":4639:5520  for (uint id = 0; id < 3; id++) {\r... */\n      jump(tag_63)\n    tag_64:\n      pop\n        /* \"AuctionAnswers.sol\":4405:5527  function revealWinners() public onlyOwner {\r... */\n      jump\t// out\n        /* \"AuctionAnswers.sol\":687:712  address[3] public winners */\n    tag_28:\n      0x13\n      dup2\n      0x03\n      dup2\n      lt\n      tag_77\n      jumpi\n      invalid\n    tag_77:\n      add\n      0x00\n      swap2\n      pop\n      sload\n      swap1\n      0x0100\n      exp\n      swap1\n      div\n      0xffffffffffffffffffffffffffffffffffffffff\n      and\n      dup2\n      jump\t// out\n        /* \"AuctionAnswers.sol\":626:647  Item [3] public items */\n    tag_32:\n      0x0d\n      dup2\n      0x03\n      dup2\n      lt\n      tag_79\n      jumpi\n      invalid\n    tag_79:\n      0x02\n      mul\n      add\n      0x00\n      swap2\n      pop\n      swap1\n      pop\n      dup1\n      0x00\n      add\n      sload\n      swap1\n      pop\n      dup2\n      jump\t// out\n\n    auxdata: 0xa265627a7a72315820aea4998eb042b0b8756d3b617c62e80e0daf08fe81cd936a1a9b3cc6bc491b8464736f6c63430005110032\n}\n",
				"bytecode": {
					"linkReferences": {},
					"object": "6080604052600060175533601660006101000a81548173ffffffffffffffffffffffffffffffffffffffff021916908373ffffffffffffffffffffffffffffffffffffffff160217905550606060405180604001604052806000815260200182815250600d60006003811061007057fe5b6002020160008201518160000155602082015181600101908051906020019061009a929190610148565b5090505060405180604001604052806001815260200182815250600d6001600381106100c257fe5b600202016000820151816000015560208201518160010190805190602001906100ec929190610148565b5090505060405180604001604052806002815260200182815250600d60026003811061011457fe5b6002020160008201518160000155602082015181600101908051906020019061013e929190610148565b50905050506101ba565b828054828255906000526020600020908101928215610184579160200282015b82811115610183578251825591602001919060010190610168565b5b5090506101919190610195565b5090565b6101b791905b808211156101b357600081600090555060010161019b565b5090565b90565b610855806101c96000396000f3fe6080604052600436106100705760003560e01c8063609817051161004e578063609817051461010e578063952587d614610197578063a2fb1175146101ae578063bfb231d21461022957610070565b80631aa3a0081461007557806338af3eed1461007f578063598647f8146100d6575b600080fd5b61007d610278565b005b34801561008b57600080fd5b506100946103e9565b604051808273ffffffffffffffffffffffffffffffffffffffff1673ffffffffffffffffffffffffffffffffffffffff16815260200191505060405180910390f35b61010c600480360360408110156100ec57600080fd5b81019080803590602001909291908035906020019092919050505061040f565b005b34801561011a57600080fd5b506101476004803603602081101561013157600080fd5b81019080803590602001909291905050506105f6565b604051808481526020018381526020018273ffffffffffffffffffffffffffffffffffffffff1673ffffffffffffffffffffffffffffffffffffffff168152602001935050505060405180910390f35b3480156101a357600080fd5b506101ac610667565b005b3480156101ba57600080fd5b506101e7600480360360208110156101d157600080fd5b81019080803590602001909291905050506107cc565b604051808273ffffffffffffffffffffffffffffffffffffffff1673ffffffffffffffffffffffffffffffffffffffff16815260200191505060405180910390f35b34801561023557600080fd5b506102626004803603602081101561024c57600080fd5b81019080803590602001909291905050506107ff565b6040518082815260200191505060405180910390f35b60175460016017546004811061028a57fe5b6003020160010181905550336001601754600481106102a557fe5b6003020160020160006101000a81548173ffffffffffffffffffffffffffffffffffffffff021916908373ffffffffffffffffffffffffffffffffffffffff16021790555060056001601754600481106102fb57fe5b600302016000018190555060016017546004811061031557fe5b600302016000803373ffffffffffffffffffffffffffffffffffffffff1673ffffffffffffffffffffffffffffffffffffffff16815260200190815260200160002060008201548160000155600182015481600101556002820160009054906101000a900473ffffffffffffffffffffffffffffffffffffffff168160020160006101000a81548173ffffffffffffffffffffffffffffffffffffffff021916908373ffffffffffffffffffffffffffffffffffffffff160217905550905050601760008154809291906001019190505550565b601660009054906101000a900473ffffffffffffffffffffffffffffffffffffffff1681565b806000803373ffffffffffffffffffffffffffffffffffffffff1673ffffffffffffffffffffffffffffffffffffffff16815260200190815260200160002060000154108061045e5750600282115b1561046857600080fd5b6000816000803373ffffffffffffffffffffffffffffffffffffffff1673ffffffffffffffffffffffffffffffffffffffff16815260200190815260200160002060000154039050806000803373ffffffffffffffffffffffffffffffffffffffff1673ffffffffffffffffffffffffffffffffffffffff168152602001908152602001600020600001819055508060016000803373ffffffffffffffffffffffffffffffffffffffff1673ffffffffffffffffffffffffffffffffffffffff168152602001908152602001600020600101546004811061054557fe5b60030201600001819055506000600d846003811061055f57fe5b60020201905060008090505b838110156105ef57816001016000803373ffffffffffffffffffffffffffffffffffffffff1673ffffffffffffffffffffffffffffffffffffffff168152602001908152602001600020600101549080600181540180825580915050906001820390600052602060002001600090919290919091505550808060010191505061056b565b5050505050565b60008060006001846004811061060857fe5b60030201600001546001856004811061061d57fe5b60030201600101546001866004811061063257fe5b6003020160020160009054906101000a900473ffffffffffffffffffffffffffffffffffffffff169250925092509193909250565b601660009054906101000a900473ffffffffffffffffffffffffffffffffffffffff1673ffffffffffffffffffffffffffffffffffffffff163373ffffffffffffffffffffffffffffffffffffffff16146106c157600080fd5b60008090505b60038110156107c9576000600d82600381106106df57fe5b60020201905060008160010180549050146107bb57600081600101805490508260010180549050438161070e57fe5b048161071657fe5b069050600082600101828154811061072a57fe5b906000526020600020015490506001816004811061074457fe5b6003020160020160009054906101000a900473ffffffffffffffffffffffffffffffffffffffff166013856003811061077957fe5b0160006101000a81548173ffffffffffffffffffffffffffffffffffffffff021916908373ffffffffffffffffffffffffffffffffffffffff16021790555050505b5080806001019150506106c7565b50565b601381600381106107d957fe5b016000915054906101000a900473ffffffffffffffffffffffffffffffffffffffff1681565b600d816003811061080c57fe5b60020201600091509050806000015490508156fea265627a7a72315820aea4998eb042b0b8756d3b617c62e80e0daf08fe81cd936a1a9b3cc6bc491b8464736f6c63430005110032",
					"opcodes": "PUSH1 0x80 PUSH1 0x40 MSTORE PUSH1 0x0 PUSH1 0x17 SSTORE CALLER PUSH1 0x16 PUSH1 0x0 PUSH2 0x100 EXP DUP2 SLOAD DUP2 PUSH20 0xFFFFFFFFFFFFFFFFFFFFFFFFFFFFFFFFFFFFFFFF MUL NOT AND SWAP1 DUP4 PUSH20 0xFFFFFFFFFFFFFFFFFFFFFFFFFFFFFFFFFFFFFFFF AND MUL OR SWAP1 SSTORE POP PUSH1 0x60 PUSH1 0x40 MLOAD DUP1 PUSH1 0x40 ADD PUSH1 0x40 MSTORE DUP1 PUSH1 0x0 DUP2 MSTORE PUSH1 0x20 ADD DUP3 DUP2 MSTORE POP PUSH1 0xD PUSH1 0x0 PUSH1 0x3 DUP2 LT PUSH2 0x70 JUMPI INVALID JUMPDEST PUSH1 0x2 MUL ADD PUSH1 0x0 DUP3 ADD MLOAD DUP2 PUSH1 0x0 ADD SSTORE PUSH1 0x20 DUP3 ADD MLOAD DUP2 PUSH1 0x1 ADD SWAP1 DUP1 MLOAD SWAP1 PUSH1 0x20 ADD SWAP1 PUSH2 0x9A SWAP3 SWAP2 SWAP1 PUSH2 0x148 JUMP JUMPDEST POP SWAP1 POP POP PUSH1 0x40 MLOAD DUP1 PUSH1 0x40 ADD PUSH1 0x40 MSTORE DUP1 PUSH1 0x1 DUP2 MSTORE PUSH1 0x20 ADD DUP3 DUP2 MSTORE POP PUSH1 0xD PUSH1 0x1 PUSH1 0x3 DUP2 LT PUSH2 0xC2 JUMPI INVALID JUMPDEST PUSH1 0x2 MUL ADD PUSH1 0x0 DUP3 ADD MLOAD DUP2 PUSH1 0x0 ADD SSTORE PUSH1 0x20 DUP3 ADD MLOAD DUP2 PUSH1 0x1 ADD SWAP1 DUP1 MLOAD SWAP1 PUSH1 0x20 ADD SWAP1 PUSH2 0xEC SWAP3 SWAP2 SWAP1 PUSH2 0x148 JUMP JUMPDEST POP SWAP1 POP POP PUSH1 0x40 MLOAD DUP1 PUSH1 0x40 ADD PUSH1 0x40 MSTORE DUP1 PUSH1 0x2 DUP2 MSTORE PUSH1 0x20 ADD DUP3 DUP2 MSTORE POP PUSH1 0xD PUSH1 0x2 PUSH1 0x3 DUP2 LT PUSH2 0x114 JUMPI INVALID JUMPDEST PUSH1 0x2 MUL ADD PUSH1 0x0 DUP3 ADD MLOAD DUP2 PUSH1 0x0 ADD SSTORE PUSH1 0x20 DUP3 ADD MLOAD DUP2 PUSH1 0x1 ADD SWAP1 DUP1 MLOAD SWAP1 PUSH1 0x20 ADD SWAP1 PUSH2 0x13E SWAP3 SWAP2 SWAP1 PUSH2 0x148 JUMP JUMPDEST POP SWAP1 POP POP POP PUSH2 0x1BA JUMP JUMPDEST DUP3 DUP1 SLOAD DUP3 DUP3 SSTORE SWAP1 PUSH1 0x0 MSTORE PUSH1 0x20 PUSH1 0x0 KECCAK256 SWAP1 DUP2 ADD SWAP3 DUP3 ISZERO PUSH2 0x184 JUMPI SWAP2 PUSH1 0x20 MUL DUP3 ADD JUMPDEST DUP3 DUP2 GT ISZERO PUSH2 0x183 JUMPI DUP3 MLOAD DUP3 SSTORE SWAP2 PUSH1 0x20 ADD SWAP2 SWAP1 PUSH1 0x1 ADD SWAP1 PUSH2 0x168 JUMP JUMPDEST JUMPDEST POP SWAP1 POP PUSH2 0x191 SWAP2 SWAP1 PUSH2 0x195 JUMP JUMPDEST POP SWAP1 JUMP JUMPDEST PUSH2 0x1B7 SWAP2 SWAP1 JUMPDEST DUP1 DUP3 GT ISZERO PUSH2 0x1B3 JUMPI PUSH1 0x0 DUP2 PUSH1 0x0 SWAP1 SSTORE POP PUSH1 0x1 ADD PUSH2 0x19B JUMP JUMPDEST POP SWAP1 JUMP JUMPDEST SWAP1 JUMP JUMPDEST PUSH2 0x855 DUP1 PUSH2 0x1C9 PUSH1 0x0 CODECOPY PUSH1 0x0 RETURN INVALID PUSH1 0x80 PUSH1 0x40 MSTORE PUSH1 0x4 CALLDATASIZE LT PUSH2 0x70 JUMPI PUSH1 0x0 CALLDATALOAD PUSH1 0xE0 SHR DUP1 PUSH4 0x60981705 GT PUSH2 0x4E JUMPI DUP1 PUSH4 0x60981705 EQ PUSH2 0x10E JUMPI DUP1 PUSH4 0x952587D6 EQ PUSH2 0x197 JUMPI DUP1 PUSH4 0xA2FB1175 EQ PUSH2 0x1AE JUMPI DUP1 PUSH4 0xBFB231D2 EQ PUSH2 0x229 JUMPI PUSH2 0x70 JUMP JUMPDEST DUP1 PUSH4 0x1AA3A008 EQ PUSH2 0x75 JUMPI DUP1 PUSH4 0x38AF3EED EQ PUSH2 0x7F JUMPI DUP1 PUSH4 0x598647F8 EQ PUSH2 0xD6 JUMPI JUMPDEST PUSH1 0x0 DUP1 REVERT JUMPDEST PUSH2 0x7D PUSH2 0x278 JUMP JUMPDEST STOP JUMPDEST CALLVALUE DUP1 ISZERO PUSH2 0x8B JUMPI PUSH1 0x0 DUP1 REVERT JUMPDEST POP PUSH2 0x94 PUSH2 0x3E9 JUMP JUMPDEST PUSH1 0x40 MLOAD DUP1 DUP3 PUSH20 0xFFFFFFFFFFFFFFFFFFFFFFFFFFFFFFFFFFFFFFFF AND PUSH20 0xFFFFFFFFFFFFFFFFFFFFFFFFFFFFFFFFFFFFFFFF AND DUP2 MSTORE PUSH1 0x20 ADD SWAP2 POP POP PUSH1 0x40 MLOAD DUP1 SWAP2 SUB SWAP1 RETURN JUMPDEST PUSH2 0x10C PUSH1 0x4 DUP1 CALLDATASIZE SUB PUSH1 0x40 DUP2 LT ISZERO PUSH2 0xEC JUMPI PUSH1 0x0 DUP1 REVERT JUMPDEST DUP2 ADD SWAP1 DUP1 DUP1 CALLDATALOAD SWAP1 PUSH1 0x20 ADD SWAP1 SWAP3 SWAP2 SWAP1 DUP1 CALLDATALOAD SWAP1 PUSH1 0x20 ADD SWAP1 SWAP3 SWAP2 SWAP1 POP POP POP PUSH2 0x40F JUMP JUMPDEST STOP JUMPDEST CALLVALUE DUP1 ISZERO PUSH2 0x11A JUMPI PUSH1 0x0 DUP1 REVERT JUMPDEST POP PUSH2 0x147 PUSH1 0x4 DUP1 CALLDATASIZE SUB PUSH1 0x20 DUP2 LT ISZERO PUSH2 0x131 JUMPI PUSH1 0x0 DUP1 REVERT JUMPDEST DUP2 ADD SWAP1 DUP1 DUP1 CALLDATALOAD SWAP1 PUSH1 0x20 ADD SWAP1 SWAP3 SWAP2 SWAP1 POP POP POP PUSH2 0x5F6 JUMP JUMPDEST PUSH1 0x40 MLOAD DUP1 DUP5 DUP2 MSTORE PUSH1 0x20 ADD DUP4 DUP2 MSTORE PUSH1 0x20 ADD DUP3 PUSH20 0xFFFFFFFFFFFFFFFFFFFFFFFFFFFFFFFFFFFFFFFF AND PUSH20 0xFFFFFFFFFFFFFFFFFFFFFFFFFFFFFFFFFFFFFFFF AND DUP2 MSTORE PUSH1 0x20 ADD SWAP4 POP POP POP POP PUSH1 0x40 MLOAD DUP1 SWAP2 SUB SWAP1 RETURN JUMPDEST CALLVALUE DUP1 ISZERO PUSH2 0x1A3 JUMPI PUSH1 0x0 DUP1 REVERT JUMPDEST POP PUSH2 0x1AC PUSH2 0x667 JUMP JUMPDEST STOP JUMPDEST CALLVALUE DUP1 ISZERO PUSH2 0x1BA JUMPI PUSH1 0x0 DUP1 REVERT JUMPDEST POP PUSH2 0x1E7 PUSH1 0x4 DUP1 CALLDATASIZE SUB PUSH1 0x20 DUP2 LT ISZERO PUSH2 0x1D1 JUMPI PUSH1 0x0 DUP1 REVERT JUMPDEST DUP2 ADD SWAP1 DUP1 DUP1 CALLDATALOAD SWAP1 PUSH1 0x20 ADD SWAP1 SWAP3 SWAP2 SWAP1 POP POP POP PUSH2 0x7CC JUMP JUMPDEST PUSH1 0x40 MLOAD DUP1 DUP3 PUSH20 0xFFFFFFFFFFFFFFFFFFFFFFFFFFFFFFFFFFFFFFFF AND PUSH20 0xFFFFFFFFFFFFFFFFFFFFFFFFFFFFFFFFFFFFFFFF AND DUP2 MSTORE PUSH1 0x20 ADD SWAP2 POP POP PUSH1 0x40 MLOAD DUP1 SWAP2 SUB SWAP1 RETURN JUMPDEST CALLVALUE DUP1 ISZERO PUSH2 0x235 JUMPI PUSH1 0x0 DUP1 REVERT JUMPDEST POP PUSH2 0x262 PUSH1 0x4 DUP1 CALLDATASIZE SUB PUSH1 0x20 DUP2 LT ISZERO PUSH2 0x24C JUMPI PUSH1 0x0 DUP1 REVERT JUMPDEST DUP2 ADD SWAP1 DUP1 DUP1 CALLDATALOAD SWAP1 PUSH1 0x20 ADD SWAP1 SWAP3 SWAP2 SWAP1 POP POP POP PUSH2 0x7FF JUMP JUMPDEST PUSH1 0x40 MLOAD DUP1 DUP3 DUP2 MSTORE PUSH1 0x20 ADD SWAP2 POP POP PUSH1 0x40 MLOAD DUP1 SWAP2 SUB SWAP1 RETURN JUMPDEST PUSH1 0x17 SLOAD PUSH1 0x1 PUSH1 0x17 SLOAD PUSH1 0x4 DUP2 LT PUSH2 0x28A JUMPI INVALID JUMPDEST PUSH1 0x3 MUL ADD PUSH1 0x1 ADD DUP2 SWAP1 SSTORE POP CALLER PUSH1 0x1 PUSH1 0x17 SLOAD PUSH1 0x4 DUP2 LT PUSH2 0x2A5 JUMPI INVALID JUMPDEST PUSH1 0x3 MUL ADD PUSH1 0x2 ADD PUSH1 0x0 PUSH2 0x100 EXP DUP2 SLOAD DUP2 PUSH20 0xFFFFFFFFFFFFFFFFFFFFFFFFFFFFFFFFFFFFFFFF MUL NOT AND SWAP1 DUP4 PUSH20 0xFFFFFFFFFFFFFFFFFFFFFFFFFFFFFFFFFFFFFFFF AND MUL OR SWAP1 SSTORE POP PUSH1 0x5 PUSH1 0x1 PUSH1 0x17 SLOAD PUSH1 0x4 DUP2 LT PUSH2 0x2FB JUMPI INVALID JUMPDEST PUSH1 0x3 MUL ADD PUSH1 0x0 ADD DUP2 SWAP1 SSTORE POP PUSH1 0x1 PUSH1 0x17 SLOAD PUSH1 0x4 DUP2 LT PUSH2 0x315 JUMPI INVALID JUMPDEST PUSH1 0x3 MUL ADD PUSH1 0x0 DUP1 CALLER PUSH20 0xFFFFFFFFFFFFFFFFFFFFFFFFFFFFFFFFFFFFFFFF AND PUSH20 0xFFFFFFFFFFFFFFFFFFFFFFFFFFFFFFFFFFFFFFFF AND DUP2 MSTORE PUSH1 0x20 ADD SWAP1 DUP2 MSTORE PUSH1 0x20 ADD PUSH1 0x0 KECCAK256 PUSH1 0x0 DUP3 ADD SLOAD DUP2 PUSH1 0x0 ADD SSTORE PUSH1 0x1 DUP3 ADD SLOAD DUP2 PUSH1 0x1 ADD SSTORE PUSH1 0x2 DUP3 ADD PUSH1 0x0 SWAP1 SLOAD SWAP1 PUSH2 0x100 EXP SWAP1 DIV PUSH20 0xFFFFFFFFFFFFFFFFFFFFFFFFFFFFFFFFFFFFFFFF AND DUP2 PUSH1 0x2 ADD PUSH1 0x0 PUSH2 0x100 EXP DUP2 SLOAD DUP2 PUSH20 0xFFFFFFFFFFFFFFFFFFFFFFFFFFFFFFFFFFFFFFFF MUL NOT AND SWAP1 DUP4 PUSH20 0xFFFFFFFFFFFFFFFFFFFFFFFFFFFFFFFFFFFFFFFF AND MUL OR SWAP1 SSTORE POP SWAP1 POP POP PUSH1 0x17 PUSH1 0x0 DUP2 SLOAD DUP1 SWAP3 SWAP2 SWAP1 PUSH1 0x1 ADD SWAP2 SWAP1 POP SSTORE POP JUMP JUMPDEST PUSH1 0x16 PUSH1 0x0 SWAP1 SLOAD SWAP1 PUSH2 0x100 EXP SWAP1 DIV PUSH20 0xFFFFFFFFFFFFFFFFFFFFFFFFFFFFFFFFFFFFFFFF AND DUP2 JUMP JUMPDEST DUP1 PUSH1 0x0 DUP1 CALLER PUSH20 0xFFFFFFFFFFFFFFFFFFFFFFFFFFFFFFFFFFFFFFFF AND PUSH20 0xFFFFFFFFFFFFFFFFFFFFFFFFFFFFFFFFFFFFFFFF AND DUP2 MSTORE PUSH1 0x20 ADD SWAP1 DUP2 MSTORE PUSH1 0x20 ADD PUSH1 0x0 KECCAK256 PUSH1 0x0 ADD SLOAD LT DUP1 PUSH2 0x45E JUMPI POP PUSH1 0x2 DUP3 GT JUMPDEST ISZERO PUSH2 0x468 JUMPI PUSH1 0x0 DUP1 REVERT JUMPDEST PUSH1 0x0 DUP2 PUSH1 0x0 DUP1 CALLER PUSH20 0xFFFFFFFFFFFFFFFFFFFFFFFFFFFFFFFFFFFFFFFF AND PUSH20 0xFFFFFFFFFFFFFFFFFFFFFFFFFFFFFFFFFFFFFFFF AND DUP2 MSTORE PUSH1 0x20 ADD SWAP1 DUP2 MSTORE PUSH1 0x20 ADD PUSH1 0x0 KECCAK256 PUSH1 0x0 ADD SLOAD SUB SWAP1 POP DUP1 PUSH1 0x0 DUP1 CALLER PUSH20 0xFFFFFFFFFFFFFFFFFFFFFFFFFFFFFFFFFFFFFFFF AND PUSH20 0xFFFFFFFFFFFFFFFFFFFFFFFFFFFFFFFFFFFFFFFF AND DUP2 MSTORE PUSH1 0x20 ADD SWAP1 DUP2 MSTORE PUSH1 0x20 ADD PUSH1 0x0 KECCAK256 PUSH1 0x0 ADD DUP2 SWAP1 SSTORE POP DUP1 PUSH1 0x1 PUSH1 0x0 DUP1 CALLER PUSH20 0xFFFFFFFFFFFFFFFFFFFFFFFFFFFFFFFFFFFFFFFF AND PUSH20 0xFFFFFFFFFFFFFFFFFFFFFFFFFFFFFFFFFFFFFFFF AND DUP2 MSTORE PUSH1 0x20 ADD SWAP1 DUP2 MSTORE PUSH1 0x20 ADD PUSH1 0x0 KECCAK256 PUSH1 0x1 ADD SLOAD PUSH1 0x4 DUP2 LT PUSH2 0x545 JUMPI INVALID JUMPDEST PUSH1 0x3 MUL ADD PUSH1 0x0 ADD DUP2 SWAP1 SSTORE POP PUSH1 0x0 PUSH1 0xD DUP5 PUSH1 0x3 DUP2 LT PUSH2 0x55F JUMPI INVALID JUMPDEST PUSH1 0x2 MUL ADD SWAP1 POP PUSH1 0x0 DUP1 SWAP1 POP JUMPDEST DUP4 DUP2 LT ISZERO PUSH2 0x5EF JUMPI DUP2 PUSH1 0x1 ADD PUSH1 0x0 DUP1 CALLER PUSH20 0xFFFFFFFFFFFFFFFFFFFFFFFFFFFFFFFFFFFFFFFF AND PUSH20 0xFFFFFFFFFFFFFFFFFFFFFFFFFFFFFFFFFFFFFFFF AND DUP2 MSTORE PUSH1 0x20 ADD SWAP1 DUP2 MSTORE PUSH1 0x20 ADD PUSH1 0x0 KECCAK256 PUSH1 0x1 ADD SLOAD SWAP1 DUP1 PUSH1 0x1 DUP2 SLOAD ADD DUP1 DUP3 SSTORE DUP1 SWAP2 POP POP SWAP1 PUSH1 0x1 DUP3 SUB SWAP1 PUSH1 0x0 MSTORE PUSH1 0x20 PUSH1 0x0 KECCAK256 ADD PUSH1 0x0 SWAP1 SWAP2 SWAP3 SWAP1 SWAP2 SWAP1 SWAP2 POP SSTORE POP DUP1 DUP1 PUSH1 0x1 ADD SWAP2 POP POP PUSH2 0x56B JUMP JUMPDEST POP POP POP POP POP JUMP JUMPDEST PUSH1 0x0 DUP1 PUSH1 0x0 PUSH1 0x1 DUP5 PUSH1 0x4 DUP2 LT PUSH2 0x608 JUMPI INVALID JUMPDEST PUSH1 0x3 MUL ADD PUSH1 0x0 ADD SLOAD PUSH1 0x1 DUP6 PUSH1 0x4 DUP2 LT PUSH2 0x61D JUMPI INVALID JUMPDEST PUSH1 0x3 MUL ADD PUSH1 0x1 ADD SLOAD PUSH1 0x1 DUP7 PUSH1 0x4 DUP2 LT PUSH2 0x632 JUMPI INVALID JUMPDEST PUSH1 0x3 MUL ADD PUSH1 0x2 ADD PUSH1 0x0 SWAP1 SLOAD SWAP1 PUSH2 0x100 EXP SWAP1 DIV PUSH20 0xFFFFFFFFFFFFFFFFFFFFFFFFFFFFFFFFFFFFFFFF AND SWAP3 POP SWAP3 POP SWAP3 POP SWAP2 SWAP4 SWAP1 SWAP3 POP JUMP JUMPDEST PUSH1 0x16 PUSH1 0x0 SWAP1 SLOAD SWAP1 PUSH2 0x100 EXP SWAP1 DIV PUSH20 0xFFFFFFFFFFFFFFFFFFFFFFFFFFFFFFFFFFFFFFFF AND PUSH20 0xFFFFFFFFFFFFFFFFFFFFFFFFFFFFFFFFFFFFFFFF AND CALLER PUSH20 0xFFFFFFFFFFFFFFFFFFFFFFFFFFFFFFFFFFFFFFFF AND EQ PUSH2 0x6C1 JUMPI PUSH1 0x0 DUP1 REVERT JUMPDEST PUSH1 0x0 DUP1 SWAP1 POP JUMPDEST PUSH1 0x3 DUP2 LT ISZERO PUSH2 0x7C9 JUMPI PUSH1 0x0 PUSH1 0xD DUP3 PUSH1 0x3 DUP2 LT PUSH2 0x6DF JUMPI INVALID JUMPDEST PUSH1 0x2 MUL ADD SWAP1 POP PUSH1 0x0 DUP2 PUSH1 0x1 ADD DUP1 SLOAD SWAP1 POP EQ PUSH2 0x7BB JUMPI PUSH1 0x0 DUP2 PUSH1 0x1 ADD DUP1 SLOAD SWAP1 POP DUP3 PUSH1 0x1 ADD DUP1 SLOAD SWAP1 POP NUMBER DUP2 PUSH2 0x70E JUMPI INVALID JUMPDEST DIV DUP2 PUSH2 0x716 JUMPI INVALID JUMPDEST MOD SWAP1 POP PUSH1 0x0 DUP3 PUSH1 0x1 ADD DUP3 DUP2 SLOAD DUP2 LT PUSH2 0x72A JUMPI INVALID JUMPDEST SWAP1 PUSH1 0x0 MSTORE PUSH1 0x20 PUSH1 0x0 KECCAK256 ADD SLOAD SWAP1 POP PUSH1 0x1 DUP2 PUSH1 0x4 DUP2 LT PUSH2 0x744 JUMPI INVALID JUMPDEST PUSH1 0x3 MUL ADD PUSH1 0x2 ADD PUSH1 0x0 SWAP1 SLOAD SWAP1 PUSH2 0x100 EXP SWAP1 DIV PUSH20 0xFFFFFFFFFFFFFFFFFFFFFFFFFFFFFFFFFFFFFFFF AND PUSH1 0x13 DUP6 PUSH1 0x3 DUP2 LT PUSH2 0x779 JUMPI INVALID JUMPDEST ADD PUSH1 0x0 PUSH2 0x100 EXP DUP2 SLOAD DUP2 PUSH20 0xFFFFFFFFFFFFFFFFFFFFFFFFFFFFFFFFFFFFFFFF MUL NOT AND SWAP1 DUP4 PUSH20 0xFFFFFFFFFFFFFFFFFFFFFFFFFFFFFFFFFFFFFFFF AND MUL OR SWAP1 SSTORE POP POP POP JUMPDEST POP DUP1 DUP1 PUSH1 0x1 ADD SWAP2 POP POP PUSH2 0x6C7 JUMP JUMPDEST POP JUMP JUMPDEST PUSH1 0x13 DUP2 PUSH1 0x3 DUP2 LT PUSH2 0x7D9 JUMPI INVALID JUMPDEST ADD PUSH1 0x0 SWAP2 POP SLOAD SWAP1 PUSH2 0x100 EXP SWAP1 DIV PUSH20 0xFFFFFFFFFFFFFFFFFFFFFFFFFFFFFFFFFFFFFFFF AND DUP2 JUMP JUMPDEST PUSH1 0xD DUP2 PUSH1 0x3 DUP2 LT PUSH2 0x80C JUMPI INVALID JUMPDEST PUSH1 0x2 MUL ADD PUSH1 0x0 SWAP2 POP SWAP1 POP DUP1 PUSH1 0x0 ADD SLOAD SWAP1 POP DUP2 JUMP INVALID LOG2 PUSH6 0x627A7A723158 KECCAK256 0xAE LOG4 SWAP10 DUP15 0xB0 TIMESTAMP 0xB0 0xB8 PUSH22 0x6D3B617C62E80E0DAF08FE81CD936A1A9B3CC6BC491B DUP5 PUSH5 0x736F6C6343 STOP SDIV GT STOP ORIGIN "
				},
				"gasEstimates": {
					"creation": {
						"codeDepositCost": "426600",
						"executionCost": "infinite",
						"totalCost": "infinite"
					},
					"external": {
						"beneficiary()": "1076",
						"bid(uint256,uint256)": "infinite",
						"getPersonDetails(uint256)": "2945",
						"items(uint256)": "1217",
						"register()": "149471",
						"revealWinners()": "infinite",
						"winners(uint256)": "1210"
					}
				},
				"methodIdentifiers": {
					"beneficiary()": "38af3eed",
					"bid(uint256,uint256)": "598647f8",
					"getPersonDetails(uint256)": "60981705",
					"items(uint256)": "bfb231d2",
					"register()": "1aa3a008",
					"revealWinners()": "952587d6",
					"winners(uint256)": "a2fb1175"
				}
			},
			"storageLayout": {
				"storage": [
					{
						"astId": 18,
						"contract": "AuctionAnswers.sol:Auction",
						"label": "tokenDetails",
						"offset": 0,
						"slot": "0",
						"type": "t_mapping(t_address,t_struct(Person)14_storage)"
					},
					{
						"astId": 22,
						"contract": "AuctionAnswers.sol:Auction",
						"label": "bidders",
						"offset": 0,
						"slot": "1",
						"type": "t_array(t_struct(Person)14_storage)4_storage"
					},
					{
						"astId": 26,
						"contract": "AuctionAnswers.sol:Auction",
						"label": "items",
						"offset": 0,
						"slot": "13",
						"type": "t_array(t_struct(Item)7_storage)3_storage"
					},
					{
						"astId": 30,
						"contract": "AuctionAnswers.sol:Auction",
						"label": "winners",
						"offset": 0,
						"slot": "19",
						"type": "t_array(t_address)3_storage"
					},
					{
						"astId": 32,
						"contract": "AuctionAnswers.sol:Auction",
						"label": "beneficiary",
						"offset": 0,
						"slot": "22",
						"type": "t_address"
					},
					{
						"astId": 35,
						"contract": "AuctionAnswers.sol:Auction",
						"label": "bidderCount",
						"offset": 0,
						"slot": "23",
						"type": "t_uint256"
					}
				],
				"types": {
					"t_address": {
						"encoding": "inplace",
						"label": "address",
						"numberOfBytes": "20"
					},
					"t_array(t_address)3_storage": {
						"base": "t_address",
						"encoding": "inplace",
						"label": "address[3]",
						"numberOfBytes": "96"
					},
					"t_array(t_struct(Item)7_storage)3_storage": {
						"base": "t_struct(Item)7_storage",
						"encoding": "inplace",
						"label": "struct Auction.Item[3]",
						"numberOfBytes": "192"
					},
					"t_array(t_struct(Person)14_storage)4_storage": {
						"base": "t_struct(Person)14_storage",
						"encoding": "inplace",
						"label": "struct Auction.Person[4]",
						"numberOfBytes": "384"
					},
					"t_array(t_uint256)dyn_storage": {
						"base": "t_uint256",
						"encoding": "dynamic_array",
						"label": "uint256[]",
						"numberOfBytes": "32"
					},
					"t_mapping(t_address,t_struct(Person)14_storage)": {
						"encoding": "mapping",
						"key": "t_address",
						"label": "mapping(address => struct Auction.Person)",
						"numberOfBytes": "32",
						"value": "t_struct(Person)14_storage"
					},
					"t_struct(Item)7_storage": {
						"encoding": "inplace",
						"label": "struct Auction.Item",
						"members": [
							{
								"astId": 3,
								"contract": "AuctionAnswers.sol:Auction",
								"label": "itemId",
								"offset": 0,
								"slot": "0",
								"type": "t_uint256"
							},
							{
								"astId": 6,
								"contract": "AuctionAnswers.sol:Auction",
								"label": "itemTokens",
								"offset": 0,
								"slot": "1",
								"type": "t_array(t_uint256)dyn_storage"
							}
						],
						"numberOfBytes": "64"
					},
					"t_struct(Person)14_storage": {
						"encoding": "inplace",
						"label": "struct Auction.Person",
						"members": [
							{
								"astId": 9,
								"contract": "AuctionAnswers.sol:Auction",
								"label": "remainingTokens",
								"offset": 0,
								"slot": "0",
								"type": "t_uint256"
							},
							{
								"astId": 11,
								"contract": "AuctionAnswers.sol:Auction",
								"label": "personId",
								"offset": 0,
								"slot": "1",
								"type": "t_uint256"
							},
							{
								"astId": 13,
								"contract": "AuctionAnswers.sol:Auction",
								"label": "addr",
								"offset": 0,
								"slot": "2",
								"type": "t_address"
							}
						],
						"numberOfBytes": "96"
					},
					"t_uint256": {
						"encoding": "inplace",
						"label": "uint256",
						"numberOfBytes": "32"
					}
				}
			},
			"userdoc": {
				"methods": {}
			}
		}
	}
}