{
	"StateTrans.sol": {
		"StateTransV2": {
			"abi": [
				{
					"constant": true,
					"inputs": [],
					"name": "stage",
					"outputs": [
						{
							"name": "",
							"type": "uint8"
						}
					],
					"payable": false,
					"stateMutability": "view",
					"type": "function"
				},
				{
					"constant": true,
					"inputs": [],
					"name": "timeNow",
					"outputs": [
						{
							"name": "",
							"type": "uint256"
						}
					],
					"payable": false,
					"stateMutability": "view",
					"type": "function"
				},
				{
					"constant": false,
					"inputs": [],
					"name": "adavnceState",
					"outputs": [],
					"payable": false,
					"stateMutability": "nonpayable",
					"type": "function"
				},
				{
					"inputs": [],
					"payable": false,
					"stateMutability": "nonpayable",
					"type": "constructor"
				}
			],
			"devdoc": {
				"methods": {}
			},
			"evm": {
				"assembly": "    /* \"StateTrans.sol\":25:960  contract StateTransV2 {\r... */\n  mstore(0x40, 0x80)\n    /* \"StateTrans.sol\":170:254  constructor() public {\r... */\n  callvalue\n    /* \"--CODEGEN--\":8:17   */\n  dup1\n    /* \"--CODEGEN--\":5:7   */\n  iszero\n  tag_1\n  jumpi\n    /* \"--CODEGEN--\":30:31   */\n  0x00\n    /* \"--CODEGEN--\":27:28   */\n  dup1\n    /* \"--CODEGEN--\":20:32   */\n  revert\n    /* \"--CODEGEN--\":5:7   */\ntag_1:\n    /* \"StateTrans.sol\":170:254  constructor() public {\r... */\n  pop\n    /* \"StateTrans.sol\":210:220  Stage.Init */\n  0x00\n    /* \"StateTrans.sol\":202:207  stage */\n  dup1\n  0x00\n    /* \"StateTrans.sol\":202:220  stage = Stage.Init */\n  0x0100\n  exp\n  dup2\n  sload\n  dup2\n  0xff\n  mul\n  not\n  and\n  swap1\n  dup4\n  0x03\n  dup2\n  gt\n  iszero\n  tag_4\n  jumpi\n  invalid\ntag_4:\n  mul\n  or\n  swap1\n  sstore\n  pop\n    /* \"StateTrans.sol\":243:246  now */\n  timestamp\n    /* \"StateTrans.sol\":231:240  startTime */\n  0x01\n    /* \"StateTrans.sol\":231:246  startTime = now */\n  dup2\n  swap1\n  sstore\n  pop\n    /* \"StateTrans.sol\":25:960  contract StateTransV2 {\r... */\n  dataSize(sub_0)\n  dup1\n  dataOffset(sub_0)\n  0x00\n  codecopy\n  0x00\n  return\nstop\n\nsub_0: assembly {\n        /* \"StateTrans.sol\":25:960  contract StateTransV2 {\r... */\n      mstore(0x40, 0x80)\n      callvalue\n        /* \"--CODEGEN--\":8:17   */\n      dup1\n        /* \"--CODEGEN--\":5:7   */\n      iszero\n      tag_1\n      jumpi\n        /* \"--CODEGEN--\":30:31   */\n      0x00\n        /* \"--CODEGEN--\":27:28   */\n      dup1\n        /* \"--CODEGEN--\":20:32   */\n      revert\n        /* \"--CODEGEN--\":5:7   */\n    tag_1:\n        /* \"StateTrans.sol\":25:960  contract StateTransV2 {\r... */\n      pop\n      jumpi(tag_2, lt(calldatasize, 0x04))\n      shr(0xe0, calldataload(0x00))\n      dup1\n      0xc040e6b8\n      eq\n      tag_3\n      jumpi\n      dup1\n      0xd95660be\n      eq\n      tag_4\n      jumpi\n      dup1\n      0xecf70846\n      eq\n      tag_5\n      jumpi\n    tag_2:\n      0x00\n      dup1\n      revert\n        /* \"StateTrans.sol\":96:114  Stage public stage */\n    tag_3:\n      tag_6\n      tag_7\n      jump\t// in\n    tag_6:\n      mload(0x40)\n      dup1\n      dup3\n      0x03\n      dup2\n      gt\n      iszero\n      tag_8\n      jumpi\n      invalid\n    tag_8:\n      0xff\n      and\n      dup2\n      mstore\n      0x20\n      add\n      swap2\n      pop\n      pop\n      mload(0x40)\n      dup1\n      swap2\n      sub\n      swap1\n      return\n        /* \"StateTrans.sol\":142:161  uint public timeNow */\n    tag_4:\n      tag_9\n      tag_10\n      jump\t// in\n    tag_9:\n      mload(0x40)\n      dup1\n      dup3\n      dup2\n      mstore\n      0x20\n      add\n      swap2\n      pop\n      pop\n      mload(0x40)\n      dup1\n      swap2\n      sub\n      swap1\n      return\n        /* \"StateTrans.sol\":591:957  function adavnceState () public {\r... */\n    tag_5:\n      tag_11\n      tag_12\n      jump\t// in\n    tag_11:\n      stop\n        /* \"StateTrans.sol\":96:114  Stage public stage */\n    tag_7:\n      0x00\n      dup1\n      swap1\n      sload\n      swap1\n      0x0100\n      exp\n      swap1\n      div\n      0xff\n      and\n      dup2\n      jump\t// out\n        /* \"StateTrans.sol\":142:161  uint public timeNow */\n    tag_10:\n      sload(0x02)\n      dup2\n      jump\t// out\n        /* \"StateTrans.sol\":591:957  function adavnceState () public {\r... */\n    tag_12:\n        /* \"StateTrans.sol\":644:647  now */\n      timestamp\n        /* \"StateTrans.sol\":634:641  timeNow */\n      0x02\n        /* \"StateTrans.sol\":634:647  timeNow = now */\n      dup2\n      swap1\n      sstore\n      pop\n        /* \"StateTrans.sol\":684:694  10 seconds */\n      0x0a\n        /* \"StateTrans.sol\":672:681  startTime */\n      sload(0x01)\n        /* \"StateTrans.sol\":672:694  startTime + 10 seconds */\n      add\n        /* \"StateTrans.sol\":661:668  timeNow */\n      sload(0x02)\n        /* \"StateTrans.sol\":661:695  timeNow > (startTime + 10 seconds) */\n      gt\n        /* \"StateTrans.sol\":658:950  if(timeNow > (startTime + 10 seconds)) {\r... */\n      iszero\n      tag_14\n      jumpi\n        /* \"StateTrans.sol\":724:731  timeNow */\n      sload(0x02)\n        /* \"StateTrans.sol\":712:721  startTime */\n      0x01\n        /* \"StateTrans.sol\":712:731  startTime = timeNow */\n      dup2\n      swap1\n      sstore\n      pop\n        /* \"StateTrans.sol\":755:765  Stage.Init */\n      0x00\n        /* \"StateTrans.sol\":746:765  stage == Stage.Init */\n      0x03\n      dup2\n      gt\n      iszero\n      tag_15\n      jumpi\n      invalid\n    tag_15:\n        /* \"StateTrans.sol\":746:751  stage */\n      0x00\n      dup1\n      swap1\n      sload\n      swap1\n      0x0100\n      exp\n      swap1\n      div\n      0xff\n      and\n        /* \"StateTrans.sol\":746:765  stage == Stage.Init */\n      0x03\n      dup2\n      gt\n      iszero\n      tag_16\n      jumpi\n      invalid\n    tag_16:\n      eq\n        /* \"StateTrans.sol\":742:795  if (stage == Stage.Init) {stage = Stage.Reg; return;} */\n      iszero\n      tag_17\n      jumpi\n        /* \"StateTrans.sol\":776:785  Stage.Reg */\n      0x01\n        /* \"StateTrans.sol\":768:773  stage */\n      0x00\n      dup1\n        /* \"StateTrans.sol\":768:785  stage = Stage.Reg */\n      0x0100\n      exp\n      dup2\n      sload\n      dup2\n      0xff\n      mul\n      not\n      and\n      swap1\n      dup4\n      0x03\n      dup2\n      gt\n      iszero\n      tag_18\n      jumpi\n      invalid\n    tag_18:\n      mul\n      or\n      swap1\n      sstore\n      pop\n        /* \"StateTrans.sol\":787:794  return; */\n      jump(tag_13)\n        /* \"StateTrans.sol\":742:795  if (stage == Stage.Init) {stage = Stage.Reg; return;} */\n    tag_17:\n        /* \"StateTrans.sol\":818:827  Stage.Reg */\n      0x01\n        /* \"StateTrans.sol\":809:827  stage == Stage.Reg */\n      0x03\n      dup2\n      gt\n      iszero\n      tag_19\n      jumpi\n      invalid\n    tag_19:\n        /* \"StateTrans.sol\":809:814  stage */\n      0x00\n      dup1\n      swap1\n      sload\n      swap1\n      0x0100\n      exp\n      swap1\n      div\n      0xff\n      and\n        /* \"StateTrans.sol\":809:827  stage == Stage.Reg */\n      0x03\n      dup2\n      gt\n      iszero\n      tag_20\n      jumpi\n      invalid\n    tag_20:\n      eq\n        /* \"StateTrans.sol\":805:858  if (stage == Stage.Reg) {stage = Stage.Vote; return;} */\n      iszero\n      tag_21\n      jumpi\n        /* \"StateTrans.sol\":838:848  Stage.Vote */\n      0x02\n        /* \"StateTrans.sol\":830:835  stage */\n      0x00\n      dup1\n        /* \"StateTrans.sol\":830:848  stage = Stage.Vote */\n      0x0100\n      exp\n      dup2\n      sload\n      dup2\n      0xff\n      mul\n      not\n      and\n      swap1\n      dup4\n      0x03\n      dup2\n      gt\n      iszero\n      tag_22\n      jumpi\n      invalid\n    tag_22:\n      mul\n      or\n      swap1\n      sstore\n      pop\n        /* \"StateTrans.sol\":850:857  return; */\n      jump(tag_13)\n        /* \"StateTrans.sol\":805:858  if (stage == Stage.Reg) {stage = Stage.Vote; return;} */\n    tag_21:\n        /* \"StateTrans.sol\":881:891  Stage.Vote */\n      0x02\n        /* \"StateTrans.sol\":872:891  stage == Stage.Vote */\n      0x03\n      dup2\n      gt\n      iszero\n      tag_23\n      jumpi\n      invalid\n    tag_23:\n        /* \"StateTrans.sol\":872:877  stage */\n      0x00\n      dup1\n      swap1\n      sload\n      swap1\n      0x0100\n      exp\n      swap1\n      div\n      0xff\n      and\n        /* \"StateTrans.sol\":872:891  stage == Stage.Vote */\n      0x03\n      dup2\n      gt\n      iszero\n      tag_24\n      jumpi\n      invalid\n    tag_24:\n      eq\n        /* \"StateTrans.sol\":868:922  if (stage == Stage.Vote) {stage = Stage.Done; return;} */\n      iszero\n      tag_25\n      jumpi\n        /* \"StateTrans.sol\":902:912  Stage.Done */\n      0x03\n        /* \"StateTrans.sol\":894:899  stage */\n      0x00\n      dup1\n        /* \"StateTrans.sol\":894:912  stage = Stage.Done */\n      0x0100\n      exp\n      dup2\n      sload\n      dup2\n      0xff\n      mul\n      not\n      and\n      swap1\n      dup4\n      0x03\n      dup2\n      gt\n      iszero\n      tag_26\n      jumpi\n      invalid\n    tag_26:\n      mul\n      or\n      swap1\n      sstore\n      pop\n        /* \"StateTrans.sol\":914:921  return; */\n      jump(tag_13)\n        /* \"StateTrans.sol\":868:922  if (stage == Stage.Vote) {stage = Stage.Done; return;} */\n    tag_25:\n        /* \"StateTrans.sol\":932:939  return; */\n      jump(tag_13)\n        /* \"StateTrans.sol\":658:950  if(timeNow > (startTime + 10 seconds)) {\r... */\n    tag_14:\n        /* \"StateTrans.sol\":591:957  function adavnceState () public {\r... */\n    tag_13:\n      jump\t// out\n\n    auxdata: 0xa265627a7a72305820242746c09617ead99a30cbf4cc394e345db41b63de879882cf2e86f3cfc6f48964736f6c63430005090032\n}\n",
				"bytecode": {
					"linkReferences": {},
					"object": "608060405234801561001057600080fd5b5060008060006101000a81548160ff0219169083600381111561002f57fe5b02179055504260018190555061020d8061004a6000396000f3fe608060405234801561001057600080fd5b50600436106100415760003560e01c8063c040e6b814610046578063d95660be14610072578063ecf7084614610090575b600080fd5b61004e61009a565b6040518082600381111561005e57fe5b60ff16815260200191505060405180910390f35b61007a6100ac565b6040518082815260200191505060405180910390f35b6100986100b2565b005b6000809054906101000a900460ff1681565b60025481565b42600281905550600a6001540160025411156101d557600254600181905550600060038111156100de57fe5b6000809054906101000a900460ff1660038111156100f857fe5b14156101265760016000806101000a81548160ff0219169083600381111561011c57fe5b02179055506101d6565b6001600381111561013357fe5b6000809054906101000a900460ff16600381111561014d57fe5b141561017b5760026000806101000a81548160ff0219169083600381111561017157fe5b02179055506101d6565b6002600381111561018857fe5b6000809054906101000a900460ff1660038111156101a257fe5b14156101d05760036000806101000a81548160ff021916908360038111156101c657fe5b02179055506101d6565b6101d6565b5b56fea265627a7a72305820242746c09617ead99a30cbf4cc394e345db41b63de879882cf2e86f3cfc6f48964736f6c63430005090032",
					"opcodes": "PUSH1 0x80 PUSH1 0x40 MSTORE CALLVALUE DUP1 ISZERO PUSH2 0x10 JUMPI PUSH1 0x0 DUP1 REVERT JUMPDEST POP PUSH1 0x0 DUP1 PUSH1 0x0 PUSH2 0x100 EXP DUP2 SLOAD DUP2 PUSH1 0xFF MUL NOT AND SWAP1 DUP4 PUSH1 0x3 DUP2 GT ISZERO PUSH2 0x2F JUMPI INVALID JUMPDEST MUL OR SWAP1 SSTORE POP TIMESTAMP PUSH1 0x1 DUP2 SWAP1 SSTORE POP PUSH2 0x20D DUP1 PUSH2 0x4A PUSH1 0x0 CODECOPY PUSH1 0x0 RETURN INVALID PUSH1 0x80 PUSH1 0x40 MSTORE CALLVALUE DUP1 ISZERO PUSH2 0x10 JUMPI PUSH1 0x0 DUP1 REVERT JUMPDEST POP PUSH1 0x4 CALLDATASIZE LT PUSH2 0x41 JUMPI PUSH1 0x0 CALLDATALOAD PUSH1 0xE0 SHR DUP1 PUSH4 0xC040E6B8 EQ PUSH2 0x46 JUMPI DUP1 PUSH4 0xD95660BE EQ PUSH2 0x72 JUMPI DUP1 PUSH4 0xECF70846 EQ PUSH2 0x90 JUMPI JUMPDEST PUSH1 0x0 DUP1 REVERT JUMPDEST PUSH2 0x4E PUSH2 0x9A JUMP JUMPDEST PUSH1 0x40 MLOAD DUP1 DUP3 PUSH1 0x3 DUP2 GT ISZERO PUSH2 0x5E JUMPI INVALID JUMPDEST PUSH1 0xFF AND DUP2 MSTORE PUSH1 0x20 ADD SWAP2 POP POP PUSH1 0x40 MLOAD DUP1 SWAP2 SUB SWAP1 RETURN JUMPDEST PUSH2 0x7A PUSH2 0xAC JUMP JUMPDEST PUSH1 0x40 MLOAD DUP1 DUP3 DUP2 MSTORE PUSH1 0x20 ADD SWAP2 POP POP PUSH1 0x40 MLOAD DUP1 SWAP2 SUB SWAP1 RETURN JUMPDEST PUSH2 0x98 PUSH2 0xB2 JUMP JUMPDEST STOP JUMPDEST PUSH1 0x0 DUP1 SWAP1 SLOAD SWAP1 PUSH2 0x100 EXP SWAP1 DIV PUSH1 0xFF AND DUP2 JUMP JUMPDEST PUSH1 0x2 SLOAD DUP2 JUMP JUMPDEST TIMESTAMP PUSH1 0x2 DUP2 SWAP1 SSTORE POP PUSH1 0xA PUSH1 0x1 SLOAD ADD PUSH1 0x2 SLOAD GT ISZERO PUSH2 0x1D5 JUMPI PUSH1 0x2 SLOAD PUSH1 0x1 DUP2 SWAP1 SSTORE POP PUSH1 0x0 PUSH1 0x3 DUP2 GT ISZERO PUSH2 0xDE JUMPI INVALID JUMPDEST PUSH1 0x0 DUP1 SWAP1 SLOAD SWAP1 PUSH2 0x100 EXP SWAP1 DIV PUSH1 0xFF AND PUSH1 0x3 DUP2 GT ISZERO PUSH2 0xF8 JUMPI INVALID JUMPDEST EQ ISZERO PUSH2 0x126 JUMPI PUSH1 0x1 PUSH1 0x0 DUP1 PUSH2 0x100 EXP DUP2 SLOAD DUP2 PUSH1 0xFF MUL NOT AND SWAP1 DUP4 PUSH1 0x3 DUP2 GT ISZERO PUSH2 0x11C JUMPI INVALID JUMPDEST MUL OR SWAP1 SSTORE POP PUSH2 0x1D6 JUMP JUMPDEST PUSH1 0x1 PUSH1 0x3 DUP2 GT ISZERO PUSH2 0x133 JUMPI INVALID JUMPDEST PUSH1 0x0 DUP1 SWAP1 SLOAD SWAP1 PUSH2 0x100 EXP SWAP1 DIV PUSH1 0xFF AND PUSH1 0x3 DUP2 GT ISZERO PUSH2 0x14D JUMPI INVALID JUMPDEST EQ ISZERO PUSH2 0x17B JUMPI PUSH1 0x2 PUSH1 0x0 DUP1 PUSH2 0x100 EXP DUP2 SLOAD DUP2 PUSH1 0xFF MUL NOT AND SWAP1 DUP4 PUSH1 0x3 DUP2 GT ISZERO PUSH2 0x171 JUMPI INVALID JUMPDEST MUL OR SWAP1 SSTORE POP PUSH2 0x1D6 JUMP JUMPDEST PUSH1 0x2 PUSH1 0x3 DUP2 GT ISZERO PUSH2 0x188 JUMPI INVALID JUMPDEST PUSH1 0x0 DUP1 SWAP1 SLOAD SWAP1 PUSH2 0x100 EXP SWAP1 DIV PUSH1 0xFF AND PUSH1 0x3 DUP2 GT ISZERO PUSH2 0x1A2 JUMPI INVALID JUMPDEST EQ ISZERO PUSH2 0x1D0 JUMPI PUSH1 0x3 PUSH1 0x0 DUP1 PUSH2 0x100 EXP DUP2 SLOAD DUP2 PUSH1 0xFF MUL NOT AND SWAP1 DUP4 PUSH1 0x3 DUP2 GT ISZERO PUSH2 0x1C6 JUMPI INVALID JUMPDEST MUL OR SWAP1 SSTORE POP PUSH2 0x1D6 JUMP JUMPDEST PUSH2 0x1D6 JUMP JUMPDEST JUMPDEST JUMP INVALID LOG2 PUSH6 0x627A7A723058 KECCAK256 0x24 0x27 0x46 0xc0 SWAP7 OR 0xea 0xd9 SWAP11 ADDRESS 0xcb DELEGATECALL 0xcc CODECOPY 0x4e CALLVALUE 0x5d 0xb4 SHL PUSH4 0xDE879882 0xcf 0x2e DUP7 RETURN 0xcf 0xc6 DELEGATECALL DUP10 PUSH5 0x736F6C6343 STOP SDIV MULMOD STOP ORIGIN "
				},
				"gasEstimates": {
					"creation": {
						"codeDepositCost": "105000",
						"executionCost": "40453",
						"totalCost": "145453"
					},
					"external": {
						"adavnceState()": "62064",
						"stage()": "451",
						"timeNow()": "405"
					}
				},
				"methodIdentifiers": {
					"adavnceState()": "ecf70846",
					"stage()": "c040e6b8",
					"timeNow()": "d95660be"
				}
			},
			"userdoc": {
				"methods": {}
			}
		}
	}
}