{
	"BallotV2-J.sol": {
		"Ballot": {
			"abi": [
				{
					"constant": false,
					"inputs": [
						{
							"name": "toVoter",
							"type": "address"
						}
					],
					"name": "register",
					"outputs": [],
					"payable": false,
					"stateMutability": "nonpayable",
					"type": "function"
				},
				{
					"constant": true,
					"inputs": [],
					"name": "winningProposal",
					"outputs": [
						{
							"name": "_winningProposal",
							"type": "uint8"
						}
					],
					"payable": false,
					"stateMutability": "view",
					"type": "function"
				},
				{
					"constant": false,
					"inputs": [
						{
							"name": "toProposal",
							"type": "uint8"
						}
					],
					"name": "vote",
					"outputs": [],
					"payable": false,
					"stateMutability": "nonpayable",
					"type": "function"
				},
				{
					"constant": true,
					"inputs": [],
					"name": "stage",
					"outputs": [
						{
							"name": "",
							"type": "uint8"
						}
					],
					"payable": false,
					"stateMutability": "view",
					"type": "function"
				},
				{
					"inputs": [
						{
							"name": "_numProposals",
							"type": "uint8"
						}
					],
					"payable": false,
					"stateMutability": "nonpayable",
					"type": "constructor"
				}
			],
			"devdoc": {
				"methods": {}
			},
			"evm": {
				"assembly": "    /* \"BallotV2-J.sol\":25:2018  contract Ballot {\r... */\n  mstore(0x40, 0x80)\n    /* \"BallotV2-J.sol\":325:335  Stage.Init */\n  0x00\n    /* \"BallotV2-J.sol\":304:335  Stage public stage = Stage.Init */\n  dup1\n  exp(0x0100, 0x00)\n  dup2\n  sload\n  dup2\n  0xff\n  mul\n  not\n  and\n  swap1\n  dup4\n  0x03\n  dup2\n  gt\n  iszero\n  tag_1\n  jumpi\n  invalid\ntag_1:\n  mul\n  or\n  swap1\n  sstore\n  pop\n    /* \"BallotV2-J.sol\":535:756  constructor(uint8 _numProposals) public {\r... */\n  callvalue\n    /* \"--CODEGEN--\":8:17   */\n  dup1\n    /* \"--CODEGEN--\":5:7   */\n  iszero\n  tag_2\n  jumpi\n    /* \"--CODEGEN--\":30:31   */\n  0x00\n    /* \"--CODEGEN--\":27:28   */\n  dup1\n    /* \"--CODEGEN--\":20:32   */\n  revert\n    /* \"--CODEGEN--\":5:7   */\ntag_2:\n    /* \"BallotV2-J.sol\":535:756  constructor(uint8 _numProposals) public {\r... */\n  pop\n  mload(0x40)\n  sub(codesize, bytecodeSize)\n  dup1\n  bytecodeSize\n  dup4\n  codecopy\n  dup2\n  dup2\n  add\n  0x40\n  mstore\n    /* \"--CODEGEN--\":13:15   */\n  0x20\n    /* \"--CODEGEN--\":8:11   */\n  dup2\n    /* \"--CODEGEN--\":5:16   */\n  lt\n    /* \"--CODEGEN--\":2:4   */\n  iszero\n  tag_3\n  jumpi\n    /* \"--CODEGEN--\":29:30   */\n  0x00\n    /* \"--CODEGEN--\":26:27   */\n  dup1\n    /* \"--CODEGEN--\":19:31   */\n  revert\n    /* \"--CODEGEN--\":2:4   */\ntag_3:\n    /* \"BallotV2-J.sol\":535:756  constructor(uint8 _numProposals) public {\r... */\n  dup2\n  add\n  swap1\n  dup1\n  dup1\n  mload\n  swap1\n  0x20\n  add\n  swap1\n  swap3\n  swap2\n  swap1\n  pop\n  pop\n  pop\n    /* \"BallotV2-J.sol\":600:610  msg.sender */\n  caller\n    /* \"BallotV2-J.sol\":586:597  chairperson */\n  0x00\n  0x01\n    /* \"BallotV2-J.sol\":586:610  chairperson = msg.sender */\n  0x0100\n  exp\n  dup2\n  sload\n  dup2\n  0xffffffffffffffffffffffffffffffffffffffff\n  mul\n  not\n  and\n  swap1\n  dup4\n  0xffffffffffffffffffffffffffffffffffffffff\n  and\n  mul\n  or\n  swap1\n  sstore\n  pop\n    /* \"BallotV2-J.sol\":650:651  2 */\n  0x02\n    /* \"BallotV2-J.sol\":621:627  voters */\n  0x01\n    /* \"BallotV2-J.sol\":621:640  voters[chairperson] */\n  0x00\n    /* \"BallotV2-J.sol\":628:639  chairperson */\n  dup1\n  0x01\n  swap1\n  sload\n  swap1\n  0x0100\n  exp\n  swap1\n  div\n  0xffffffffffffffffffffffffffffffffffffffff\n  and\n    /* \"BallotV2-J.sol\":621:640  voters[chairperson] */\n  0xffffffffffffffffffffffffffffffffffffffff\n  and\n  0xffffffffffffffffffffffffffffffffffffffff\n  and\n  dup2\n  mstore\n  0x20\n  add\n  swap1\n  dup2\n  mstore\n  0x20\n  add\n  0x00\n  keccak256\n    /* \"BallotV2-J.sol\":621:647  voters[chairperson].weight */\n  0x00\n  add\n    /* \"BallotV2-J.sol\":621:651  voters[chairperson].weight = 2 */\n  dup2\n  swap1\n  sstore\n  pop\n    /* \"BallotV2-J.sol\":681:694  _numProposals */\n  dup1\n    /* \"BallotV2-J.sol\":662:694  proposals.length = _numProposals */\n  0xff\n  and\n    /* \"BallotV2-J.sol\":662:671  proposals */\n  0x02\n    /* \"BallotV2-J.sol\":662:694  proposals.length = _numProposals */\n  dup2\n  tag_6\n  swap2\n  swap1\n  tag_7\n  jump\t// in\ntag_6:\n  pop\n    /* \"BallotV2-J.sol\":713:722  Stage.Reg */\n  0x01\n    /* \"BallotV2-J.sol\":705:710  stage */\n  0x00\n  dup1\n    /* \"BallotV2-J.sol\":705:722  stage = Stage.Reg */\n  0x0100\n  exp\n  dup2\n  sload\n  dup2\n  0xff\n  mul\n  not\n  and\n  swap1\n  dup4\n  0x03\n  dup2\n  gt\n  iszero\n  tag_8\n  jumpi\n  invalid\ntag_8:\n  mul\n  or\n  swap1\n  sstore\n  pop\n    /* \"BallotV2-J.sol\":745:748  now */\n  timestamp\n    /* \"BallotV2-J.sol\":733:742  startTime */\n  0x03\n    /* \"BallotV2-J.sol\":733:748  startTime = now */\n  dup2\n  swap1\n  sstore\n  pop\n    /* \"BallotV2-J.sol\":535:756  constructor(uint8 _numProposals) public {\r... */\n  pop\n    /* \"BallotV2-J.sol\":25:2018  contract Ballot {\r... */\n  jump(tag_9)\ntag_7:\n  dup2\n  sload\n  dup2\n  dup4\n  sstore\n  dup2\n  dup2\n  gt\n  iszero\n  tag_10\n  jumpi\n  dup2\n  dup4\n  0x00\n  mstore\n  keccak256(0x00, 0x20)\n  swap2\n  dup3\n  add\n  swap2\n  add\n  tag_11\n  swap2\n  swap1\n  tag_12\n  jump\t// in\ntag_11:\ntag_10:\n  pop\n  pop\n  pop\n  jump\t// out\ntag_12:\n  tag_13\n  swap2\n  swap1\ntag_14:\n  dup1\n  dup3\n  gt\n  iszero\n  tag_15\n  jumpi\n  0x00\n  dup1\n  dup3\n  add\n  0x00\n  swap1\n  sstore\n  pop\n  0x01\n  add\n  jump(tag_14)\ntag_15:\n  pop\n  swap1\n  jump\ntag_13:\n  swap1\n  jump\t// out\ntag_9:\n  dataSize(sub_0)\n  dup1\n  dataOffset(sub_0)\n  0x00\n  codecopy\n  0x00\n  return\nstop\n\nsub_0: assembly {\n        /* \"BallotV2-J.sol\":25:2018  contract Ballot {\r... */\n      mstore(0x40, 0x80)\n      callvalue\n        /* \"--CODEGEN--\":8:17   */\n      dup1\n        /* \"--CODEGEN--\":5:7   */\n      iszero\n      tag_1\n      jumpi\n        /* \"--CODEGEN--\":30:31   */\n      0x00\n        /* \"--CODEGEN--\":27:28   */\n      dup1\n        /* \"--CODEGEN--\":20:32   */\n      revert\n        /* \"--CODEGEN--\":5:7   */\n    tag_1:\n        /* \"BallotV2-J.sol\":25:2018  contract Ballot {\r... */\n      pop\n      jumpi(tag_2, lt(calldatasize, 0x04))\n      shr(0xe0, calldataload(0x00))\n      dup1\n      0x4420e486\n      eq\n      tag_3\n      jumpi\n      dup1\n      0x609ff1bd\n      eq\n      tag_4\n      jumpi\n      dup1\n      0xb3f98adc\n      eq\n      tag_5\n      jumpi\n      dup1\n      0xc040e6b8\n      eq\n      tag_6\n      jumpi\n    tag_2:\n      0x00\n      dup1\n      revert\n        /* \"BallotV2-J.sol\":874:1158  function register(address toVoter) public {\r... */\n    tag_3:\n      tag_7\n      0x04\n      dup1\n      calldatasize\n      sub\n        /* \"--CODEGEN--\":13:15   */\n      0x20\n        /* \"--CODEGEN--\":8:11   */\n      dup2\n        /* \"--CODEGEN--\":5:16   */\n      lt\n        /* \"--CODEGEN--\":2:4   */\n      iszero\n      tag_8\n      jumpi\n        /* \"--CODEGEN--\":29:30   */\n      0x00\n        /* \"--CODEGEN--\":26:27   */\n      dup1\n        /* \"--CODEGEN--\":19:31   */\n      revert\n        /* \"--CODEGEN--\":2:4   */\n    tag_8:\n        /* \"BallotV2-J.sol\":874:1158  function register(address toVoter) public {\r... */\n      dup2\n      add\n      swap1\n      dup1\n      dup1\n      calldataload\n      0xffffffffffffffffffffffffffffffffffffffff\n      and\n      swap1\n      0x20\n      add\n      swap1\n      swap3\n      swap2\n      swap1\n      pop\n      pop\n      pop\n      tag_9\n      jump\t// in\n    tag_7:\n      stop\n        /* \"BallotV2-J.sol\":1587:2015  function winningProposal() public view returns (uint8 _winningProposal) {\r... */\n    tag_4:\n      tag_10\n      tag_11\n      jump\t// in\n    tag_10:\n      mload(0x40)\n      dup1\n      dup3\n      0xff\n      and\n      0xff\n      and\n      dup2\n      mstore\n      0x20\n      add\n      swap2\n      pop\n      pop\n      mload(0x40)\n      dup1\n      swap2\n      sub\n      swap1\n      return\n        /* \"BallotV2-J.sol\":1221:1579  function vote(uint8 toProposal) public {\r... */\n    tag_5:\n      tag_12\n      0x04\n      dup1\n      calldatasize\n      sub\n        /* \"--CODEGEN--\":13:15   */\n      0x20\n        /* \"--CODEGEN--\":8:11   */\n      dup2\n        /* \"--CODEGEN--\":5:16   */\n      lt\n        /* \"--CODEGEN--\":2:4   */\n      iszero\n      tag_13\n      jumpi\n        /* \"--CODEGEN--\":29:30   */\n      0x00\n        /* \"--CODEGEN--\":26:27   */\n      dup1\n        /* \"--CODEGEN--\":19:31   */\n      revert\n        /* \"--CODEGEN--\":2:4   */\n    tag_13:\n        /* \"BallotV2-J.sol\":1221:1579  function vote(uint8 toProposal) public {\r... */\n      dup2\n      add\n      swap1\n      dup1\n      dup1\n      calldataload\n      0xff\n      and\n      swap1\n      0x20\n      add\n      swap1\n      swap3\n      swap2\n      swap1\n      pop\n      pop\n      pop\n      tag_14\n      jump\t// in\n    tag_12:\n      stop\n        /* \"BallotV2-J.sol\":304:335  Stage public stage = Stage.Init */\n    tag_6:\n      tag_15\n      tag_16\n      jump\t// in\n    tag_15:\n      mload(0x40)\n      dup1\n      dup3\n      0x03\n      dup2\n      gt\n      iszero\n      tag_17\n      jumpi\n      invalid\n    tag_17:\n      0xff\n      and\n      dup2\n      mstore\n      0x20\n      add\n      swap2\n      pop\n      pop\n      mload(0x40)\n      dup1\n      swap2\n      sub\n      swap1\n      return\n        /* \"BallotV2-J.sol\":874:1158  function register(address toVoter) public {\r... */\n    tag_9:\n        /* \"BallotV2-J.sol\":945:956  chairperson */\n      0x00\n      0x01\n      swap1\n      sload\n      swap1\n      0x0100\n      exp\n      swap1\n      div\n      0xffffffffffffffffffffffffffffffffffffffff\n      and\n        /* \"BallotV2-J.sol\":931:956  msg.sender != chairperson */\n      0xffffffffffffffffffffffffffffffffffffffff\n      and\n        /* \"BallotV2-J.sol\":931:941  msg.sender */\n      caller\n        /* \"BallotV2-J.sol\":931:956  msg.sender != chairperson */\n      0xffffffffffffffffffffffffffffffffffffffff\n      and\n      eq\n      iszero\n        /* \"BallotV2-J.sol\":931:981  msg.sender != chairperson || voters[toVoter].voted */\n      dup1\n      tag_19\n      jumpi\n      pop\n        /* \"BallotV2-J.sol\":960:966  voters */\n      0x01\n        /* \"BallotV2-J.sol\":960:975  voters[toVoter] */\n      0x00\n        /* \"BallotV2-J.sol\":967:974  toVoter */\n      dup3\n        /* \"BallotV2-J.sol\":960:975  voters[toVoter] */\n      0xffffffffffffffffffffffffffffffffffffffff\n      and\n      0xffffffffffffffffffffffffffffffffffffffff\n      and\n      dup2\n      mstore\n      0x20\n      add\n      swap1\n      dup2\n      mstore\n      0x20\n      add\n      0x00\n      keccak256\n        /* \"BallotV2-J.sol\":960:981  voters[toVoter].voted */\n      0x01\n      add\n      0x00\n      swap1\n      sload\n      swap1\n      0x0100\n      exp\n      swap1\n      div\n      0xff\n      and\n        /* \"BallotV2-J.sol\":931:981  msg.sender != chairperson || voters[toVoter].voted */\n    tag_19:\n        /* \"BallotV2-J.sol\":927:990  if (msg.sender != chairperson || voters[toVoter].voted) return; */\n      iszero\n      tag_20\n      jumpi\n        /* \"BallotV2-J.sol\":983:990  return; */\n      jump(tag_18)\n        /* \"BallotV2-J.sol\":927:990  if (msg.sender != chairperson || voters[toVoter].voted) return; */\n    tag_20:\n        /* \"BallotV2-J.sol\":1025:1026  1 */\n      0x01\n        /* \"BallotV2-J.sol\":1000:1006  voters */\n      dup1\n        /* \"BallotV2-J.sol\":1000:1015  voters[toVoter] */\n      0x00\n        /* \"BallotV2-J.sol\":1007:1014  toVoter */\n      dup4\n        /* \"BallotV2-J.sol\":1000:1015  voters[toVoter] */\n      0xffffffffffffffffffffffffffffffffffffffff\n      and\n      0xffffffffffffffffffffffffffffffffffffffff\n      and\n      dup2\n      mstore\n      0x20\n      add\n      swap1\n      dup2\n      mstore\n      0x20\n      add\n      0x00\n      keccak256\n        /* \"BallotV2-J.sol\":1000:1022  voters[toVoter].weight */\n      0x00\n      add\n        /* \"BallotV2-J.sol\":1000:1026  voters[toVoter].weight = 1 */\n      dup2\n      swap1\n      sstore\n      pop\n        /* \"BallotV2-J.sol\":1061:1066  false */\n      0x00\n        /* \"BallotV2-J.sol\":1037:1043  voters */\n      0x01\n        /* \"BallotV2-J.sol\":1037:1052  voters[toVoter] */\n      0x00\n        /* \"BallotV2-J.sol\":1044:1051  toVoter */\n      dup4\n        /* \"BallotV2-J.sol\":1037:1052  voters[toVoter] */\n      0xffffffffffffffffffffffffffffffffffffffff\n      and\n      0xffffffffffffffffffffffffffffffffffffffff\n      and\n      dup2\n      mstore\n      0x20\n      add\n      swap1\n      dup2\n      mstore\n      0x20\n      add\n      0x00\n      keccak256\n        /* \"BallotV2-J.sol\":1037:1058  voters[toVoter].voted */\n      0x01\n      add\n      0x00\n        /* \"BallotV2-J.sol\":1037:1066  voters[toVoter].voted = false */\n      0x0100\n      exp\n      dup2\n      sload\n      dup2\n      0xff\n      mul\n      not\n      and\n      swap1\n      dup4\n      iszero\n      iszero\n      mul\n      or\n      swap1\n      sstore\n      pop\n        /* \"BallotV2-J.sol\":1100:1110  10 seconds */\n      0x0a\n        /* \"BallotV2-J.sol\":1089:1098  startTime */\n      sload(0x03)\n        /* \"BallotV2-J.sol\":1089:1110  startTime+ 10 seconds */\n      add\n        /* \"BallotV2-J.sol\":1082:1085  now */\n      timestamp\n        /* \"BallotV2-J.sol\":1082:1111  now > (startTime+ 10 seconds) */\n      gt\n        /* \"BallotV2-J.sol\":1078:1151  if (now > (startTime+ 10 seconds)) {stage = Stage.Vote; startTime = now;} */\n      iszero\n      tag_21\n      jumpi\n        /* \"BallotV2-J.sol\":1122:1132  Stage.Vote */\n      0x02\n        /* \"BallotV2-J.sol\":1114:1119  stage */\n      0x00\n      dup1\n        /* \"BallotV2-J.sol\":1114:1132  stage = Stage.Vote */\n      0x0100\n      exp\n      dup2\n      sload\n      dup2\n      0xff\n      mul\n      not\n      and\n      swap1\n      dup4\n      0x03\n      dup2\n      gt\n      iszero\n      tag_22\n      jumpi\n      invalid\n    tag_22:\n      mul\n      or\n      swap1\n      sstore\n      pop\n        /* \"BallotV2-J.sol\":1146:1149  now */\n      timestamp\n        /* \"BallotV2-J.sol\":1134:1143  startTime */\n      0x03\n        /* \"BallotV2-J.sol\":1134:1149  startTime = now */\n      dup2\n      swap1\n      sstore\n      pop\n        /* \"BallotV2-J.sol\":1078:1151  if (now > (startTime+ 10 seconds)) {stage = Stage.Vote; startTime = now;} */\n    tag_21:\n        /* \"BallotV2-J.sol\":874:1158  function register(address toVoter) public {\r... */\n    tag_18:\n      pop\n      jump\t// out\n        /* \"BallotV2-J.sol\":1587:2015  function winningProposal() public view returns (uint8 _winningProposal) {\r... */\n    tag_11:\n        /* \"BallotV2-J.sol\":1635:1657  uint8 _winningProposal */\n      0x00\n        /* \"BallotV2-J.sol\":1683:1693  Stage.Done */\n      0x03\n        /* \"BallotV2-J.sol\":1674:1693  stage != Stage.Done */\n      dup1\n      dup2\n      gt\n      iszero\n      tag_24\n      jumpi\n      invalid\n    tag_24:\n        /* \"BallotV2-J.sol\":1674:1679  stage */\n      0x00\n      dup1\n      swap1\n      sload\n      swap1\n      0x0100\n      exp\n      swap1\n      div\n      0xff\n      and\n        /* \"BallotV2-J.sol\":1674:1693  stage != Stage.Done */\n      0x03\n      dup2\n      gt\n      iszero\n      tag_25\n      jumpi\n      invalid\n    tag_25:\n      eq\n        /* \"BallotV2-J.sol\":1670:1721  if (stage != Stage.Done) {return _winningProposal;} */\n      tag_26\n      jumpi\n        /* \"BallotV2-J.sol\":1703:1719  _winningProposal */\n      dup1\n        /* \"BallotV2-J.sol\":1696:1719  return _winningProposal */\n      swap1\n      pop\n      jump(tag_23)\n        /* \"BallotV2-J.sol\":1670:1721  if (stage != Stage.Done) {return _winningProposal;} */\n    tag_26:\n        /* \"BallotV2-J.sol\":1731:1755  uint256 winningVoteCount */\n      0x00\n        /* \"BallotV2-J.sol\":1758:1759  0 */\n      dup1\n        /* \"BallotV2-J.sol\":1731:1759  uint256 winningVoteCount = 0 */\n      swap1\n      pop\n        /* \"BallotV2-J.sol\":1775:1785  uint8 prop */\n      0x00\n        /* \"BallotV2-J.sol\":1788:1789  0 */\n      dup1\n        /* \"BallotV2-J.sol\":1775:1789  uint8 prop = 0 */\n      swap1\n      pop\n        /* \"BallotV2-J.sol\":1770:2008  for (uint8 prop = 0; prop < proposals.length; prop++)\r... */\n    tag_27:\n        /* \"BallotV2-J.sol\":1798:1807  proposals */\n      0x02\n        /* \"BallotV2-J.sol\":1798:1814  proposals.length */\n      dup1\n      sload\n      swap1\n      pop\n        /* \"BallotV2-J.sol\":1791:1795  prop */\n      dup2\n        /* \"BallotV2-J.sol\":1791:1814  prop < proposals.length */\n      0xff\n      and\n      lt\n        /* \"BallotV2-J.sol\":1770:2008  for (uint8 prop = 0; prop < proposals.length; prop++)\r... */\n      iszero\n      tag_28\n      jumpi\n        /* \"BallotV2-J.sol\":1869:1885  winningVoteCount */\n      dup2\n        /* \"BallotV2-J.sol\":1841:1850  proposals */\n      0x02\n        /* \"BallotV2-J.sol\":1851:1855  prop */\n      dup3\n        /* \"BallotV2-J.sol\":1841:1856  proposals[prop] */\n      0xff\n      and\n      dup2\n      sload\n      dup2\n      lt\n      tag_30\n      jumpi\n      invalid\n    tag_30:\n      swap1\n      0x00\n      mstore\n      keccak256(0x00, 0x20)\n      add\n        /* \"BallotV2-J.sol\":1841:1866  proposals[prop].voteCount */\n      0x00\n      add\n      sload\n        /* \"BallotV2-J.sol\":1841:1885  proposals[prop].voteCount > winningVoteCount */\n      gt\n        /* \"BallotV2-J.sol\":1837:2008  if (proposals[prop].voteCount > winningVoteCount) {\r... */\n      iszero\n      tag_32\n      jumpi\n        /* \"BallotV2-J.sol\":1925:1934  proposals */\n      0x02\n        /* \"BallotV2-J.sol\":1935:1939  prop */\n      dup2\n        /* \"BallotV2-J.sol\":1925:1940  proposals[prop] */\n      0xff\n      and\n      dup2\n      sload\n      dup2\n      lt\n      tag_33\n      jumpi\n      invalid\n    tag_33:\n      swap1\n      0x00\n      mstore\n      keccak256(0x00, 0x20)\n      add\n        /* \"BallotV2-J.sol\":1925:1950  proposals[prop].voteCount */\n      0x00\n      add\n      sload\n        /* \"BallotV2-J.sol\":1906:1950  winningVoteCount = proposals[prop].voteCount */\n      swap2\n      pop\n        /* \"BallotV2-J.sol\":1988:1992  prop */\n      dup1\n        /* \"BallotV2-J.sol\":1969:1992  _winningProposal = prop */\n      swap3\n      pop\n        /* \"BallotV2-J.sol\":1837:2008  if (proposals[prop].voteCount > winningVoteCount) {\r... */\n    tag_32:\n        /* \"BallotV2-J.sol\":1816:1822  prop++ */\n      dup1\n      dup1\n      0x01\n      add\n      swap2\n      pop\n      pop\n        /* \"BallotV2-J.sol\":1770:2008  for (uint8 prop = 0; prop < proposals.length; prop++)\r... */\n      jump(tag_27)\n    tag_28:\n      pop\n        /* \"BallotV2-J.sol\":1587:2015  function winningProposal() public view returns (uint8 _winningProposal) {\r... */\n      pop\n    tag_23:\n      swap1\n      jump\t// out\n        /* \"BallotV2-J.sol\":1221:1579  function vote(uint8 toProposal) public {\r... */\n    tag_14:\n        /* \"BallotV2-J.sol\":1271:1291  Voter storage sender */\n      0x00\n        /* \"BallotV2-J.sol\":1294:1300  voters */\n      0x01\n        /* \"BallotV2-J.sol\":1294:1312  voters[msg.sender] */\n      0x00\n        /* \"BallotV2-J.sol\":1301:1311  msg.sender */\n      caller\n        /* \"BallotV2-J.sol\":1294:1312  voters[msg.sender] */\n      0xffffffffffffffffffffffffffffffffffffffff\n      and\n      0xffffffffffffffffffffffffffffffffffffffff\n      and\n      dup2\n      mstore\n      0x20\n      add\n      swap1\n      dup2\n      mstore\n      0x20\n      add\n      0x00\n      keccak256\n        /* \"BallotV2-J.sol\":1271:1312  Voter storage sender = voters[msg.sender] */\n      swap1\n      pop\n        /* \"BallotV2-J.sol\":1327:1333  sender */\n      dup1\n        /* \"BallotV2-J.sol\":1327:1339  sender.voted */\n      0x01\n      add\n      0x00\n      swap1\n      sload\n      swap1\n      0x0100\n      exp\n      swap1\n      div\n      0xff\n      and\n        /* \"BallotV2-J.sol\":1327:1373  sender.voted || toProposal >= proposals.length */\n      dup1\n      tag_36\n      jumpi\n      pop\n        /* \"BallotV2-J.sol\":1357:1366  proposals */\n      0x02\n        /* \"BallotV2-J.sol\":1357:1373  proposals.length */\n      dup1\n      sload\n      swap1\n      pop\n        /* \"BallotV2-J.sol\":1343:1353  toProposal */\n      dup3\n        /* \"BallotV2-J.sol\":1343:1373  toProposal >= proposals.length */\n      0xff\n      and\n      lt\n      iszero\n        /* \"BallotV2-J.sol\":1327:1373  sender.voted || toProposal >= proposals.length */\n    tag_36:\n        /* \"BallotV2-J.sol\":1323:1382  if (sender.voted || toProposal >= proposals.length) return; */\n      iszero\n      tag_37\n      jumpi\n        /* \"BallotV2-J.sol\":1375:1382  return; */\n      pop\n      jump(tag_35)\n        /* \"BallotV2-J.sol\":1323:1382  if (sender.voted || toProposal >= proposals.length) return; */\n    tag_37:\n        /* \"BallotV2-J.sol\":1407:1411  true */\n      0x01\n        /* \"BallotV2-J.sol\":1392:1398  sender */\n      dup2\n        /* \"BallotV2-J.sol\":1392:1404  sender.voted */\n      0x01\n      add\n      0x00\n        /* \"BallotV2-J.sol\":1392:1411  sender.voted = true */\n      0x0100\n      exp\n      dup2\n      sload\n      dup2\n      0xff\n      mul\n      not\n      and\n      swap1\n      dup4\n      iszero\n      iszero\n      mul\n      or\n      swap1\n      sstore\n      pop\n        /* \"BallotV2-J.sol\":1436:1446  toProposal */\n      dup2\n        /* \"BallotV2-J.sol\":1422:1428  sender */\n      dup2\n        /* \"BallotV2-J.sol\":1422:1433  sender.vote */\n      0x01\n      add\n      0x01\n        /* \"BallotV2-J.sol\":1422:1446  sender.vote = toProposal */\n      0x0100\n      exp\n      dup2\n      sload\n      dup2\n      0xff\n      mul\n      not\n      and\n      swap1\n      dup4\n      0xff\n      and\n      mul\n      or\n      swap1\n      sstore\n      pop\n        /* \"BallotV2-J.sol\":1492:1498  sender */\n      dup1\n        /* \"BallotV2-J.sol\":1492:1505  sender.weight */\n      0x00\n      add\n      sload\n        /* \"BallotV2-J.sol\":1457:1466  proposals */\n      0x02\n        /* \"BallotV2-J.sol\":1467:1477  toProposal */\n      dup4\n        /* \"BallotV2-J.sol\":1457:1478  proposals[toProposal] */\n      0xff\n      and\n      dup2\n      sload\n      dup2\n      lt\n      tag_38\n      jumpi\n      invalid\n    tag_38:\n      swap1\n      0x00\n      mstore\n      keccak256(0x00, 0x20)\n      add\n        /* \"BallotV2-J.sol\":1457:1488  proposals[toProposal].voteCount */\n      0x00\n      add\n      0x00\n        /* \"BallotV2-J.sol\":1457:1505  proposals[toProposal].voteCount += sender.weight */\n      dup3\n      dup3\n      sload\n      add\n      swap3\n      pop\n      pop\n      dup2\n      swap1\n      sstore\n      pop\n        /* \"BallotV2-J.sol\":1538:1548  10 seconds */\n      0x0a\n        /* \"BallotV2-J.sol\":1527:1536  startTime */\n      sload(0x03)\n        /* \"BallotV2-J.sol\":1527:1548  startTime+ 10 seconds */\n      add\n        /* \"BallotV2-J.sol\":1520:1523  now */\n      timestamp\n        /* \"BallotV2-J.sol\":1520:1549  now > (startTime+ 10 seconds) */\n      gt\n        /* \"BallotV2-J.sol\":1516:1572  if (now > (startTime+ 10 seconds)) {stage = Stage.Done;} */\n      iszero\n      tag_40\n      jumpi\n        /* \"BallotV2-J.sol\":1560:1570  Stage.Done */\n      0x03\n        /* \"BallotV2-J.sol\":1552:1557  stage */\n      0x00\n      dup1\n        /* \"BallotV2-J.sol\":1552:1570  stage = Stage.Done */\n      0x0100\n      exp\n      dup2\n      sload\n      dup2\n      0xff\n      mul\n      not\n      and\n      swap1\n      dup4\n      0x03\n      dup2\n      gt\n      iszero\n      tag_41\n      jumpi\n      invalid\n    tag_41:\n      mul\n      or\n      swap1\n      sstore\n      pop\n        /* \"BallotV2-J.sol\":1516:1572  if (now > (startTime+ 10 seconds)) {stage = Stage.Done;} */\n    tag_40:\n        /* \"BallotV2-J.sol\":1221:1579  function vote(uint8 toProposal) public {\r... */\n      pop\n    tag_35:\n      pop\n      jump\t// out\n        /* \"BallotV2-J.sol\":304:335  Stage public stage = Stage.Init */\n    tag_16:\n      0x00\n      dup1\n      swap1\n      sload\n      swap1\n      0x0100\n      exp\n      swap1\n      div\n      0xff\n      and\n      dup2\n      jump\t// out\n\n    auxdata: 0xa265627a7a72305820916dec6922fc2f63aef2e3489b3e87a8dcdbacb5bc3c59057164d2c4583e605a64736f6c63430005090032\n}\n",
				"bytecode": {
					"linkReferences": {},
					"object": "608060405260008060006101000a81548160ff0219169083600381111561002257fe5b021790555034801561003357600080fd5b506040516106613803806106618339818101604052602081101561005657600080fd5b810190808051906020019092919050505033600060016101000a81548173ffffffffffffffffffffffffffffffffffffffff021916908373ffffffffffffffffffffffffffffffffffffffff1602179055506002600160008060019054906101000a900473ffffffffffffffffffffffffffffffffffffffff1673ffffffffffffffffffffffffffffffffffffffff1673ffffffffffffffffffffffffffffffffffffffff168152602001908152602001600020600001819055508060ff166002816101229190610153565b5060016000806101000a81548160ff0219169083600381111561014157fe5b021790555042600381905550506101a6565b81548183558181111561017a57818360005260206000209182019101610179919061017f565b5b505050565b6101a391905b8082111561019f5760008082016000905550600101610185565b5090565b90565b6104ac806101b56000396000f3fe608060405234801561001057600080fd5b506004361061004c5760003560e01c80634420e48614610051578063609ff1bd14610095578063b3f98adc146100b9578063c040e6b8146100ea575b600080fd5b6100936004803603602081101561006757600080fd5b81019080803573ffffffffffffffffffffffffffffffffffffffff169060200190929190505050610116565b005b61009d6102a7565b604051808260ff1660ff16815260200191505060405180910390f35b6100e8600480360360208110156100cf57600080fd5b81019080803560ff169060200190929190505050610353565b005b6100f2610465565b6040518082600381111561010257fe5b60ff16815260200191505060405180910390f35b600060019054906101000a900473ffffffffffffffffffffffffffffffffffffffff1673ffffffffffffffffffffffffffffffffffffffff163373ffffffffffffffffffffffffffffffffffffffff161415806101bf5750600160008273ffffffffffffffffffffffffffffffffffffffff1673ffffffffffffffffffffffffffffffffffffffff16815260200190815260200160002060010160009054906101000a900460ff165b156101c9576102a4565b60018060008373ffffffffffffffffffffffffffffffffffffffff1673ffffffffffffffffffffffffffffffffffffffff168152602001908152602001600020600001819055506000600160008373ffffffffffffffffffffffffffffffffffffffff1673ffffffffffffffffffffffffffffffffffffffff16815260200190815260200160002060010160006101000a81548160ff021916908315150217905550600a600354014211156102a35760026000806101000a81548160ff0219169083600381111561029657fe5b0217905550426003819055505b5b50565b60006003808111156102b557fe5b6000809054906101000a900460ff1660038111156102cf57fe5b146102dc57809050610350565b600080905060008090505b6002805490508160ff16101561034d578160028260ff168154811061030857fe5b906000526020600020016000015411156103405760028160ff168154811061032c57fe5b906000526020600020016000015491508092505b80806001019150506102e7565b50505b90565b6000600160003373ffffffffffffffffffffffffffffffffffffffff1673ffffffffffffffffffffffffffffffffffffffff16815260200190815260200160002090508060010160009054906101000a900460ff16806103bb57506002805490508260ff1610155b156103c65750610462565b60018160010160006101000a81548160ff021916908315150217905550818160010160016101000a81548160ff021916908360ff160217905550806000015460028360ff168154811061041557fe5b9060005260206000200160000160008282540192505081905550600a600354014211156104605760036000806101000a81548160ff0219169083600381111561045a57fe5b02179055505b505b50565b6000809054906101000a900460ff168156fea265627a7a72305820916dec6922fc2f63aef2e3489b3e87a8dcdbacb5bc3c59057164d2c4583e605a64736f6c63430005090032",
					"opcodes": "PUSH1 0x80 PUSH1 0x40 MSTORE PUSH1 0x0 DUP1 PUSH1 0x0 PUSH2 0x100 EXP DUP2 SLOAD DUP2 PUSH1 0xFF MUL NOT AND SWAP1 DUP4 PUSH1 0x3 DUP2 GT ISZERO PUSH2 0x22 JUMPI INVALID JUMPDEST MUL OR SWAP1 SSTORE POP CALLVALUE DUP1 ISZERO PUSH2 0x33 JUMPI PUSH1 0x0 DUP1 REVERT JUMPDEST POP PUSH1 0x40 MLOAD PUSH2 0x661 CODESIZE SUB DUP1 PUSH2 0x661 DUP4 CODECOPY DUP2 DUP2 ADD PUSH1 0x40 MSTORE PUSH1 0x20 DUP2 LT ISZERO PUSH2 0x56 JUMPI PUSH1 0x0 DUP1 REVERT JUMPDEST DUP2 ADD SWAP1 DUP1 DUP1 MLOAD SWAP1 PUSH1 0x20 ADD SWAP1 SWAP3 SWAP2 SWAP1 POP POP POP CALLER PUSH1 0x0 PUSH1 0x1 PUSH2 0x100 EXP DUP2 SLOAD DUP2 PUSH20 0xFFFFFFFFFFFFFFFFFFFFFFFFFFFFFFFFFFFFFFFF MUL NOT AND SWAP1 DUP4 PUSH20 0xFFFFFFFFFFFFFFFFFFFFFFFFFFFFFFFFFFFFFFFF AND MUL OR SWAP1 SSTORE POP PUSH1 0x2 PUSH1 0x1 PUSH1 0x0 DUP1 PUSH1 0x1 SWAP1 SLOAD SWAP1 PUSH2 0x100 EXP SWAP1 DIV PUSH20 0xFFFFFFFFFFFFFFFFFFFFFFFFFFFFFFFFFFFFFFFF AND PUSH20 0xFFFFFFFFFFFFFFFFFFFFFFFFFFFFFFFFFFFFFFFF AND PUSH20 0xFFFFFFFFFFFFFFFFFFFFFFFFFFFFFFFFFFFFFFFF AND DUP2 MSTORE PUSH1 0x20 ADD SWAP1 DUP2 MSTORE PUSH1 0x20 ADD PUSH1 0x0 KECCAK256 PUSH1 0x0 ADD DUP2 SWAP1 SSTORE POP DUP1 PUSH1 0xFF AND PUSH1 0x2 DUP2 PUSH2 0x122 SWAP2 SWAP1 PUSH2 0x153 JUMP JUMPDEST POP PUSH1 0x1 PUSH1 0x0 DUP1 PUSH2 0x100 EXP DUP2 SLOAD DUP2 PUSH1 0xFF MUL NOT AND SWAP1 DUP4 PUSH1 0x3 DUP2 GT ISZERO PUSH2 0x141 JUMPI INVALID JUMPDEST MUL OR SWAP1 SSTORE POP TIMESTAMP PUSH1 0x3 DUP2 SWAP1 SSTORE POP POP PUSH2 0x1A6 JUMP JUMPDEST DUP2 SLOAD DUP2 DUP4 SSTORE DUP2 DUP2 GT ISZERO PUSH2 0x17A JUMPI DUP2 DUP4 PUSH1 0x0 MSTORE PUSH1 0x20 PUSH1 0x0 KECCAK256 SWAP2 DUP3 ADD SWAP2 ADD PUSH2 0x179 SWAP2 SWAP1 PUSH2 0x17F JUMP JUMPDEST JUMPDEST POP POP POP JUMP JUMPDEST PUSH2 0x1A3 SWAP2 SWAP1 JUMPDEST DUP1 DUP3 GT ISZERO PUSH2 0x19F JUMPI PUSH1 0x0 DUP1 DUP3 ADD PUSH1 0x0 SWAP1 SSTORE POP PUSH1 0x1 ADD PUSH2 0x185 JUMP JUMPDEST POP SWAP1 JUMP JUMPDEST SWAP1 JUMP JUMPDEST PUSH2 0x4AC DUP1 PUSH2 0x1B5 PUSH1 0x0 CODECOPY PUSH1 0x0 RETURN INVALID PUSH1 0x80 PUSH1 0x40 MSTORE CALLVALUE DUP1 ISZERO PUSH2 0x10 JUMPI PUSH1 0x0 DUP1 REVERT JUMPDEST POP PUSH1 0x4 CALLDATASIZE LT PUSH2 0x4C JUMPI PUSH1 0x0 CALLDATALOAD PUSH1 0xE0 SHR DUP1 PUSH4 0x4420E486 EQ PUSH2 0x51 JUMPI DUP1 PUSH4 0x609FF1BD EQ PUSH2 0x95 JUMPI DUP1 PUSH4 0xB3F98ADC EQ PUSH2 0xB9 JUMPI DUP1 PUSH4 0xC040E6B8 EQ PUSH2 0xEA JUMPI JUMPDEST PUSH1 0x0 DUP1 REVERT JUMPDEST PUSH2 0x93 PUSH1 0x4 DUP1 CALLDATASIZE SUB PUSH1 0x20 DUP2 LT ISZERO PUSH2 0x67 JUMPI PUSH1 0x0 DUP1 REVERT JUMPDEST DUP2 ADD SWAP1 DUP1 DUP1 CALLDATALOAD PUSH20 0xFFFFFFFFFFFFFFFFFFFFFFFFFFFFFFFFFFFFFFFF AND SWAP1 PUSH1 0x20 ADD SWAP1 SWAP3 SWAP2 SWAP1 POP POP POP PUSH2 0x116 JUMP JUMPDEST STOP JUMPDEST PUSH2 0x9D PUSH2 0x2A7 JUMP JUMPDEST PUSH1 0x40 MLOAD DUP1 DUP3 PUSH1 0xFF AND PUSH1 0xFF AND DUP2 MSTORE PUSH1 0x20 ADD SWAP2 POP POP PUSH1 0x40 MLOAD DUP1 SWAP2 SUB SWAP1 RETURN JUMPDEST PUSH2 0xE8 PUSH1 0x4 DUP1 CALLDATASIZE SUB PUSH1 0x20 DUP2 LT ISZERO PUSH2 0xCF JUMPI PUSH1 0x0 DUP1 REVERT JUMPDEST DUP2 ADD SWAP1 DUP1 DUP1 CALLDATALOAD PUSH1 0xFF AND SWAP1 PUSH1 0x20 ADD SWAP1 SWAP3 SWAP2 SWAP1 POP POP POP PUSH2 0x353 JUMP JUMPDEST STOP JUMPDEST PUSH2 0xF2 PUSH2 0x465 JUMP JUMPDEST PUSH1 0x40 MLOAD DUP1 DUP3 PUSH1 0x3 DUP2 GT ISZERO PUSH2 0x102 JUMPI INVALID JUMPDEST PUSH1 0xFF AND DUP2 MSTORE PUSH1 0x20 ADD SWAP2 POP POP PUSH1 0x40 MLOAD DUP1 SWAP2 SUB SWAP1 RETURN JUMPDEST PUSH1 0x0 PUSH1 0x1 SWAP1 SLOAD SWAP1 PUSH2 0x100 EXP SWAP1 DIV PUSH20 0xFFFFFFFFFFFFFFFFFFFFFFFFFFFFFFFFFFFFFFFF AND PUSH20 0xFFFFFFFFFFFFFFFFFFFFFFFFFFFFFFFFFFFFFFFF AND CALLER PUSH20 0xFFFFFFFFFFFFFFFFFFFFFFFFFFFFFFFFFFFFFFFF AND EQ ISZERO DUP1 PUSH2 0x1BF JUMPI POP PUSH1 0x1 PUSH1 0x0 DUP3 PUSH20 0xFFFFFFFFFFFFFFFFFFFFFFFFFFFFFFFFFFFFFFFF AND PUSH20 0xFFFFFFFFFFFFFFFFFFFFFFFFFFFFFFFFFFFFFFFF AND DUP2 MSTORE PUSH1 0x20 ADD SWAP1 DUP2 MSTORE PUSH1 0x20 ADD PUSH1 0x0 KECCAK256 PUSH1 0x1 ADD PUSH1 0x0 SWAP1 SLOAD SWAP1 PUSH2 0x100 EXP SWAP1 DIV PUSH1 0xFF AND JUMPDEST ISZERO PUSH2 0x1C9 JUMPI PUSH2 0x2A4 JUMP JUMPDEST PUSH1 0x1 DUP1 PUSH1 0x0 DUP4 PUSH20 0xFFFFFFFFFFFFFFFFFFFFFFFFFFFFFFFFFFFFFFFF AND PUSH20 0xFFFFFFFFFFFFFFFFFFFFFFFFFFFFFFFFFFFFFFFF AND DUP2 MSTORE PUSH1 0x20 ADD SWAP1 DUP2 MSTORE PUSH1 0x20 ADD PUSH1 0x0 KECCAK256 PUSH1 0x0 ADD DUP2 SWAP1 SSTORE POP PUSH1 0x0 PUSH1 0x1 PUSH1 0x0 DUP4 PUSH20 0xFFFFFFFFFFFFFFFFFFFFFFFFFFFFFFFFFFFFFFFF AND PUSH20 0xFFFFFFFFFFFFFFFFFFFFFFFFFFFFFFFFFFFFFFFF AND DUP2 MSTORE PUSH1 0x20 ADD SWAP1 DUP2 MSTORE PUSH1 0x20 ADD PUSH1 0x0 KECCAK256 PUSH1 0x1 ADD PUSH1 0x0 PUSH2 0x100 EXP DUP2 SLOAD DUP2 PUSH1 0xFF MUL NOT AND SWAP1 DUP4 ISZERO ISZERO MUL OR SWAP1 SSTORE POP PUSH1 0xA PUSH1 0x3 SLOAD ADD TIMESTAMP GT ISZERO PUSH2 0x2A3 JUMPI PUSH1 0x2 PUSH1 0x0 DUP1 PUSH2 0x100 EXP DUP2 SLOAD DUP2 PUSH1 0xFF MUL NOT AND SWAP1 DUP4 PUSH1 0x3 DUP2 GT ISZERO PUSH2 0x296 JUMPI INVALID JUMPDEST MUL OR SWAP1 SSTORE POP TIMESTAMP PUSH1 0x3 DUP2 SWAP1 SSTORE POP JUMPDEST JUMPDEST POP JUMP JUMPDEST PUSH1 0x0 PUSH1 0x3 DUP1 DUP2 GT ISZERO PUSH2 0x2B5 JUMPI INVALID JUMPDEST PUSH1 0x0 DUP1 SWAP1 SLOAD SWAP1 PUSH2 0x100 EXP SWAP1 DIV PUSH1 0xFF AND PUSH1 0x3 DUP2 GT ISZERO PUSH2 0x2CF JUMPI INVALID JUMPDEST EQ PUSH2 0x2DC JUMPI DUP1 SWAP1 POP PUSH2 0x350 JUMP JUMPDEST PUSH1 0x0 DUP1 SWAP1 POP PUSH1 0x0 DUP1 SWAP1 POP JUMPDEST PUSH1 0x2 DUP1 SLOAD SWAP1 POP DUP2 PUSH1 0xFF AND LT ISZERO PUSH2 0x34D JUMPI DUP2 PUSH1 0x2 DUP3 PUSH1 0xFF AND DUP2 SLOAD DUP2 LT PUSH2 0x308 JUMPI INVALID JUMPDEST SWAP1 PUSH1 0x0 MSTORE PUSH1 0x20 PUSH1 0x0 KECCAK256 ADD PUSH1 0x0 ADD SLOAD GT ISZERO PUSH2 0x340 JUMPI PUSH1 0x2 DUP2 PUSH1 0xFF AND DUP2 SLOAD DUP2 LT PUSH2 0x32C JUMPI INVALID JUMPDEST SWAP1 PUSH1 0x0 MSTORE PUSH1 0x20 PUSH1 0x0 KECCAK256 ADD PUSH1 0x0 ADD SLOAD SWAP2 POP DUP1 SWAP3 POP JUMPDEST DUP1 DUP1 PUSH1 0x1 ADD SWAP2 POP POP PUSH2 0x2E7 JUMP JUMPDEST POP POP JUMPDEST SWAP1 JUMP JUMPDEST PUSH1 0x0 PUSH1 0x1 PUSH1 0x0 CALLER PUSH20 0xFFFFFFFFFFFFFFFFFFFFFFFFFFFFFFFFFFFFFFFF AND PUSH20 0xFFFFFFFFFFFFFFFFFFFFFFFFFFFFFFFFFFFFFFFF AND DUP2 MSTORE PUSH1 0x20 ADD SWAP1 DUP2 MSTORE PUSH1 0x20 ADD PUSH1 0x0 KECCAK256 SWAP1 POP DUP1 PUSH1 0x1 ADD PUSH1 0x0 SWAP1 SLOAD SWAP1 PUSH2 0x100 EXP SWAP1 DIV PUSH1 0xFF AND DUP1 PUSH2 0x3BB JUMPI POP PUSH1 0x2 DUP1 SLOAD SWAP1 POP DUP3 PUSH1 0xFF AND LT ISZERO JUMPDEST ISZERO PUSH2 0x3C6 JUMPI POP PUSH2 0x462 JUMP JUMPDEST PUSH1 0x1 DUP2 PUSH1 0x1 ADD PUSH1 0x0 PUSH2 0x100 EXP DUP2 SLOAD DUP2 PUSH1 0xFF MUL NOT AND SWAP1 DUP4 ISZERO ISZERO MUL OR SWAP1 SSTORE POP DUP2 DUP2 PUSH1 0x1 ADD PUSH1 0x1 PUSH2 0x100 EXP DUP2 SLOAD DUP2 PUSH1 0xFF MUL NOT AND SWAP1 DUP4 PUSH1 0xFF AND MUL OR SWAP1 SSTORE POP DUP1 PUSH1 0x0 ADD SLOAD PUSH1 0x2 DUP4 PUSH1 0xFF AND DUP2 SLOAD DUP2 LT PUSH2 0x415 JUMPI INVALID JUMPDEST SWAP1 PUSH1 0x0 MSTORE PUSH1 0x20 PUSH1 0x0 KECCAK256 ADD PUSH1 0x0 ADD PUSH1 0x0 DUP3 DUP3 SLOAD ADD SWAP3 POP POP DUP2 SWAP1 SSTORE POP PUSH1 0xA PUSH1 0x3 SLOAD ADD TIMESTAMP GT ISZERO PUSH2 0x460 JUMPI PUSH1 0x3 PUSH1 0x0 DUP1 PUSH2 0x100 EXP DUP2 SLOAD DUP2 PUSH1 0xFF MUL NOT AND SWAP1 DUP4 PUSH1 0x3 DUP2 GT ISZERO PUSH2 0x45A JUMPI INVALID JUMPDEST MUL OR SWAP1 SSTORE POP JUMPDEST POP JUMPDEST POP JUMP JUMPDEST PUSH1 0x0 DUP1 SWAP1 SLOAD SWAP1 PUSH2 0x100 EXP SWAP1 DIV PUSH1 0xFF AND DUP2 JUMP INVALID LOG2 PUSH6 0x627A7A723058 KECCAK256 SWAP2 PUSH14 0xEC6922FC2F63AEF2E3489B3E87A8 0xdc 0xdb 0xac 0xb5 0xbc EXTCODECOPY MSIZE SDIV PUSH18 0x64D2C4583E605A64736F6C63430005090032 "
				},
				"gasEstimates": {
					"creation": {
						"codeDepositCost": "239200",
						"executionCost": "infinite",
						"totalCost": "infinite"
					},
					"external": {
						"register(address)": "81897",
						"stage()": "517",
						"vote(uint8)": "82711",
						"winningProposal()": "infinite"
					}
				},
				"methodIdentifiers": {
					"register(address)": "4420e486",
					"stage()": "c040e6b8",
					"vote(uint8)": "b3f98adc",
					"winningProposal()": "609ff1bd"
				}
			},
			"userdoc": {
				"methods": {
					"constructor": "Create a new ballot with $(_numProposals) different proposals.",
					"register(address)": {
						"notice": "May only be called by $(chairperson)."
					},
					"vote(uint8)": {
						"notice": "Give a single vote to proposal $(toProposal)."
					}
				}
			}
		}
	}
}