{
	"BallotV3-J.sol": {
		"Ballot": {
			"abi": [
				{
					"constant": false,
					"inputs": [
						{
							"name": "toVoter",
							"type": "address"
						}
					],
					"name": "register",
					"outputs": [],
					"payable": false,
					"stateMutability": "nonpayable",
					"type": "function"
				},
				{
					"constant": true,
					"inputs": [],
					"name": "winningProposal",
					"outputs": [
						{
							"name": "_winningProposal",
							"type": "uint8"
						}
					],
					"payable": false,
					"stateMutability": "view",
					"type": "function"
				},
				{
					"constant": false,
					"inputs": [
						{
							"name": "toProposal",
							"type": "uint8"
						}
					],
					"name": "vote",
					"outputs": [],
					"payable": false,
					"stateMutability": "nonpayable",
					"type": "function"
				},
				{
					"constant": true,
					"inputs": [],
					"name": "stage",
					"outputs": [
						{
							"name": "",
							"type": "uint8"
						}
					],
					"payable": false,
					"stateMutability": "view",
					"type": "function"
				},
				{
					"inputs": [
						{
							"name": "_numProposals",
							"type": "uint8"
						}
					],
					"payable": false,
					"stateMutability": "nonpayable",
					"type": "constructor"
				},
				{
					"anonymous": false,
					"inputs": [],
					"name": "votingCompleted",
					"type": "event"
				}
			],
			"devdoc": {
				"methods": {}
			},
			"evm": {
				"assembly": "    /* \"BallotV3-J.sol\":25:2367  contract Ballot {\r... */\n  mstore(0x40, 0x80)\n    /* \"BallotV3-J.sol\":324:334  Stage.Init */\n  0x00\n    /* \"BallotV3-J.sol\":303:334  Stage public stage = Stage.Init */\n  dup1\n  exp(0x0100, 0x00)\n  dup2\n  sload\n  dup2\n  0xff\n  mul\n  not\n  and\n  swap1\n  dup4\n  0x03\n  dup2\n  gt\n  iszero\n  tag_1\n  jumpi\n  invalid\ntag_1:\n  mul\n  or\n  swap1\n  sstore\n  pop\n    /* \"BallotV3-J.sol\":674:896  constructor(uint8 _numProposals) public  {\r... */\n  callvalue\n    /* \"--CODEGEN--\":8:17   */\n  dup1\n    /* \"--CODEGEN--\":5:7   */\n  iszero\n  tag_2\n  jumpi\n    /* \"--CODEGEN--\":30:31   */\n  0x00\n    /* \"--CODEGEN--\":27:28   */\n  dup1\n    /* \"--CODEGEN--\":20:32   */\n  revert\n    /* \"--CODEGEN--\":5:7   */\ntag_2:\n    /* \"BallotV3-J.sol\":674:896  constructor(uint8 _numProposals) public  {\r... */\n  pop\n  mload(0x40)\n  sub(codesize, bytecodeSize)\n  dup1\n  bytecodeSize\n  dup4\n  codecopy\n  dup2\n  dup2\n  add\n  0x40\n  mstore\n    /* \"--CODEGEN--\":13:15   */\n  0x20\n    /* \"--CODEGEN--\":8:11   */\n  dup2\n    /* \"--CODEGEN--\":5:16   */\n  lt\n    /* \"--CODEGEN--\":2:4   */\n  iszero\n  tag_3\n  jumpi\n    /* \"--CODEGEN--\":29:30   */\n  0x00\n    /* \"--CODEGEN--\":26:27   */\n  dup1\n    /* \"--CODEGEN--\":19:31   */\n  revert\n    /* \"--CODEGEN--\":2:4   */\ntag_3:\n    /* \"BallotV3-J.sol\":674:896  constructor(uint8 _numProposals) public  {\r... */\n  dup2\n  add\n  swap1\n  dup1\n  dup1\n  mload\n  swap1\n  0x20\n  add\n  swap1\n  swap3\n  swap2\n  swap1\n  pop\n  pop\n  pop\n    /* \"BallotV3-J.sol\":740:750  msg.sender */\n  caller\n    /* \"BallotV3-J.sol\":726:737  chairperson */\n  0x00\n  0x01\n    /* \"BallotV3-J.sol\":726:750  chairperson = msg.sender */\n  0x0100\n  exp\n  dup2\n  sload\n  dup2\n  0xffffffffffffffffffffffffffffffffffffffff\n  mul\n  not\n  and\n  swap1\n  dup4\n  0xffffffffffffffffffffffffffffffffffffffff\n  and\n  mul\n  or\n  swap1\n  sstore\n  pop\n    /* \"BallotV3-J.sol\":790:791  2 */\n  0x02\n    /* \"BallotV3-J.sol\":761:767  voters */\n  0x01\n    /* \"BallotV3-J.sol\":761:780  voters[chairperson] */\n  0x00\n    /* \"BallotV3-J.sol\":768:779  chairperson */\n  dup1\n  0x01\n  swap1\n  sload\n  swap1\n  0x0100\n  exp\n  swap1\n  div\n  0xffffffffffffffffffffffffffffffffffffffff\n  and\n    /* \"BallotV3-J.sol\":761:780  voters[chairperson] */\n  0xffffffffffffffffffffffffffffffffffffffff\n  and\n  0xffffffffffffffffffffffffffffffffffffffff\n  and\n  dup2\n  mstore\n  0x20\n  add\n  swap1\n  dup2\n  mstore\n  0x20\n  add\n  0x00\n  keccak256\n    /* \"BallotV3-J.sol\":761:787  voters[chairperson].weight */\n  0x00\n  add\n    /* \"BallotV3-J.sol\":761:791  voters[chairperson].weight = 2 */\n  dup2\n  swap1\n  sstore\n  pop\n    /* \"BallotV3-J.sol\":821:834  _numProposals */\n  dup1\n    /* \"BallotV3-J.sol\":802:834  proposals.length = _numProposals */\n  0xff\n  and\n    /* \"BallotV3-J.sol\":802:811  proposals */\n  0x02\n    /* \"BallotV3-J.sol\":802:834  proposals.length = _numProposals */\n  dup2\n  tag_6\n  swap2\n  swap1\n  tag_7\n  jump\t// in\ntag_6:\n  pop\n    /* \"BallotV3-J.sol\":853:862  Stage.Reg */\n  0x01\n    /* \"BallotV3-J.sol\":845:850  stage */\n  0x00\n  dup1\n    /* \"BallotV3-J.sol\":845:862  stage = Stage.Reg */\n  0x0100\n  exp\n  dup2\n  sload\n  dup2\n  0xff\n  mul\n  not\n  and\n  swap1\n  dup4\n  0x03\n  dup2\n  gt\n  iszero\n  tag_8\n  jumpi\n  invalid\ntag_8:\n  mul\n  or\n  swap1\n  sstore\n  pop\n    /* \"BallotV3-J.sol\":885:888  now */\n  timestamp\n    /* \"BallotV3-J.sol\":873:882  startTime */\n  0x03\n    /* \"BallotV3-J.sol\":873:888  startTime = now */\n  dup2\n  swap1\n  sstore\n  pop\n    /* \"BallotV3-J.sol\":674:896  constructor(uint8 _numProposals) public  {\r... */\n  pop\n    /* \"BallotV3-J.sol\":25:2367  contract Ballot {\r... */\n  jump(tag_9)\ntag_7:\n  dup2\n  sload\n  dup2\n  dup4\n  sstore\n  dup2\n  dup2\n  gt\n  iszero\n  tag_10\n  jumpi\n  dup2\n  dup4\n  0x00\n  mstore\n  keccak256(0x00, 0x20)\n  swap2\n  dup3\n  add\n  swap2\n  add\n  tag_11\n  swap2\n  swap1\n  tag_12\n  jump\t// in\ntag_11:\ntag_10:\n  pop\n  pop\n  pop\n  jump\t// out\ntag_12:\n  tag_13\n  swap2\n  swap1\ntag_14:\n  dup1\n  dup3\n  gt\n  iszero\n  tag_15\n  jumpi\n  0x00\n  dup1\n  dup3\n  add\n  0x00\n  swap1\n  sstore\n  pop\n  0x01\n  add\n  jump(tag_14)\ntag_15:\n  pop\n  swap1\n  jump\ntag_13:\n  swap1\n  jump\t// out\ntag_9:\n  dataSize(sub_0)\n  dup1\n  dataOffset(sub_0)\n  0x00\n  codecopy\n  0x00\n  return\nstop\n\nsub_0: assembly {\n        /* \"BallotV3-J.sol\":25:2367  contract Ballot {\r... */\n      mstore(0x40, 0x80)\n      callvalue\n        /* \"--CODEGEN--\":8:17   */\n      dup1\n        /* \"--CODEGEN--\":5:7   */\n      iszero\n      tag_1\n      jumpi\n        /* \"--CODEGEN--\":30:31   */\n      0x00\n        /* \"--CODEGEN--\":27:28   */\n      dup1\n        /* \"--CODEGEN--\":20:32   */\n      revert\n        /* \"--CODEGEN--\":5:7   */\n    tag_1:\n        /* \"BallotV3-J.sol\":25:2367  contract Ballot {\r... */\n      pop\n      jumpi(tag_2, lt(calldatasize, 0x04))\n      shr(0xe0, calldataload(0x00))\n      dup1\n      0x4420e486\n      eq\n      tag_3\n      jumpi\n      dup1\n      0x609ff1bd\n      eq\n      tag_4\n      jumpi\n      dup1\n      0xb3f98adc\n      eq\n      tag_5\n      jumpi\n      dup1\n      0xc040e6b8\n      eq\n      tag_6\n      jumpi\n    tag_2:\n      0x00\n      dup1\n      revert\n        /* \"BallotV3-J.sol\":1010:1345  function register(address toVoter) public validStage(Stage.Reg) {\r... */\n    tag_3:\n      tag_7\n      0x04\n      dup1\n      calldatasize\n      sub\n        /* \"--CODEGEN--\":13:15   */\n      0x20\n        /* \"--CODEGEN--\":8:11   */\n      dup2\n        /* \"--CODEGEN--\":5:16   */\n      lt\n        /* \"--CODEGEN--\":2:4   */\n      iszero\n      tag_8\n      jumpi\n        /* \"--CODEGEN--\":29:30   */\n      0x00\n        /* \"--CODEGEN--\":26:27   */\n      dup1\n        /* \"--CODEGEN--\":19:31   */\n      revert\n        /* \"--CODEGEN--\":2:4   */\n    tag_8:\n        /* \"BallotV3-J.sol\":1010:1345  function register(address toVoter) public validStage(Stage.Reg) {\r... */\n      dup2\n      add\n      swap1\n      dup1\n      dup1\n      calldataload\n      0xffffffffffffffffffffffffffffffffffffffff\n      and\n      swap1\n      0x20\n      add\n      swap1\n      swap3\n      swap2\n      swap1\n      pop\n      pop\n      pop\n      tag_9\n      jump\t// in\n    tag_7:\n      stop\n        /* \"BallotV3-J.sol\":1871:2364  function winningProposal() public validStage(Stage.Done) view returns (uint8 _winningProposal) {\r... */\n    tag_4:\n      tag_10\n      tag_11\n      jump\t// in\n    tag_10:\n      mload(0x40)\n      dup1\n      dup3\n      0xff\n      and\n      0xff\n      and\n      dup2\n      mstore\n      0x20\n      add\n      swap2\n      pop\n      pop\n      mload(0x40)\n      dup1\n      swap2\n      sub\n      swap1\n      return\n        /* \"BallotV3-J.sol\":1408:1863  function vote(uint8 toProposal) public validStage(Stage.Vote)  {\r... */\n    tag_5:\n      tag_12\n      0x04\n      dup1\n      calldatasize\n      sub\n        /* \"--CODEGEN--\":13:15   */\n      0x20\n        /* \"--CODEGEN--\":8:11   */\n      dup2\n        /* \"--CODEGEN--\":5:16   */\n      lt\n        /* \"--CODEGEN--\":2:4   */\n      iszero\n      tag_13\n      jumpi\n        /* \"--CODEGEN--\":29:30   */\n      0x00\n        /* \"--CODEGEN--\":26:27   */\n      dup1\n        /* \"--CODEGEN--\":19:31   */\n      revert\n        /* \"--CODEGEN--\":2:4   */\n    tag_13:\n        /* \"BallotV3-J.sol\":1408:1863  function vote(uint8 toProposal) public validStage(Stage.Vote)  {\r... */\n      dup2\n      add\n      swap1\n      dup1\n      dup1\n      calldataload\n      0xff\n      and\n      swap1\n      0x20\n      add\n      swap1\n      swap3\n      swap2\n      swap1\n      pop\n      pop\n      pop\n      tag_14\n      jump\t// in\n    tag_12:\n      stop\n        /* \"BallotV3-J.sol\":303:334  Stage public stage = Stage.Init */\n    tag_6:\n      tag_15\n      tag_16\n      jump\t// in\n    tag_15:\n      mload(0x40)\n      dup1\n      dup3\n      0x03\n      dup2\n      gt\n      iszero\n      tag_17\n      jumpi\n      invalid\n    tag_17:\n      0xff\n      and\n      dup2\n      mstore\n      0x20\n      add\n      swap2\n      pop\n      pop\n      mload(0x40)\n      dup1\n      swap2\n      sub\n      swap1\n      return\n        /* \"BallotV3-J.sol\":1010:1345  function register(address toVoter) public validStage(Stage.Reg) {\r... */\n    tag_9:\n        /* \"BallotV3-J.sol\":1063:1072  Stage.Reg */\n      0x01\n        /* \"BallotV3-J.sol\":567:575  reqStage */\n      dup1\n        /* \"BallotV3-J.sol\":558:575  stage == reqStage */\n      0x03\n      dup2\n      gt\n      iszero\n      tag_19\n      jumpi\n      invalid\n    tag_19:\n        /* \"BallotV3-J.sol\":558:563  stage */\n      0x00\n      dup1\n      swap1\n      sload\n      swap1\n      0x0100\n      exp\n      swap1\n      div\n      0xff\n      and\n        /* \"BallotV3-J.sol\":558:575  stage == reqStage */\n      0x03\n      dup2\n      gt\n      iszero\n      tag_20\n      jumpi\n      invalid\n    tag_20:\n      eq\n        /* \"BallotV3-J.sol\":550:576  require(stage == reqStage) */\n      tag_21\n      jumpi\n      0x00\n      dup1\n      revert\n    tag_21:\n        /* \"BallotV3-J.sol\":1148:1159  chairperson */\n      0x00\n      0x01\n      swap1\n      sload\n      swap1\n      0x0100\n      exp\n      swap1\n      div\n      0xffffffffffffffffffffffffffffffffffffffff\n      and\n        /* \"BallotV3-J.sol\":1134:1159  msg.sender != chairperson */\n      0xffffffffffffffffffffffffffffffffffffffff\n      and\n        /* \"BallotV3-J.sol\":1134:1144  msg.sender */\n      caller\n        /* \"BallotV3-J.sol\":1134:1159  msg.sender != chairperson */\n      0xffffffffffffffffffffffffffffffffffffffff\n      and\n      eq\n      iszero\n        /* \"BallotV3-J.sol\":1134:1184  msg.sender != chairperson || voters[toVoter].voted */\n      dup1\n      tag_23\n      jumpi\n      pop\n        /* \"BallotV3-J.sol\":1163:1169  voters */\n      0x01\n        /* \"BallotV3-J.sol\":1163:1178  voters[toVoter] */\n      0x00\n        /* \"BallotV3-J.sol\":1170:1177  toVoter */\n      dup4\n        /* \"BallotV3-J.sol\":1163:1178  voters[toVoter] */\n      0xffffffffffffffffffffffffffffffffffffffff\n      and\n      0xffffffffffffffffffffffffffffffffffffffff\n      and\n      dup2\n      mstore\n      0x20\n      add\n      swap1\n      dup2\n      mstore\n      0x20\n      add\n      0x00\n      keccak256\n        /* \"BallotV3-J.sol\":1163:1184  voters[toVoter].voted */\n      0x01\n      add\n      0x00\n      swap1\n      sload\n      swap1\n      0x0100\n      exp\n      swap1\n      div\n      0xff\n      and\n        /* \"BallotV3-J.sol\":1134:1184  msg.sender != chairperson || voters[toVoter].voted */\n    tag_23:\n        /* \"BallotV3-J.sol\":1130:1193  if (msg.sender != chairperson || voters[toVoter].voted) return; */\n      iszero\n      tag_24\n      jumpi\n        /* \"BallotV3-J.sol\":1186:1193  return; */\n      jump(tag_22)\n        /* \"BallotV3-J.sol\":1130:1193  if (msg.sender != chairperson || voters[toVoter].voted) return; */\n    tag_24:\n        /* \"BallotV3-J.sol\":1228:1229  1 */\n      0x01\n        /* \"BallotV3-J.sol\":1203:1209  voters */\n      dup1\n        /* \"BallotV3-J.sol\":1203:1218  voters[toVoter] */\n      0x00\n        /* \"BallotV3-J.sol\":1210:1217  toVoter */\n      dup5\n        /* \"BallotV3-J.sol\":1203:1218  voters[toVoter] */\n      0xffffffffffffffffffffffffffffffffffffffff\n      and\n      0xffffffffffffffffffffffffffffffffffffffff\n      and\n      dup2\n      mstore\n      0x20\n      add\n      swap1\n      dup2\n      mstore\n      0x20\n      add\n      0x00\n      keccak256\n        /* \"BallotV3-J.sol\":1203:1225  voters[toVoter].weight */\n      0x00\n      add\n        /* \"BallotV3-J.sol\":1203:1229  voters[toVoter].weight = 1 */\n      dup2\n      swap1\n      sstore\n      pop\n        /* \"BallotV3-J.sol\":1264:1269  false */\n      0x00\n        /* \"BallotV3-J.sol\":1240:1246  voters */\n      0x01\n        /* \"BallotV3-J.sol\":1240:1255  voters[toVoter] */\n      0x00\n        /* \"BallotV3-J.sol\":1247:1254  toVoter */\n      dup5\n        /* \"BallotV3-J.sol\":1240:1255  voters[toVoter] */\n      0xffffffffffffffffffffffffffffffffffffffff\n      and\n      0xffffffffffffffffffffffffffffffffffffffff\n      and\n      dup2\n      mstore\n      0x20\n      add\n      swap1\n      dup2\n      mstore\n      0x20\n      add\n      0x00\n      keccak256\n        /* \"BallotV3-J.sol\":1240:1261  voters[toVoter].voted */\n      0x01\n      add\n      0x00\n        /* \"BallotV3-J.sol\":1240:1269  voters[toVoter].voted = false */\n      0x0100\n      exp\n      dup2\n      sload\n      dup2\n      0xff\n      mul\n      not\n      and\n      swap1\n      dup4\n      iszero\n      iszero\n      mul\n      or\n      swap1\n      sstore\n      pop\n        /* \"BallotV3-J.sol\":1303:1313  30 seconds */\n      0x1e\n        /* \"BallotV3-J.sol\":1292:1301  startTime */\n      sload(0x03)\n        /* \"BallotV3-J.sol\":1292:1313  startTime+ 30 seconds */\n      add\n        /* \"BallotV3-J.sol\":1285:1288  now */\n      timestamp\n        /* \"BallotV3-J.sol\":1285:1314  now > (startTime+ 30 seconds) */\n      gt\n        /* \"BallotV3-J.sol\":1281:1338  if (now > (startTime+ 30 seconds)) {stage = Stage.Vote; } */\n      iszero\n      tag_25\n      jumpi\n        /* \"BallotV3-J.sol\":1325:1335  Stage.Vote */\n      0x02\n        /* \"BallotV3-J.sol\":1317:1322  stage */\n      0x00\n      dup1\n        /* \"BallotV3-J.sol\":1317:1335  stage = Stage.Vote */\n      0x0100\n      exp\n      dup2\n      sload\n      dup2\n      0xff\n      mul\n      not\n      and\n      swap1\n      dup4\n      0x03\n      dup2\n      gt\n      iszero\n      tag_26\n      jumpi\n      invalid\n    tag_26:\n      mul\n      or\n      swap1\n      sstore\n      pop\n        /* \"BallotV3-J.sol\":1281:1338  if (now > (startTime+ 30 seconds)) {stage = Stage.Vote; } */\n    tag_25:\n        /* \"BallotV3-J.sol\":583:584  _ */\n    tag_22:\n        /* \"BallotV3-J.sol\":1010:1345  function register(address toVoter) public validStage(Stage.Reg) {\r... */\n      pop\n      pop\n      jump\t// out\n        /* \"BallotV3-J.sol\":1871:2364  function winningProposal() public validStage(Stage.Done) view returns (uint8 _winningProposal) {\r... */\n    tag_11:\n        /* \"BallotV3-J.sol\":1942:1964  uint8 _winningProposal */\n      0x00\n        /* \"BallotV3-J.sol\":1916:1926  Stage.Done */\n      0x03\n        /* \"BallotV3-J.sol\":567:575  reqStage */\n      dup1\n        /* \"BallotV3-J.sol\":558:575  stage == reqStage */\n      0x03\n      dup2\n      gt\n      iszero\n      tag_28\n      jumpi\n      invalid\n    tag_28:\n        /* \"BallotV3-J.sol\":558:563  stage */\n      0x00\n      dup1\n      swap1\n      sload\n      swap1\n      0x0100\n      exp\n      swap1\n      div\n      0xff\n      and\n        /* \"BallotV3-J.sol\":558:575  stage == reqStage */\n      0x03\n      dup2\n      gt\n      iszero\n      tag_29\n      jumpi\n      invalid\n    tag_29:\n      eq\n        /* \"BallotV3-J.sol\":550:576  require(stage == reqStage) */\n      tag_30\n      jumpi\n      0x00\n      dup1\n      revert\n    tag_30:\n        /* \"BallotV3-J.sol\":2022:2046  uint256 winningVoteCount */\n      0x00\n        /* \"BallotV3-J.sol\":2049:2050  0 */\n      dup1\n        /* \"BallotV3-J.sol\":2022:2050  uint256 winningVoteCount = 0 */\n      swap1\n      pop\n        /* \"BallotV3-J.sol\":2066:2076  uint8 prop */\n      0x00\n        /* \"BallotV3-J.sol\":2079:2080  0 */\n      dup1\n        /* \"BallotV3-J.sol\":2066:2080  uint8 prop = 0 */\n      swap1\n      pop\n        /* \"BallotV3-J.sol\":2061:2299  for (uint8 prop = 0; prop < proposals.length; prop++)\r... */\n    tag_32:\n        /* \"BallotV3-J.sol\":2089:2098  proposals */\n      0x02\n        /* \"BallotV3-J.sol\":2089:2105  proposals.length */\n      dup1\n      sload\n      swap1\n      pop\n        /* \"BallotV3-J.sol\":2082:2086  prop */\n      dup2\n        /* \"BallotV3-J.sol\":2082:2105  prop < proposals.length */\n      0xff\n      and\n      lt\n        /* \"BallotV3-J.sol\":2061:2299  for (uint8 prop = 0; prop < proposals.length; prop++)\r... */\n      iszero\n      tag_33\n      jumpi\n        /* \"BallotV3-J.sol\":2160:2176  winningVoteCount */\n      dup2\n        /* \"BallotV3-J.sol\":2132:2141  proposals */\n      0x02\n        /* \"BallotV3-J.sol\":2142:2146  prop */\n      dup3\n        /* \"BallotV3-J.sol\":2132:2147  proposals[prop] */\n      0xff\n      and\n      dup2\n      sload\n      dup2\n      lt\n      tag_35\n      jumpi\n      invalid\n    tag_35:\n      swap1\n      0x00\n      mstore\n      keccak256(0x00, 0x20)\n      add\n        /* \"BallotV3-J.sol\":2132:2157  proposals[prop].voteCount */\n      0x00\n      add\n      sload\n        /* \"BallotV3-J.sol\":2132:2176  proposals[prop].voteCount > winningVoteCount */\n      gt\n        /* \"BallotV3-J.sol\":2128:2299  if (proposals[prop].voteCount > winningVoteCount) {\r... */\n      iszero\n      tag_37\n      jumpi\n        /* \"BallotV3-J.sol\":2216:2225  proposals */\n      0x02\n        /* \"BallotV3-J.sol\":2226:2230  prop */\n      dup2\n        /* \"BallotV3-J.sol\":2216:2231  proposals[prop] */\n      0xff\n      and\n      dup2\n      sload\n      dup2\n      lt\n      tag_38\n      jumpi\n      invalid\n    tag_38:\n      swap1\n      0x00\n      mstore\n      keccak256(0x00, 0x20)\n      add\n        /* \"BallotV3-J.sol\":2216:2241  proposals[prop].voteCount */\n      0x00\n      add\n      sload\n        /* \"BallotV3-J.sol\":2197:2241  winningVoteCount = proposals[prop].voteCount */\n      swap2\n      pop\n        /* \"BallotV3-J.sol\":2279:2283  prop */\n      dup1\n        /* \"BallotV3-J.sol\":2260:2283  _winningProposal = prop */\n      swap4\n      pop\n        /* \"BallotV3-J.sol\":2128:2299  if (proposals[prop].voteCount > winningVoteCount) {\r... */\n    tag_37:\n        /* \"BallotV3-J.sol\":2107:2113  prop++ */\n      dup1\n      dup1\n      0x01\n      add\n      swap2\n      pop\n      pop\n        /* \"BallotV3-J.sol\":2061:2299  for (uint8 prop = 0; prop < proposals.length; prop++)\r... */\n      jump(tag_32)\n    tag_33:\n      pop\n        /* \"BallotV3-J.sol\":2340:2341  0 */\n      0x00\n        /* \"BallotV3-J.sol\":2321:2337  winningVoteCount */\n      dup2\n        /* \"BallotV3-J.sol\":2321:2341  winningVoteCount > 0 */\n      gt\n        /* \"BallotV3-J.sol\":2313:2342  assert (winningVoteCount > 0) */\n      tag_40\n      jumpi\n      invalid\n    tag_40:\n        /* \"BallotV3-J.sol\":583:584  _ */\n      pop\n        /* \"BallotV3-J.sol\":1871:2364  function winningProposal() public validStage(Stage.Done) view returns (uint8 _winningProposal) {\r... */\n      pop\n      swap1\n      jump\t// out\n        /* \"BallotV3-J.sol\":1408:1863  function vote(uint8 toProposal) public validStage(Stage.Vote)  {\r... */\n    tag_14:\n        /* \"BallotV3-J.sol\":1458:1468  Stage.Vote */\n      0x02\n        /* \"BallotV3-J.sol\":567:575  reqStage */\n      dup1\n        /* \"BallotV3-J.sol\":558:575  stage == reqStage */\n      0x03\n      dup2\n      gt\n      iszero\n      tag_42\n      jumpi\n      invalid\n    tag_42:\n        /* \"BallotV3-J.sol\":558:563  stage */\n      0x00\n      dup1\n      swap1\n      sload\n      swap1\n      0x0100\n      exp\n      swap1\n      div\n      0xff\n      and\n        /* \"BallotV3-J.sol\":558:575  stage == reqStage */\n      0x03\n      dup2\n      gt\n      iszero\n      tag_43\n      jumpi\n      invalid\n    tag_43:\n      eq\n        /* \"BallotV3-J.sol\":550:576  require(stage == reqStage) */\n      tag_44\n      jumpi\n      0x00\n      dup1\n      revert\n    tag_44:\n        /* \"BallotV3-J.sol\":1529:1549  Voter storage sender */\n      0x00\n        /* \"BallotV3-J.sol\":1552:1558  voters */\n      0x01\n        /* \"BallotV3-J.sol\":1552:1570  voters[msg.sender] */\n      0x00\n        /* \"BallotV3-J.sol\":1559:1569  msg.sender */\n      caller\n        /* \"BallotV3-J.sol\":1552:1570  voters[msg.sender] */\n      0xffffffffffffffffffffffffffffffffffffffff\n      and\n      0xffffffffffffffffffffffffffffffffffffffff\n      and\n      dup2\n      mstore\n      0x20\n      add\n      swap1\n      dup2\n      mstore\n      0x20\n      add\n      0x00\n      keccak256\n        /* \"BallotV3-J.sol\":1529:1570  Voter storage sender = voters[msg.sender] */\n      swap1\n      pop\n        /* \"BallotV3-J.sol\":1585:1591  sender */\n      dup1\n        /* \"BallotV3-J.sol\":1585:1597  sender.voted */\n      0x01\n      add\n      0x00\n      swap1\n      sload\n      swap1\n      0x0100\n      exp\n      swap1\n      div\n      0xff\n      and\n        /* \"BallotV3-J.sol\":1585:1631  sender.voted || toProposal >= proposals.length */\n      dup1\n      tag_46\n      jumpi\n      pop\n        /* \"BallotV3-J.sol\":1615:1624  proposals */\n      0x02\n        /* \"BallotV3-J.sol\":1615:1631  proposals.length */\n      dup1\n      sload\n      swap1\n      pop\n        /* \"BallotV3-J.sol\":1601:1611  toProposal */\n      dup4\n        /* \"BallotV3-J.sol\":1601:1631  toProposal >= proposals.length */\n      0xff\n      and\n      lt\n      iszero\n        /* \"BallotV3-J.sol\":1585:1631  sender.voted || toProposal >= proposals.length */\n    tag_46:\n        /* \"BallotV3-J.sol\":1581:1640  if (sender.voted || toProposal >= proposals.length) return; */\n      iszero\n      tag_47\n      jumpi\n        /* \"BallotV3-J.sol\":1633:1640  return; */\n      pop\n      jump(tag_45)\n        /* \"BallotV3-J.sol\":1581:1640  if (sender.voted || toProposal >= proposals.length) return; */\n    tag_47:\n        /* \"BallotV3-J.sol\":1665:1669  true */\n      0x01\n        /* \"BallotV3-J.sol\":1650:1656  sender */\n      dup2\n        /* \"BallotV3-J.sol\":1650:1662  sender.voted */\n      0x01\n      add\n      0x00\n        /* \"BallotV3-J.sol\":1650:1669  sender.voted = true */\n      0x0100\n      exp\n      dup2\n      sload\n      dup2\n      0xff\n      mul\n      not\n      and\n      swap1\n      dup4\n      iszero\n      iszero\n      mul\n      or\n      swap1\n      sstore\n      pop\n        /* \"BallotV3-J.sol\":1694:1704  toProposal */\n      dup3\n        /* \"BallotV3-J.sol\":1680:1686  sender */\n      dup2\n        /* \"BallotV3-J.sol\":1680:1691  sender.vote */\n      0x01\n      add\n      0x01\n        /* \"BallotV3-J.sol\":1680:1704  sender.vote = toProposal */\n      0x0100\n      exp\n      dup2\n      sload\n      dup2\n      0xff\n      mul\n      not\n      and\n      swap1\n      dup4\n      0xff\n      and\n      mul\n      or\n      swap1\n      sstore\n      pop\n        /* \"BallotV3-J.sol\":1750:1756  sender */\n      dup1\n        /* \"BallotV3-J.sol\":1750:1763  sender.weight */\n      0x00\n      add\n      sload\n        /* \"BallotV3-J.sol\":1715:1724  proposals */\n      0x02\n        /* \"BallotV3-J.sol\":1725:1735  toProposal */\n      dup5\n        /* \"BallotV3-J.sol\":1715:1736  proposals[toProposal] */\n      0xff\n      and\n      dup2\n      sload\n      dup2\n      lt\n      tag_48\n      jumpi\n      invalid\n    tag_48:\n      swap1\n      0x00\n      mstore\n      keccak256(0x00, 0x20)\n      add\n        /* \"BallotV3-J.sol\":1715:1746  proposals[toProposal].voteCount */\n      0x00\n      add\n      0x00\n        /* \"BallotV3-J.sol\":1715:1763  proposals[toProposal].voteCount += sender.weight */\n      dup3\n      dup3\n      sload\n      add\n      swap3\n      pop\n      pop\n      dup2\n      swap1\n      sstore\n      pop\n        /* \"BallotV3-J.sol\":1796:1806  59 seconds */\n      0x3b\n        /* \"BallotV3-J.sol\":1785:1794  startTime */\n      sload(0x03)\n        /* \"BallotV3-J.sol\":1785:1806  startTime+ 59 seconds */\n      add\n        /* \"BallotV3-J.sol\":1778:1781  now */\n      timestamp\n        /* \"BallotV3-J.sol\":1778:1807  now > (startTime+ 59 seconds) */\n      gt\n        /* \"BallotV3-J.sol\":1774:1854  if (now > (startTime+ 59 seconds)) {stage = Stage.Done; emit votingCompleted();} */\n      iszero\n      tag_50\n      jumpi\n        /* \"BallotV3-J.sol\":1818:1828  Stage.Done */\n      0x03\n        /* \"BallotV3-J.sol\":1810:1815  stage */\n      0x00\n      dup1\n        /* \"BallotV3-J.sol\":1810:1828  stage = Stage.Done */\n      0x0100\n      exp\n      dup2\n      sload\n      dup2\n      0xff\n      mul\n      not\n      and\n      swap1\n      dup4\n      0x03\n      dup2\n      gt\n      iszero\n      tag_51\n      jumpi\n      invalid\n    tag_51:\n      mul\n      or\n      swap1\n      sstore\n      pop\n        /* \"BallotV3-J.sol\":1835:1852  votingCompleted() */\n      0x6ac0c89219f0135e3a87cecdf1851abced71da933a0a00e1eada0ef035382351\n      mload(0x40)\n      mload(0x40)\n      dup1\n      swap2\n      sub\n      swap1\n      log1\n        /* \"BallotV3-J.sol\":1774:1854  if (now > (startTime+ 59 seconds)) {stage = Stage.Done; emit votingCompleted();} */\n    tag_50:\n        /* \"BallotV3-J.sol\":583:584  _ */\n      pop\n    tag_45:\n        /* \"BallotV3-J.sol\":1408:1863  function vote(uint8 toProposal) public validStage(Stage.Vote)  {\r... */\n      pop\n      pop\n      jump\t// out\n        /* \"BallotV3-J.sol\":303:334  Stage public stage = Stage.Init */\n    tag_16:\n      0x00\n      dup1\n      swap1\n      sload\n      swap1\n      0x0100\n      exp\n      swap1\n      div\n      0xff\n      and\n      dup2\n      jump\t// out\n\n    auxdata: 0xa265627a7a72305820c8bc698aaa0828611c6ecd09c447d43512e1c87fb16a3f908501c6ef1909e91d64736f6c63430005090032\n}\n",
				"bytecode": {
					"linkReferences": {},
					"object": "608060405260008060006101000a81548160ff0219169083600381111561002257fe5b021790555034801561003357600080fd5b506040516106f53803806106f58339818101604052602081101561005657600080fd5b810190808051906020019092919050505033600060016101000a81548173ffffffffffffffffffffffffffffffffffffffff021916908373ffffffffffffffffffffffffffffffffffffffff1602179055506002600160008060019054906101000a900473ffffffffffffffffffffffffffffffffffffffff1673ffffffffffffffffffffffffffffffffffffffff1673ffffffffffffffffffffffffffffffffffffffff168152602001908152602001600020600001819055508060ff166002816101229190610153565b5060016000806101000a81548160ff0219169083600381111561014157fe5b021790555042600381905550506101a6565b81548183558181111561017a57818360005260206000209182019101610179919061017f565b5b505050565b6101a391905b8082111561019f5760008082016000905550600101610185565b5090565b90565b610540806101b56000396000f3fe608060405234801561001057600080fd5b506004361061004c5760003560e01c80634420e48614610051578063609ff1bd14610095578063b3f98adc146100b9578063c040e6b8146100ea575b600080fd5b6100936004803603602081101561006757600080fd5b81019080803573ffffffffffffffffffffffffffffffffffffffff169060200190929190505050610116565b005b61009d6102d3565b604051808260ff1660ff16815260200191505060405180910390f35b6100e8600480360360208110156100cf57600080fd5b81019080803560ff169060200190929190505050610388565b005b6100f26104f9565b6040518082600381111561010257fe5b60ff16815260200191505060405180910390f35b600180600381111561012457fe5b6000809054906101000a900460ff16600381111561013e57fe5b1461014857600080fd5b600060019054906101000a900473ffffffffffffffffffffffffffffffffffffffff1673ffffffffffffffffffffffffffffffffffffffff163373ffffffffffffffffffffffffffffffffffffffff161415806101f15750600160008373ffffffffffffffffffffffffffffffffffffffff1673ffffffffffffffffffffffffffffffffffffffff16815260200190815260200160002060010160009054906101000a900460ff165b156101fb576102cf565b60018060008473ffffffffffffffffffffffffffffffffffffffff1673ffffffffffffffffffffffffffffffffffffffff168152602001908152602001600020600001819055506000600160008473ffffffffffffffffffffffffffffffffffffffff1673ffffffffffffffffffffffffffffffffffffffff16815260200190815260200160002060010160006101000a81548160ff021916908315150217905550601e600354014211156102ce5760026000806101000a81548160ff021916908360038111156102c857fe5b02179055505b5b5050565b600060038060038111156102e357fe5b6000809054906101000a900460ff1660038111156102fd57fe5b1461030757600080fd5b600080905060008090505b6002805490508160ff161015610378578160028260ff168154811061033357fe5b9060005260206000200160000154111561036b5760028160ff168154811061035757fe5b906000526020600020016000015491508093505b8080600101915050610312565b506000811161038357fe5b505090565b600280600381111561039657fe5b6000809054906101000a900460ff1660038111156103b057fe5b146103ba57600080fd5b6000600160003373ffffffffffffffffffffffffffffffffffffffff1673ffffffffffffffffffffffffffffffffffffffff16815260200190815260200160002090508060010160009054906101000a900460ff168061042257506002805490508360ff1610155b1561042d57506104f5565b60018160010160006101000a81548160ff021916908315150217905550828160010160016101000a81548160ff021916908360ff160217905550806000015460028460ff168154811061047c57fe5b9060005260206000200160000160008282540192505081905550603b600354014211156104f35760036000806101000a81548160ff021916908360038111156104c157fe5b02179055507f6ac0c89219f0135e3a87cecdf1851abced71da933a0a00e1eada0ef03538235160405160405180910390a15b505b5050565b6000809054906101000a900460ff168156fea265627a7a72305820c8bc698aaa0828611c6ecd09c447d43512e1c87fb16a3f908501c6ef1909e91d64736f6c63430005090032",
					"opcodes": "PUSH1 0x80 PUSH1 0x40 MSTORE PUSH1 0x0 DUP1 PUSH1 0x0 PUSH2 0x100 EXP DUP2 SLOAD DUP2 PUSH1 0xFF MUL NOT AND SWAP1 DUP4 PUSH1 0x3 DUP2 GT ISZERO PUSH2 0x22 JUMPI INVALID JUMPDEST MUL OR SWAP1 SSTORE POP CALLVALUE DUP1 ISZERO PUSH2 0x33 JUMPI PUSH1 0x0 DUP1 REVERT JUMPDEST POP PUSH1 0x40 MLOAD PUSH2 0x6F5 CODESIZE SUB DUP1 PUSH2 0x6F5 DUP4 CODECOPY DUP2 DUP2 ADD PUSH1 0x40 MSTORE PUSH1 0x20 DUP2 LT ISZERO PUSH2 0x56 JUMPI PUSH1 0x0 DUP1 REVERT JUMPDEST DUP2 ADD SWAP1 DUP1 DUP1 MLOAD SWAP1 PUSH1 0x20 ADD SWAP1 SWAP3 SWAP2 SWAP1 POP POP POP CALLER PUSH1 0x0 PUSH1 0x1 PUSH2 0x100 EXP DUP2 SLOAD DUP2 PUSH20 0xFFFFFFFFFFFFFFFFFFFFFFFFFFFFFFFFFFFFFFFF MUL NOT AND SWAP1 DUP4 PUSH20 0xFFFFFFFFFFFFFFFFFFFFFFFFFFFFFFFFFFFFFFFF AND MUL OR SWAP1 SSTORE POP PUSH1 0x2 PUSH1 0x1 PUSH1 0x0 DUP1 PUSH1 0x1 SWAP1 SLOAD SWAP1 PUSH2 0x100 EXP SWAP1 DIV PUSH20 0xFFFFFFFFFFFFFFFFFFFFFFFFFFFFFFFFFFFFFFFF AND PUSH20 0xFFFFFFFFFFFFFFFFFFFFFFFFFFFFFFFFFFFFFFFF AND PUSH20 0xFFFFFFFFFFFFFFFFFFFFFFFFFFFFFFFFFFFFFFFF AND DUP2 MSTORE PUSH1 0x20 ADD SWAP1 DUP2 MSTORE PUSH1 0x20 ADD PUSH1 0x0 KECCAK256 PUSH1 0x0 ADD DUP2 SWAP1 SSTORE POP DUP1 PUSH1 0xFF AND PUSH1 0x2 DUP2 PUSH2 0x122 SWAP2 SWAP1 PUSH2 0x153 JUMP JUMPDEST POP PUSH1 0x1 PUSH1 0x0 DUP1 PUSH2 0x100 EXP DUP2 SLOAD DUP2 PUSH1 0xFF MUL NOT AND SWAP1 DUP4 PUSH1 0x3 DUP2 GT ISZERO PUSH2 0x141 JUMPI INVALID JUMPDEST MUL OR SWAP1 SSTORE POP TIMESTAMP PUSH1 0x3 DUP2 SWAP1 SSTORE POP POP PUSH2 0x1A6 JUMP JUMPDEST DUP2 SLOAD DUP2 DUP4 SSTORE DUP2 DUP2 GT ISZERO PUSH2 0x17A JUMPI DUP2 DUP4 PUSH1 0x0 MSTORE PUSH1 0x20 PUSH1 0x0 KECCAK256 SWAP2 DUP3 ADD SWAP2 ADD PUSH2 0x179 SWAP2 SWAP1 PUSH2 0x17F JUMP JUMPDEST JUMPDEST POP POP POP JUMP JUMPDEST PUSH2 0x1A3 SWAP2 SWAP1 JUMPDEST DUP1 DUP3 GT ISZERO PUSH2 0x19F JUMPI PUSH1 0x0 DUP1 DUP3 ADD PUSH1 0x0 SWAP1 SSTORE POP PUSH1 0x1 ADD PUSH2 0x185 JUMP JUMPDEST POP SWAP1 JUMP JUMPDEST SWAP1 JUMP JUMPDEST PUSH2 0x540 DUP1 PUSH2 0x1B5 PUSH1 0x0 CODECOPY PUSH1 0x0 RETURN INVALID PUSH1 0x80 PUSH1 0x40 MSTORE CALLVALUE DUP1 ISZERO PUSH2 0x10 JUMPI PUSH1 0x0 DUP1 REVERT JUMPDEST POP PUSH1 0x4 CALLDATASIZE LT PUSH2 0x4C JUMPI PUSH1 0x0 CALLDATALOAD PUSH1 0xE0 SHR DUP1 PUSH4 0x4420E486 EQ PUSH2 0x51 JUMPI DUP1 PUSH4 0x609FF1BD EQ PUSH2 0x95 JUMPI DUP1 PUSH4 0xB3F98ADC EQ PUSH2 0xB9 JUMPI DUP1 PUSH4 0xC040E6B8 EQ PUSH2 0xEA JUMPI JUMPDEST PUSH1 0x0 DUP1 REVERT JUMPDEST PUSH2 0x93 PUSH1 0x4 DUP1 CALLDATASIZE SUB PUSH1 0x20 DUP2 LT ISZERO PUSH2 0x67 JUMPI PUSH1 0x0 DUP1 REVERT JUMPDEST DUP2 ADD SWAP1 DUP1 DUP1 CALLDATALOAD PUSH20 0xFFFFFFFFFFFFFFFFFFFFFFFFFFFFFFFFFFFFFFFF AND SWAP1 PUSH1 0x20 ADD SWAP1 SWAP3 SWAP2 SWAP1 POP POP POP PUSH2 0x116 JUMP JUMPDEST STOP JUMPDEST PUSH2 0x9D PUSH2 0x2D3 JUMP JUMPDEST PUSH1 0x40 MLOAD DUP1 DUP3 PUSH1 0xFF AND PUSH1 0xFF AND DUP2 MSTORE PUSH1 0x20 ADD SWAP2 POP POP PUSH1 0x40 MLOAD DUP1 SWAP2 SUB SWAP1 RETURN JUMPDEST PUSH2 0xE8 PUSH1 0x4 DUP1 CALLDATASIZE SUB PUSH1 0x20 DUP2 LT ISZERO PUSH2 0xCF JUMPI PUSH1 0x0 DUP1 REVERT JUMPDEST DUP2 ADD SWAP1 DUP1 DUP1 CALLDATALOAD PUSH1 0xFF AND SWAP1 PUSH1 0x20 ADD SWAP1 SWAP3 SWAP2 SWAP1 POP POP POP PUSH2 0x388 JUMP JUMPDEST STOP JUMPDEST PUSH2 0xF2 PUSH2 0x4F9 JUMP JUMPDEST PUSH1 0x40 MLOAD DUP1 DUP3 PUSH1 0x3 DUP2 GT ISZERO PUSH2 0x102 JUMPI INVALID JUMPDEST PUSH1 0xFF AND DUP2 MSTORE PUSH1 0x20 ADD SWAP2 POP POP PUSH1 0x40 MLOAD DUP1 SWAP2 SUB SWAP1 RETURN JUMPDEST PUSH1 0x1 DUP1 PUSH1 0x3 DUP2 GT ISZERO PUSH2 0x124 JUMPI INVALID JUMPDEST PUSH1 0x0 DUP1 SWAP1 SLOAD SWAP1 PUSH2 0x100 EXP SWAP1 DIV PUSH1 0xFF AND PUSH1 0x3 DUP2 GT ISZERO PUSH2 0x13E JUMPI INVALID JUMPDEST EQ PUSH2 0x148 JUMPI PUSH1 0x0 DUP1 REVERT JUMPDEST PUSH1 0x0 PUSH1 0x1 SWAP1 SLOAD SWAP1 PUSH2 0x100 EXP SWAP1 DIV PUSH20 0xFFFFFFFFFFFFFFFFFFFFFFFFFFFFFFFFFFFFFFFF AND PUSH20 0xFFFFFFFFFFFFFFFFFFFFFFFFFFFFFFFFFFFFFFFF AND CALLER PUSH20 0xFFFFFFFFFFFFFFFFFFFFFFFFFFFFFFFFFFFFFFFF AND EQ ISZERO DUP1 PUSH2 0x1F1 JUMPI POP PUSH1 0x1 PUSH1 0x0 DUP4 PUSH20 0xFFFFFFFFFFFFFFFFFFFFFFFFFFFFFFFFFFFFFFFF AND PUSH20 0xFFFFFFFFFFFFFFFFFFFFFFFFFFFFFFFFFFFFFFFF AND DUP2 MSTORE PUSH1 0x20 ADD SWAP1 DUP2 MSTORE PUSH1 0x20 ADD PUSH1 0x0 KECCAK256 PUSH1 0x1 ADD PUSH1 0x0 SWAP1 SLOAD SWAP1 PUSH2 0x100 EXP SWAP1 DIV PUSH1 0xFF AND JUMPDEST ISZERO PUSH2 0x1FB JUMPI PUSH2 0x2CF JUMP JUMPDEST PUSH1 0x1 DUP1 PUSH1 0x0 DUP5 PUSH20 0xFFFFFFFFFFFFFFFFFFFFFFFFFFFFFFFFFFFFFFFF AND PUSH20 0xFFFFFFFFFFFFFFFFFFFFFFFFFFFFFFFFFFFFFFFF AND DUP2 MSTORE PUSH1 0x20 ADD SWAP1 DUP2 MSTORE PUSH1 0x20 ADD PUSH1 0x0 KECCAK256 PUSH1 0x0 ADD DUP2 SWAP1 SSTORE POP PUSH1 0x0 PUSH1 0x1 PUSH1 0x0 DUP5 PUSH20 0xFFFFFFFFFFFFFFFFFFFFFFFFFFFFFFFFFFFFFFFF AND PUSH20 0xFFFFFFFFFFFFFFFFFFFFFFFFFFFFFFFFFFFFFFFF AND DUP2 MSTORE PUSH1 0x20 ADD SWAP1 DUP2 MSTORE PUSH1 0x20 ADD PUSH1 0x0 KECCAK256 PUSH1 0x1 ADD PUSH1 0x0 PUSH2 0x100 EXP DUP2 SLOAD DUP2 PUSH1 0xFF MUL NOT AND SWAP1 DUP4 ISZERO ISZERO MUL OR SWAP1 SSTORE POP PUSH1 0x1E PUSH1 0x3 SLOAD ADD TIMESTAMP GT ISZERO PUSH2 0x2CE JUMPI PUSH1 0x2 PUSH1 0x0 DUP1 PUSH2 0x100 EXP DUP2 SLOAD DUP2 PUSH1 0xFF MUL NOT AND SWAP1 DUP4 PUSH1 0x3 DUP2 GT ISZERO PUSH2 0x2C8 JUMPI INVALID JUMPDEST MUL OR SWAP1 SSTORE POP JUMPDEST JUMPDEST POP POP JUMP JUMPDEST PUSH1 0x0 PUSH1 0x3 DUP1 PUSH1 0x3 DUP2 GT ISZERO PUSH2 0x2E3 JUMPI INVALID JUMPDEST PUSH1 0x0 DUP1 SWAP1 SLOAD SWAP1 PUSH2 0x100 EXP SWAP1 DIV PUSH1 0xFF AND PUSH1 0x3 DUP2 GT ISZERO PUSH2 0x2FD JUMPI INVALID JUMPDEST EQ PUSH2 0x307 JUMPI PUSH1 0x0 DUP1 REVERT JUMPDEST PUSH1 0x0 DUP1 SWAP1 POP PUSH1 0x0 DUP1 SWAP1 POP JUMPDEST PUSH1 0x2 DUP1 SLOAD SWAP1 POP DUP2 PUSH1 0xFF AND LT ISZERO PUSH2 0x378 JUMPI DUP2 PUSH1 0x2 DUP3 PUSH1 0xFF AND DUP2 SLOAD DUP2 LT PUSH2 0x333 JUMPI INVALID JUMPDEST SWAP1 PUSH1 0x0 MSTORE PUSH1 0x20 PUSH1 0x0 KECCAK256 ADD PUSH1 0x0 ADD SLOAD GT ISZERO PUSH2 0x36B JUMPI PUSH1 0x2 DUP2 PUSH1 0xFF AND DUP2 SLOAD DUP2 LT PUSH2 0x357 JUMPI INVALID JUMPDEST SWAP1 PUSH1 0x0 MSTORE PUSH1 0x20 PUSH1 0x0 KECCAK256 ADD PUSH1 0x0 ADD SLOAD SWAP2 POP DUP1 SWAP4 POP JUMPDEST DUP1 DUP1 PUSH1 0x1 ADD SWAP2 POP POP PUSH2 0x312 JUMP JUMPDEST POP PUSH1 0x0 DUP2 GT PUSH2 0x383 JUMPI INVALID JUMPDEST POP POP SWAP1 JUMP JUMPDEST PUSH1 0x2 DUP1 PUSH1 0x3 DUP2 GT ISZERO PUSH2 0x396 JUMPI INVALID JUMPDEST PUSH1 0x0 DUP1 SWAP1 SLOAD SWAP1 PUSH2 0x100 EXP SWAP1 DIV PUSH1 0xFF AND PUSH1 0x3 DUP2 GT ISZERO PUSH2 0x3B0 JUMPI INVALID JUMPDEST EQ PUSH2 0x3BA JUMPI PUSH1 0x0 DUP1 REVERT JUMPDEST PUSH1 0x0 PUSH1 0x1 PUSH1 0x0 CALLER PUSH20 0xFFFFFFFFFFFFFFFFFFFFFFFFFFFFFFFFFFFFFFFF AND PUSH20 0xFFFFFFFFFFFFFFFFFFFFFFFFFFFFFFFFFFFFFFFF AND DUP2 MSTORE PUSH1 0x20 ADD SWAP1 DUP2 MSTORE PUSH1 0x20 ADD PUSH1 0x0 KECCAK256 SWAP1 POP DUP1 PUSH1 0x1 ADD PUSH1 0x0 SWAP1 SLOAD SWAP1 PUSH2 0x100 EXP SWAP1 DIV PUSH1 0xFF AND DUP1 PUSH2 0x422 JUMPI POP PUSH1 0x2 DUP1 SLOAD SWAP1 POP DUP4 PUSH1 0xFF AND LT ISZERO JUMPDEST ISZERO PUSH2 0x42D JUMPI POP PUSH2 0x4F5 JUMP JUMPDEST PUSH1 0x1 DUP2 PUSH1 0x1 ADD PUSH1 0x0 PUSH2 0x100 EXP DUP2 SLOAD DUP2 PUSH1 0xFF MUL NOT AND SWAP1 DUP4 ISZERO ISZERO MUL OR SWAP1 SSTORE POP DUP3 DUP2 PUSH1 0x1 ADD PUSH1 0x1 PUSH2 0x100 EXP DUP2 SLOAD DUP2 PUSH1 0xFF MUL NOT AND SWAP1 DUP4 PUSH1 0xFF AND MUL OR SWAP1 SSTORE POP DUP1 PUSH1 0x0 ADD SLOAD PUSH1 0x2 DUP5 PUSH1 0xFF AND DUP2 SLOAD DUP2 LT PUSH2 0x47C JUMPI INVALID JUMPDEST SWAP1 PUSH1 0x0 MSTORE PUSH1 0x20 PUSH1 0x0 KECCAK256 ADD PUSH1 0x0 ADD PUSH1 0x0 DUP3 DUP3 SLOAD ADD SWAP3 POP POP DUP2 SWAP1 SSTORE POP PUSH1 0x3B PUSH1 0x3 SLOAD ADD TIMESTAMP GT ISZERO PUSH2 0x4F3 JUMPI PUSH1 0x3 PUSH1 0x0 DUP1 PUSH2 0x100 EXP DUP2 SLOAD DUP2 PUSH1 0xFF MUL NOT AND SWAP1 DUP4 PUSH1 0x3 DUP2 GT ISZERO PUSH2 0x4C1 JUMPI INVALID JUMPDEST MUL OR SWAP1 SSTORE POP PUSH32 0x6AC0C89219F0135E3A87CECDF1851ABCED71DA933A0A00E1EADA0EF035382351 PUSH1 0x40 MLOAD PUSH1 0x40 MLOAD DUP1 SWAP2 SUB SWAP1 LOG1 JUMPDEST POP JUMPDEST POP POP JUMP JUMPDEST PUSH1 0x0 DUP1 SWAP1 SLOAD SWAP1 PUSH2 0x100 EXP SWAP1 DIV PUSH1 0xFF AND DUP2 JUMP INVALID LOG2 PUSH6 0x627A7A723058 KECCAK256 0xc8 0xbc PUSH10 0x8AAA0828611C6ECD09C4 0x47 0xd4 CALLDATALOAD SLT 0xe1 0xc8 PUSH32 0xB16A3F908501C6EF1909E91D64736F6C63430005090032000000000000000000 "
				},
				"gasEstimates": {
					"creation": {
						"codeDepositCost": "268800",
						"executionCost": "infinite",
						"totalCost": "infinite"
					},
					"external": {
						"register(address)": "62200",
						"stage()": "517",
						"vote(uint8)": "83804",
						"winningProposal()": "infinite"
					}
				},
				"methodIdentifiers": {
					"register(address)": "4420e486",
					"stage()": "c040e6b8",
					"vote(uint8)": "b3f98adc",
					"winningProposal()": "609ff1bd"
				}
			},
			"userdoc": {
				"methods": {
					"constructor": "Create a new ballot with $(_numProposals) different proposals.",
					"register(address)": {
						"notice": "May only be called by $(chairperson)."
					},
					"vote(uint8)": {
						"notice": "Give a single vote to proposal $(toProposal)."
					}
				}
			}
		}
	}
}