{
	"data": {
		"bytecode": {
			"linkReferences": {},
			"object": "608060405234801561001057600080fd5b5060008060006101000a81548160ff0219169083600381111561002f57fe5b02179055504260018190555061020d8061004a6000396000f3fe608060405234801561001057600080fd5b50600436106100415760003560e01c8063c040e6b814610046578063d95660be14610072578063ecf7084614610090575b600080fd5b61004e61009a565b6040518082600381111561005e57fe5b60ff16815260200191505060405180910390f35b61007a6100ac565b6040518082815260200191505060405180910390f35b6100986100b2565b005b6000809054906101000a900460ff1681565b60025481565b42600281905550600a6001540160025411156101d557600254600181905550600060038111156100de57fe5b6000809054906101000a900460ff1660038111156100f857fe5b14156101265760016000806101000a81548160ff0219169083600381111561011c57fe5b02179055506101d6565b6001600381111561013357fe5b6000809054906101000a900460ff16600381111561014d57fe5b141561017b5760026000806101000a81548160ff0219169083600381111561017157fe5b02179055506101d6565b6002600381111561018857fe5b6000809054906101000a900460ff1660038111156101a257fe5b14156101d05760036000806101000a81548160ff021916908360038111156101c657fe5b02179055506101d6565b6101d6565b5b56fea265627a7a72305820242746c09617ead99a30cbf4cc394e345db41b63de879882cf2e86f3cfc6f48964736f6c63430005090032",
			"opcodes": "PUSH1 0x80 PUSH1 0x40 MSTORE CALLVALUE DUP1 ISZERO PUSH2 0x10 JUMPI PUSH1 0x0 DUP1 REVERT JUMPDEST POP PUSH1 0x0 DUP1 PUSH1 0x0 PUSH2 0x100 EXP DUP2 SLOAD DUP2 PUSH1 0xFF MUL NOT AND SWAP1 DUP4 PUSH1 0x3 DUP2 GT ISZERO PUSH2 0x2F JUMPI INVALID JUMPDEST MUL OR SWAP1 SSTORE POP TIMESTAMP PUSH1 0x1 DUP2 SWAP1 SSTORE POP PUSH2 0x20D DUP1 PUSH2 0x4A PUSH1 0x0 CODECOPY PUSH1 0x0 RETURN INVALID PUSH1 0x80 PUSH1 0x40 MSTORE CALLVALUE DUP1 ISZERO PUSH2 0x10 JUMPI PUSH1 0x0 DUP1 REVERT JUMPDEST POP PUSH1 0x4 CALLDATASIZE LT PUSH2 0x41 JUMPI PUSH1 0x0 CALLDATALOAD PUSH1 0xE0 SHR DUP1 PUSH4 0xC040E6B8 EQ PUSH2 0x46 JUMPI DUP1 PUSH4 0xD95660BE EQ PUSH2 0x72 JUMPI DUP1 PUSH4 0xECF70846 EQ PUSH2 0x90 JUMPI JUMPDEST PUSH1 0x0 DUP1 REVERT JUMPDEST PUSH2 0x4E PUSH2 0x9A JUMP JUMPDEST PUSH1 0x40 MLOAD DUP1 DUP3 PUSH1 0x3 DUP2 GT ISZERO PUSH2 0x5E JUMPI INVALID JUMPDEST PUSH1 0xFF AND DUP2 MSTORE PUSH1 0x20 ADD SWAP2 POP POP PUSH1 0x40 MLOAD DUP1 SWAP2 SUB SWAP1 RETURN JUMPDEST PUSH2 0x7A PUSH2 0xAC JUMP JUMPDEST PUSH1 0x40 MLOAD DUP1 DUP3 DUP2 MSTORE PUSH1 0x20 ADD SWAP2 POP POP PUSH1 0x40 MLOAD DUP1 SWAP2 SUB SWAP1 RETURN JUMPDEST PUSH2 0x98 PUSH2 0xB2 JUMP JUMPDEST STOP JUMPDEST PUSH1 0x0 DUP1 SWAP1 SLOAD SWAP1 PUSH2 0x100 EXP SWAP1 DIV PUSH1 0xFF AND DUP2 JUMP JUMPDEST PUSH1 0x2 SLOAD DUP2 JUMP JUMPDEST TIMESTAMP PUSH1 0x2 DUP2 SWAP1 SSTORE POP PUSH1 0xA PUSH1 0x1 SLOAD ADD PUSH1 0x2 SLOAD GT ISZERO PUSH2 0x1D5 JUMPI PUSH1 0x2 SLOAD PUSH1 0x1 DUP2 SWAP1 SSTORE POP PUSH1 0x0 PUSH1 0x3 DUP2 GT ISZERO PUSH2 0xDE JUMPI INVALID JUMPDEST PUSH1 0x0 DUP1 SWAP1 SLOAD SWAP1 PUSH2 0x100 EXP SWAP1 DIV PUSH1 0xFF AND PUSH1 0x3 DUP2 GT ISZERO PUSH2 0xF8 JUMPI INVALID JUMPDEST EQ ISZERO PUSH2 0x126 JUMPI PUSH1 0x1 PUSH1 0x0 DUP1 PUSH2 0x100 EXP DUP2 SLOAD DUP2 PUSH1 0xFF MUL NOT AND SWAP1 DUP4 PUSH1 0x3 DUP2 GT ISZERO PUSH2 0x11C JUMPI INVALID JUMPDEST MUL OR SWAP1 SSTORE POP PUSH2 0x1D6 JUMP JUMPDEST PUSH1 0x1 PUSH1 0x3 DUP2 GT ISZERO PUSH2 0x133 JUMPI INVALID JUMPDEST PUSH1 0x0 DUP1 SWAP1 SLOAD SWAP1 PUSH2 0x100 EXP SWAP1 DIV PUSH1 0xFF AND PUSH1 0x3 DUP2 GT ISZERO PUSH2 0x14D JUMPI INVALID JUMPDEST EQ ISZERO PUSH2 0x17B JUMPI PUSH1 0x2 PUSH1 0x0 DUP1 PUSH2 0x100 EXP DUP2 SLOAD DUP2 PUSH1 0xFF MUL NOT AND SWAP1 DUP4 PUSH1 0x3 DUP2 GT ISZERO PUSH2 0x171 JUMPI INVALID JUMPDEST MUL OR SWAP1 SSTORE POP PUSH2 0x1D6 JUMP JUMPDEST PUSH1 0x2 PUSH1 0x3 DUP2 GT ISZERO PUSH2 0x188 JUMPI INVALID JUMPDEST PUSH1 0x0 DUP1 SWAP1 SLOAD SWAP1 PUSH2 0x100 EXP SWAP1 DIV PUSH1 0xFF AND PUSH1 0x3 DUP2 GT ISZERO PUSH2 0x1A2 JUMPI INVALID JUMPDEST EQ ISZERO PUSH2 0x1D0 JUMPI PUSH1 0x3 PUSH1 0x0 DUP1 PUSH2 0x100 EXP DUP2 SLOAD DUP2 PUSH1 0xFF MUL NOT AND SWAP1 DUP4 PUSH1 0x3 DUP2 GT ISZERO PUSH2 0x1C6 JUMPI INVALID JUMPDEST MUL OR SWAP1 SSTORE POP PUSH2 0x1D6 JUMP JUMPDEST PUSH2 0x1D6 JUMP JUMPDEST JUMPDEST JUMP INVALID LOG2 PUSH6 0x627A7A723058 KECCAK256 0x24 0x27 0x46 0xc0 SWAP7 OR 0xea 0xd9 SWAP11 ADDRESS 0xcb DELEGATECALL 0xcc CODECOPY 0x4e CALLVALUE 0x5d 0xb4 SHL PUSH4 0xDE879882 0xcf 0x2e DUP7 RETURN 0xcf 0xc6 DELEGATECALL DUP10 PUSH5 0x736F6C6343 STOP SDIV MULMOD STOP ORIGIN "
		},
		"gasEstimates": {
			"creation": {
				"codeDepositCost": "105000",
				"executionCost": "40453",
				"totalCost": "145453"
			},
			"external": {
				"adavnceState()": "62064",
				"stage()": "451",
				"timeNow()": "405"
			}
		},
		"methodIdentifiers": {
			"adavnceState()": "ecf70846",
			"stage()": "c040e6b8",
			"timeNow()": "d95660be"
		}
	},
	"abi": [
		{
			"constant": true,
			"inputs": [],
			"name": "stage",
			"outputs": [
				{
					"name": "",
					"type": "uint8"
				}
			],
			"payable": false,
			"stateMutability": "view",
			"type": "function"
		},
		{
			"constant": true,
			"inputs": [],
			"name": "timeNow",
			"outputs": [
				{
					"name": "",
					"type": "uint256"
				}
			],
			"payable": false,
			"stateMutability": "view",
			"type": "function"
		},
		{
			"constant": false,
			"inputs": [],
			"name": "adavnceState",
			"outputs": [],
			"payable": false,
			"stateMutability": "nonpayable",
			"type": "function"
		},
		{
			"inputs": [],
			"payable": false,
			"stateMutability": "nonpayable",
			"type": "constructor"
		}
	]
}